{
  "contractName": "CustomOwnership",
  "abi": [
    {
      "constant": true,
      "inputs": [],
      "name": "registry",
      "outputs": [
        {
          "name": "",
          "type": "address"
        }
      ],
      "payable": false,
      "stateMutability": "view",
      "type": "function"
    },
    {
      "constant": true,
      "inputs": [],
      "name": "owner",
      "outputs": [
        {
          "name": "",
          "type": "address"
        }
      ],
      "payable": false,
      "stateMutability": "view",
      "type": "function"
    },
    {
      "constant": false,
      "inputs": [
        {
          "name": "newRegistry",
          "type": "address"
        }
      ],
      "name": "switchRegistry",
      "outputs": [],
      "payable": false,
      "stateMutability": "nonpayable",
      "type": "function"
    },
    {
      "constant": false,
      "inputs": [
        {
          "name": "newOwner",
          "type": "address"
        }
      ],
      "name": "transferOwnership",
      "outputs": [],
      "payable": false,
      "stateMutability": "nonpayable",
      "type": "function"
    },
    {
      "inputs": [],
      "payable": false,
      "stateMutability": "nonpayable",
      "type": "constructor"
    },
    {
      "anonymous": false,
      "inputs": [
        {
          "indexed": true,
          "name": "previousOwner",
          "type": "address"
        },
        {
          "indexed": true,
          "name": "newOwner",
          "type": "address"
        }
      ],
      "name": "OwnershipTransferred",
      "type": "event"
    },
    {
      "anonymous": false,
      "inputs": [
        {
          "indexed": true,
          "name": "previousRepo",
          "type": "address"
        },
        {
          "indexed": true,
          "name": "newRepo",
          "type": "address"
        }
      ],
      "name": "RegistrySwitch",
      "type": "event"
    }
  ],
  "bytecode": "0x6060604052341561000f57600080fd5b33600160006101000a81548173ffffffffffffffffffffffffffffffffffffffff021916908373ffffffffffffffffffffffffffffffffffffffff1602179055506104a88061005f6000396000f300606060405260043610610062576000357c0100000000000000000000000000000000000000000000000000000000900463ffffffff1680637b103999146100675780638da5cb5b146100bc578063d3d7ee3e14610111578063f2fde38b1461014a575b600080fd5b341561007257600080fd5b61007a610183565b604051808273ffffffffffffffffffffffffffffffffffffffff1673ffffffffffffffffffffffffffffffffffffffff16815260200191505060405180910390f35b34156100c757600080fd5b6100cf6101a9565b604051808273ffffffffffffffffffffffffffffffffffffffff1673ffffffffffffffffffffffffffffffffffffffff16815260200191505060405180910390f35b341561011c57600080fd5b610148600480803573ffffffffffffffffffffffffffffffffffffffff169060200190919050506101ce565b005b341561015557600080fd5b610181600480803573ffffffffffffffffffffffffffffffffffffffff16906020019091905050610326565b005b600160009054906101000a900473ffffffffffffffffffffffffffffffffffffffff1681565b6000809054906101000a900473ffffffffffffffffffffffffffffffffffffffff1681565b600160009054906101000a900473ffffffffffffffffffffffffffffffffffffffff1673ffffffffffffffffffffffffffffffffffffffff163373ffffffffffffffffffffffffffffffffffffffff1614151561022a57600080fd5b600073ffffffffffffffffffffffffffffffffffffffff168173ffffffffffffffffffffffffffffffffffffffff161415151561026657600080fd5b8073ffffffffffffffffffffffffffffffffffffffff16600160009054906101000a900473ffffffffffffffffffffffffffffffffffffffff1673ffffffffffffffffffffffffffffffffffffffff167f8755b4ea006e11f39ff16bce682fa637f15d03dd0d81c6f820a7ca2511b5bfd460405160405180910390a380600160006101000a81548173ffffffffffffffffffffffffffffffffffffffff021916908373ffffffffffffffffffffffffffffffffffffffff16021790555050565b600160009054906101000a900473ffffffffffffffffffffffffffffffffffffffff1673ffffffffffffffffffffffffffffffffffffffff163373ffffffffffffffffffffffffffffffffffffffff1614151561038257600080fd5b600073ffffffffffffffffffffffffffffffffffffffff168173ffffffffffffffffffffffffffffffffffffffff16141515156103be57600080fd5b8073ffffffffffffffffffffffffffffffffffffffff166000809054906101000a900473ffffffffffffffffffffffffffffffffffffffff1673ffffffffffffffffffffffffffffffffffffffff167f8be0079c531659141344cd1fd0a4f28419497f9722a3daafe3b4186f6b6457e060405160405180910390a3806000806101000a81548173ffffffffffffffffffffffffffffffffffffffff021916908373ffffffffffffffffffffffffffffffffffffffff160217905550505600a165627a7a7230582036c27ffc59373d5052f8918310147bc7168dee8ecae69d800f3c536384d67a0c0029",
  "source": "pragma solidity ^0.4.0;\r\n\r\ncontract CustomOwnership{\r\n\r\n    address public owner;\r\n\r\n    address public registry;\r\n\r\n    event OwnershipTransferred(address indexed previousOwner, address indexed newOwner);\r\n\r\n    event RegistrySwitch(address indexed previousRepo, address indexed newRepo);\r\n\r\n    /**\r\n     * @dev The RepositoryOwned constructor sets the original `repository` of the contract to the sender\r\n     * account.\r\n     */\r\n\r\n    function CustomOwnership() public {\r\n        registry = msg.sender;\r\n    }\r\n\r\n    /**\r\n     * @dev Throws if called by any account other than the registry.\r\n     */\r\n    modifier registryOnly() {\r\n        require(msg.sender == registry);\r\n        _;\r\n    }\r\n\r\n    /**\r\n     * @dev Throws if called by any account other than the owner.\r\n     */\r\n    modifier onlyOwner() {\r\n        require(msg.sender == owner);\r\n        _;\r\n    }\r\n\r\n    /**\r\n     * @dev Allows the current owner to transfer control of the contract to a newOwner.\r\n     * @param newOwner The address to transfer ownership to.\r\n     */\r\n    function transferOwnership(address newOwner) public registryOnly {\r\n        require(newOwner != address(0));\r\n        OwnershipTransferred(owner, newOwner);\r\n        owner = newOwner;\r\n    }\r\n\r\n    /**\r\n     * @dev Allows the current owner to transfer control of the contract to a newRegistry.\r\n     * @param newRegistry The address to transfer ownership to.\r\n     */\r\n\r\n    function switchRegistry(address newRegistry) public registryOnly {\r\n        require(newRegistry != address(0));\r\n        RegistrySwitch(registry, newRegistry);\r\n        registry = newRegistry;\r\n    }\r\n\r\n}\r\n\r\n",
  "sourcePath": "C:\\Users\\User.Admin\\Desktop\\sol-workspace\\document-management-smc\\contracts\\CustomOwnership.sol",
  "compiler": {
    "name": "solc",
    "version": "0.4.18+commit.9cf6e910.Emscripten.clang"
  },
  "schemaVersion": "1.0.1",
  "updatedAt": "2018-04-27T05:09:46.734Z"
}