{
  "contractName": "Documents",
  "abi": [
    {
      "constant": true,
      "inputs": [],
      "name": "count",
      "outputs": [
        {
          "name": "",
          "type": "uint256"
        }
      ],
      "payable": false,
      "stateMutability": "view",
      "type": "function"
    },
    {
      "constant": true,
      "inputs": [
        {
          "name": "",
          "type": "address"
        },
        {
          "name": "",
          "type": "uint256"
        }
      ],
      "name": "documentOwnership",
      "outputs": [
        {
          "name": "",
          "type": "uint256"
        }
      ],
      "payable": false,
      "stateMutability": "view",
      "type": "function"
    },
    {
      "constant": false,
      "inputs": [
        {
          "name": "documentId",
          "type": "uint256"
        },
        {
          "name": "newOwner",
          "type": "address"
        }
      ],
      "name": "transferDocumentOwnership",
      "outputs": [],
      "payable": false,
      "stateMutability": "nonpayable",
      "type": "function"
    },
    {
      "constant": true,
      "inputs": [],
      "name": "owner",
      "outputs": [
        {
          "name": "",
          "type": "address"
        }
      ],
      "payable": false,
      "stateMutability": "view",
      "type": "function"
    },
    {
      "constant": false,
      "inputs": [
        {
          "name": "_docName",
          "type": "string"
        },
        {
          "name": "_checksum",
          "type": "bytes32"
        }
      ],
      "name": "createDocument",
      "outputs": [],
      "payable": false,
      "stateMutability": "nonpayable",
      "type": "function"
    },
    {
      "constant": true,
      "inputs": [
        {
          "name": "",
          "type": "uint256"
        }
      ],
      "name": "documents",
      "outputs": [
        {
          "name": "",
          "type": "address"
        }
      ],
      "payable": false,
      "stateMutability": "view",
      "type": "function"
    },
    {
      "constant": true,
      "inputs": [],
      "name": "identitiesAdd",
      "outputs": [
        {
          "name": "",
          "type": "address"
        }
      ],
      "payable": false,
      "stateMutability": "view",
      "type": "function"
    },
    {
      "constant": false,
      "inputs": [
        {
          "name": "_identitiesAdd",
          "type": "address"
        }
      ],
      "name": "setRolesDefAdd",
      "outputs": [],
      "payable": false,
      "stateMutability": "nonpayable",
      "type": "function"
    },
    {
      "constant": false,
      "inputs": [
        {
          "name": "newOwner",
          "type": "address"
        }
      ],
      "name": "transferOwnership",
      "outputs": [],
      "payable": false,
      "stateMutability": "nonpayable",
      "type": "function"
    },
    {
      "inputs": [
        {
          "name": "_identitiesAdd",
          "type": "address"
        }
      ],
      "payable": false,
      "stateMutability": "nonpayable",
      "type": "constructor"
    },
    {
      "anonymous": false,
      "inputs": [
        {
          "indexed": false,
          "name": "id",
          "type": "uint256"
        },
        {
          "indexed": false,
          "name": "document",
          "type": "address"
        },
        {
          "indexed": false,
          "name": "creator",
          "type": "address"
        }
      ],
      "name": "DocumentCreated",
      "type": "event"
    },
    {
      "anonymous": false,
      "inputs": [
        {
          "indexed": false,
          "name": "documentId",
          "type": "uint256"
        },
        {
          "indexed": false,
          "name": "previousOwner",
          "type": "address"
        },
        {
          "indexed": false,
          "name": "newOwner",
          "type": "address"
        }
      ],
      "name": "DocumentOwnershipTransferred",
      "type": "event"
    },
    {
      "anonymous": false,
      "inputs": [
        {
          "indexed": true,
          "name": "previousOwner",
          "type": "address"
        },
        {
          "indexed": true,
          "name": "newOwner",
          "type": "address"
        }
      ],
      "name": "OwnershipTransferred",
      "type": "event"
    }
  ],
  "bytecode": "0x6060604052341561000f57600080fd5b6040516020806123a183398101604052808051906020019091905050336000806101000a81548173ffffffffffffffffffffffffffffffffffffffff021916908373ffffffffffffffffffffffffffffffffffffffff16021790555080600460006101000a81548173ffffffffffffffffffffffffffffffffffffffff021916908373ffffffffffffffffffffffffffffffffffffffff160217905550506122e5806100bc6000396000f300606060405260043610610099576000357c0100000000000000000000000000000000000000000000000000000000900463ffffffff16806306661abd1461009e578063263662e1146100c75780632acb4f621461011d5780638da5cb5b1461015f578063c14c3fc8146101b4578063c2ed2b05146101ef578063d7b4bbc814610252578063db6138c0146102a7578063f2fde38b146102e0575b600080fd5b34156100a957600080fd5b6100b1610319565b6040518082815260200191505060405180910390f35b34156100d257600080fd5b610107600480803573ffffffffffffffffffffffffffffffffffffffff1690602001909190803590602001909190505061031f565b6040518082815260200191505060405180910390f35b341561012857600080fd5b61015d600480803590602001909190803573ffffffffffffffffffffffffffffffffffffffff16906020019091905050610350565b005b341561016a57600080fd5b610172610659565b604051808273ffffffffffffffffffffffffffffffffffffffff1673ffffffffffffffffffffffffffffffffffffffff16815260200191505060405180910390f35b34156101bf57600080fd5b6101ed600480803590602001908201803590602001919091929080356000191690602001909190505061067e565b005b34156101fa57600080fd5b61021060048080359060200190919050506109ae565b604051808273ffffffffffffffffffffffffffffffffffffffff1673ffffffffffffffffffffffffffffffffffffffff16815260200191505060405180910390f35b341561025d57600080fd5b6102656109e1565b604051808273ffffffffffffffffffffffffffffffffffffffff1673ffffffffffffffffffffffffffffffffffffffff16815260200191505060405180910390f35b34156102b257600080fd5b6102de600480803573ffffffffffffffffffffffffffffffffffffffff16906020019091905050610a07565b005b34156102eb57600080fd5b610317600480803573ffffffffffffffffffffffffffffffffffffffff16906020019091905050610aa6565b005b60035481565b60026020528160005260406000208181548110151561033a57fe5b9060005260206000209001600091509150505481565b60008073ffffffffffffffffffffffffffffffffffffffff166001600085815260200190815260200160002060009054906101000a900473ffffffffffffffffffffffffffffffffffffffff1673ffffffffffffffffffffffffffffffffffffffff16141515156103c057600080fd5b6103ca8333610bfb565b90507fffffffffffffffffffffffffffffffffffffffffffffffffffffffffffffffff81141515156103fb57600080fd5b600460009054906101000a900473ffffffffffffffffffffffffffffffffffffffff1673ffffffffffffffffffffffffffffffffffffffff1663d8a0b2e0836040518263ffffffff167c0100000000000000000000000000000000000000000000000000000000028152600401808273ffffffffffffffffffffffffffffffffffffffff1673ffffffffffffffffffffffffffffffffffffffff168152602001915050600060405180830381600087803b15156104b757600080fd5b6102c65a03f115156104c857600080fd5b5050506104d481610d05565b6001600084815260200190815260200160002060009054906101000a900473ffffffffffffffffffffffffffffffffffffffff1673ffffffffffffffffffffffffffffffffffffffff1663f2fde38b836040518263ffffffff167c0100000000000000000000000000000000000000000000000000000000028152600401808273ffffffffffffffffffffffffffffffffffffffff1673ffffffffffffffffffffffffffffffffffffffff168152602001915050600060405180830381600087803b15156105a157600080fd5b6102c65a03f115156105b257600080fd5b5050507f07ffd01f9c72e110c370a167f6aca57e1beb6bf97530085bc7f11c19b71544e0833384604051808481526020018373ffffffffffffffffffffffffffffffffffffffff1673ffffffffffffffffffffffffffffffffffffffff1681526020018273ffffffffffffffffffffffffffffffffffffffff1673ffffffffffffffffffffffffffffffffffffffff168152602001935050505060405180910390a1505050565b6000809054906101000a900473ffffffffffffffffffffffffffffffffffffffff1681565b6000600460009054906101000a900473ffffffffffffffffffffffffffffffffffffffff1673ffffffffffffffffffffffffffffffffffffffff1663d8a0b2e0336040518263ffffffff167c0100000000000000000000000000000000000000000000000000000000028152600401808273ffffffffffffffffffffffffffffffffffffffff1673ffffffffffffffffffffffffffffffffffffffff168152602001915050600060405180830381600087803b151561073c57600080fd5b6102c65a03f1151561074d57600080fd5b50505060036000815480929190600101919050555060035484848433600460009054906101000a900473ffffffffffffffffffffffffffffffffffffffff16610794610dbc565b808781526020018060200185600019166000191681526020018473ffffffffffffffffffffffffffffffffffffffff1673ffffffffffffffffffffffffffffffffffffffff1681526020018373ffffffffffffffffffffffffffffffffffffffff1673ffffffffffffffffffffffffffffffffffffffff16815260200182810382528787828181526020019250808284378201915050975050505050505050604051809103906000f080151561084957600080fd5b90508060016000600354815260200190815260200160002060006101000a81548173ffffffffffffffffffffffffffffffffffffffff021916908373ffffffffffffffffffffffffffffffffffffffff160217905550600260003373ffffffffffffffffffffffffffffffffffffffff1673ffffffffffffffffffffffffffffffffffffffff16815260200190815260200160002080548060010182816108f09190610dcc565b91600052602060002090016000600354909190915055507f88e599f91cc2127bf22e70a3a7df3b912539ec98aaa2a61ce1dce5eab03c89226003548233604051808481526020018373ffffffffffffffffffffffffffffffffffffffff1673ffffffffffffffffffffffffffffffffffffffff1681526020018273ffffffffffffffffffffffffffffffffffffffff1673ffffffffffffffffffffffffffffffffffffffff168152602001935050505060405180910390a150505050565b60016020528060005260406000206000915054906101000a900473ffffffffffffffffffffffffffffffffffffffff1681565b600460009054906101000a900473ffffffffffffffffffffffffffffffffffffffff1681565b6000809054906101000a900473ffffffffffffffffffffffffffffffffffffffff1673ffffffffffffffffffffffffffffffffffffffff163373ffffffffffffffffffffffffffffffffffffffff16141515610a6257600080fd5b80600460006101000a81548173ffffffffffffffffffffffffffffffffffffffff021916908373ffffffffffffffffffffffffffffffffffffffff16021790555050565b6000809054906101000a900473ffffffffffffffffffffffffffffffffffffffff1673ffffffffffffffffffffffffffffffffffffffff163373ffffffffffffffffffffffffffffffffffffffff16141515610b0157600080fd5b600073ffffffffffffffffffffffffffffffffffffffff168173ffffffffffffffffffffffffffffffffffffffff1614151515610b3d57600080fd5b8073ffffffffffffffffffffffffffffffffffffffff166000809054906101000a900473ffffffffffffffffffffffffffffffffffffffff1673ffffffffffffffffffffffffffffffffffffffff167f8be0079c531659141344cd1fd0a4f28419497f9722a3daafe3b4186f6b6457e060405160405180910390a3806000806101000a81548173ffffffffffffffffffffffffffffffffffffffff021916908373ffffffffffffffffffffffffffffffffffffffff16021790555050565b6000610c05610df8565b6000600260008573ffffffffffffffffffffffffffffffffffffffff1673ffffffffffffffffffffffffffffffffffffffff168152602001908152602001600020805480602002602001604051908101604052809291908181526020018280548015610c9057602002820191906000526020600020905b815481526020019060010190808311610c7c575b50505050509150600090505b8151811015610cd957848282815181101515610cb457fe5b906020019060200201511415610ccc57809250610cfd565b8080600101915050610c9c565b7fffffffffffffffffffffffffffffffffffffffffffffffffffffffffffffffff92505b505092915050565b6000600260003373ffffffffffffffffffffffffffffffffffffffff1673ffffffffffffffffffffffffffffffffffffffff16815260200190815260200160002090508082815481101515610d5657fe5b906000526020600020900160009055806001828054905003815481101515610d7a57fe5b9060005260206000209001548183815481101515610d9457fe5b90600052602060002090018190555080805480919060019003610db79190610dcc565b505050565b60405161148880610e3283390190565b815481835581811511610df357818360005260206000209182019101610df29190610e0c565b5b505050565b602060405190810160405280600081525090565b610e2e91905b80821115610e2a576000816000905550600101610e12565b5090565b905600606060405234156200001057600080fd5b60405162001488380380620014888339810160405280805190602001909190805182019190602001805190602001909190805190602001909190805190602001909190505033600160006101000a81548173ffffffffffffffffffffffffffffffffffffffff021916908373ffffffffffffffffffffffffffffffffffffffff160217905550846002819055508360039080519060200190620000b59291906200014d565b508260048160001916905550816000806101000a81548173ffffffffffffffffffffffffffffffffffffffff021916908373ffffffffffffffffffffffffffffffffffffffff16021790555080600760006101000a81548173ffffffffffffffffffffffffffffffffffffffff021916908373ffffffffffffffffffffffffffffffffffffffff1602179055505050505050620001fc565b828054600181600116156101000203166002900490600052602060002090601f016020900481019282601f106200019057805160ff1916838001178555620001c1565b82800160010185558215620001c1579182015b82811115620001c0578251825591602001919060010190620001a3565b5b509050620001d09190620001d4565b5090565b620001f991905b80821115620001f5576000816000905550600101620001db565b5090565b90565b61127c806200020c6000396000f3006060604052600436106100ba576000357c0100000000000000000000000000000000000000000000000000000000900463ffffffff1680632079fb9a146100bf578063365e250b14610122578063487c20911461015d578063535133fd1461018e5780637b1039991461021c5780638be10194146102715780638da5cb5b1461036c578063af640d0f146103c1578063d3d7ee3e146103ea578063d7b4bbc814610423578063eb12d61e14610478578063f2fde38b146104b1575b600080fd5b34156100ca57600080fd5b6100e060048080359060200190919050506104ea565b604051808273ffffffffffffffffffffffffffffffffffffffff1673ffffffffffffffffffffffffffffffffffffffff16815260200191505060405180910390f35b341561012d57600080fd5b61015b6004808035600019169060200190919080359060200190820180359060200191909192905050610529565b005b341561016857600080fd5b610170610800565b60405180826000191660001916815260200191505060405180910390f35b341561019957600080fd5b6101a1610806565b6040518080602001828103825283818151815260200191508051906020019080838360005b838110156101e15780820151818401526020810190506101c6565b50505050905090810190601f16801561020e5780820380516001836020036101000a031916815260200191505b509250505060405180910390f35b341561022757600080fd5b61022f6108a4565b604051808273ffffffffffffffffffffffffffffffffffffffff1673ffffffffffffffffffffffffffffffffffffffff16815260200191505060405180910390f35b341561027c57600080fd5b61029260048080359060200190919050506108ca565b604051808473ffffffffffffffffffffffffffffffffffffffff1673ffffffffffffffffffffffffffffffffffffffff16815260200183600019166000191681526020018060200182810382528381815460018160011615610100020316600290048152602001915080546001816001161561010002031660029004801561035b5780601f106103305761010080835404028352916020019161035b565b820191906000526020600020905b81548152906001019060200180831161033e57829003601f168201915b505094505050505060405180910390f35b341561037757600080fd5b61037f610922565b604051808273ffffffffffffffffffffffffffffffffffffffff1673ffffffffffffffffffffffffffffffffffffffff16815260200191505060405180910390f35b34156103cc57600080fd5b6103d4610947565b6040518082815260200191505060405180910390f35b34156103f557600080fd5b610421600480803573ffffffffffffffffffffffffffffffffffffffff1690602001909190505061094d565b005b341561042e57600080fd5b610436610aa5565b604051808273ffffffffffffffffffffffffffffffffffffffff1673ffffffffffffffffffffffffffffffffffffffff16815260200191505060405180910390f35b341561048357600080fd5b6104af600480803573ffffffffffffffffffffffffffffffffffffffff16906020019091905050610acb565b005b34156104bc57600080fd5b6104e8600480803573ffffffffffffffffffffffffffffffffffffffff16906020019091905050610e03565b005b6005818154811015156104f957fe5b90600052602060002090016000915054906101000a900473ffffffffffffffffffffffffffffffffffffffff1681565b600061053433610f59565b151561053f57600080fd5b61054833610ffd565b15151561055457600080fd5b3373ffffffffffffffffffffffffffffffffffffffff1673__ECRecovery____________________________6319045a258686866000604051602001526040518463ffffffff167c0100000000000000000000000000000000000000000000000000000000028152600401808460001916600019168152602001806020018281038252848482818152602001925080828437820191505094505050505060206040518083038186803b151561060857600080fd5b6102c65a03f4151561061957600080fd5b5050506040518051905073ffffffffffffffffffffffffffffffffffffffff1614151561064557600080fd5b6006805480600101828161065991906110a7565b916000526020600020906003020160006060604051908101604052803373ffffffffffffffffffffffffffffffffffffffff1681526020018860001916815260200187878080601f016020809104026020016040519081016040528093929190818152602001838380828437820191505050505050815250909190915060008201518160000160006101000a81548173ffffffffffffffffffffffffffffffffffffffff021916908373ffffffffffffffffffffffffffffffffffffffff1602179055506020820151816001019060001916905560408201518160020190805190602001906107499291906110d9565b50505090507f853d14480561223bcf0c9e2441f3eff05abbcfaee4929223da58a69d92214873303383600680549050604051808573ffffffffffffffffffffffffffffffffffffffff1673ffffffffffffffffffffffffffffffffffffffff1681526020018473ffffffffffffffffffffffffffffffffffffffff1673ffffffffffffffffffffffffffffffffffffffff16815260200183815260200182815260200194505050505060405180910390a150505050565b60045481565b60038054600181600116156101000203166002900480601f01602080910402602001604051908101604052809291908181526020018280546001816001161561010002031660029004801561089c5780601f106108715761010080835404028352916020019161089c565b820191906000526020600020905b81548152906001019060200180831161087f57829003601f168201915b505050505081565b600160009054906101000a900473ffffffffffffffffffffffffffffffffffffffff1681565b6006818154811015156108d957fe5b90600052602060002090600302016000915090508060000160009054906101000a900473ffffffffffffffffffffffffffffffffffffffff169080600101549080600201905083565b6000809054906101000a900473ffffffffffffffffffffffffffffffffffffffff1681565b60025481565b600160009054906101000a900473ffffffffffffffffffffffffffffffffffffffff1673ffffffffffffffffffffffffffffffffffffffff163373ffffffffffffffffffffffffffffffffffffffff161415156109a957600080fd5b600073ffffffffffffffffffffffffffffffffffffffff168173ffffffffffffffffffffffffffffffffffffffff16141515156109e557600080fd5b8073ffffffffffffffffffffffffffffffffffffffff16600160009054906101000a900473ffffffffffffffffffffffffffffffffffffffff1673ffffffffffffffffffffffffffffffffffffffff167f8755b4ea006e11f39ff16bce682fa637f15d03dd0d81c6f820a7ca2511b5bfd460405160405180910390a380600160006101000a81548173ffffffffffffffffffffffffffffffffffffffff021916908373ffffffffffffffffffffffffffffffffffffffff16021790555050565b600760009054906101000a900473ffffffffffffffffffffffffffffffffffffffff1681565b60008060009054906101000a900473ffffffffffffffffffffffffffffffffffffffff1673ffffffffffffffffffffffffffffffffffffffff163373ffffffffffffffffffffffffffffffffffffffff16141515610b2857600080fd5b600760009054906101000a900473ffffffffffffffffffffffffffffffffffffffff1673ffffffffffffffffffffffffffffffffffffffff166328a4cc30836040518263ffffffff167c0100000000000000000000000000000000000000000000000000000000028152600401808273ffffffffffffffffffffffffffffffffffffffff1673ffffffffffffffffffffffffffffffffffffffff168152602001915050600060405180830381600087803b1515610be457600080fd5b6102c65a03f11515610bf557600080fd5b505050600760009054906101000a900473ffffffffffffffffffffffffffffffffffffffff1673ffffffffffffffffffffffffffffffffffffffff166313e32bdb836040518263ffffffff167c0100000000000000000000000000000000000000000000000000000000028152600401808273ffffffffffffffffffffffffffffffffffffffff1673ffffffffffffffffffffffffffffffffffffffff168152602001915050600060405180830381600087803b1515610cb457600080fd5b6102c65a03f11515610cc557600080fd5b50505060058054806001018281610cdc9190611159565b9160005260206000209001600084909190916101000a81548173ffffffffffffffffffffffffffffffffffffffff021916908373ffffffffffffffffffffffffffffffffffffffff16021790555090507f24dcea8c6829d2830313a24c986ed795f78c1f1713f006f2578356baf2d1c43b30338484604051808573ffffffffffffffffffffffffffffffffffffffff1673ffffffffffffffffffffffffffffffffffffffff1681526020018473ffffffffffffffffffffffffffffffffffffffff1673ffffffffffffffffffffffffffffffffffffffff1681526020018373ffffffffffffffffffffffffffffffffffffffff1673ffffffffffffffffffffffffffffffffffffffff16815260200182815260200194505050505060405180910390a15050565b600160009054906101000a900473ffffffffffffffffffffffffffffffffffffffff1673ffffffffffffffffffffffffffffffffffffffff163373ffffffffffffffffffffffffffffffffffffffff16141515610e5f57600080fd5b600073ffffffffffffffffffffffffffffffffffffffff168173ffffffffffffffffffffffffffffffffffffffff1614151515610e9b57600080fd5b8073ffffffffffffffffffffffffffffffffffffffff166000809054906101000a900473ffffffffffffffffffffffffffffffffffffffff1673ffffffffffffffffffffffffffffffffffffffff167f8be0079c531659141344cd1fd0a4f28419497f9722a3daafe3b4186f6b6457e060405160405180910390a3806000806101000a81548173ffffffffffffffffffffffffffffffffffffffff021916908373ffffffffffffffffffffffffffffffffffffffff16021790555050565b600080600090505b600580549050811015610ff2578273ffffffffffffffffffffffffffffffffffffffff16600582815481101515610f9457fe5b906000526020600020900160009054906101000a900473ffffffffffffffffffffffffffffffffffffffff1673ffffffffffffffffffffffffffffffffffffffff161415610fe55760019150610ff7565b8080600101915050610f61565b600091505b50919050565b600080600090505b60068054905081101561109c578273ffffffffffffffffffffffffffffffffffffffff1660068281548110151561103857fe5b906000526020600020906003020160000160009054906101000a900473ffffffffffffffffffffffffffffffffffffffff1673ffffffffffffffffffffffffffffffffffffffff16141561108f57600191506110a1565b8080600101915050611005565b600091505b50919050565b8154818355818115116110d4576003028160030283600052602060002091820191016110d39190611185565b5b505050565b828054600181600116156101000203166002900490600052602060002090601f016020900481019282601f1061111a57805160ff1916838001178555611148565b82800160010185558215611148579182015b8281111561114757825182559160200191906001019061112c565b5b50905061115591906111e3565b5090565b8154818355818115116111805781836000526020600020918201910161117f91906111e3565b5b505050565b6111e091905b808211156111dc57600080820160006101000a81549073ffffffffffffffffffffffffffffffffffffffff021916905560018201600090556002820160006111d39190611208565b5060030161118b565b5090565b90565b61120591905b808211156112015760008160009055506001016111e9565b5090565b90565b50805460018160011615610100020316600290046000825580601f1061122e575061124d565b601f01602090049060005260206000209081019061124c91906111e3565b5b505600a165627a7a72305820599e1a7e1a3dab0b182dafb5dd052d03307f9b673e32c0aff1a52806d6b52ca80029a165627a7a723058204215838acb6a2427f8cb6b076b22b8994b6daaca8721269861770bcbcf729e4a0029",
  "source": "pragma solidity ^0.4.18;\r\n\r\nimport './Document.sol';\r\n\r\nimport 'zeppelin-solidity/contracts/ownership/Ownable.sol';\r\n\r\nimport './IdentitiesIntf.sol';\r\n\r\n\r\nimport './OwnableIntf.sol';\r\n\r\n\r\ncontract Documents is Ownable {\r\n\r\n\r\n    mapping(uint256 => address) public documents;\r\n\r\n    mapping(address => uint256[]) public documentOwnership;\r\n\r\n    uint256 public count;\r\n\r\n    IdentitiesIntf public identitiesAdd;\r\n\r\n    event DocumentCreated(uint256 id, address document, address creator);\r\n\r\n    event DocumentOwnershipTransferred(uint256 documentId, address previousOwner, address newOwner);\r\n\r\n    function Documents(address _identitiesAdd) public {\r\n        identitiesAdd = IdentitiesIntf(_identitiesAdd);\r\n    }\r\n\r\n    function createDocument(string _docName, bytes32 _checksum) external {\r\n        identitiesAdd.checkCreatorRole(msg.sender);\r\n        count++;\r\n        address doc = new Document(count, _docName, _checksum, msg.sender, address(identitiesAdd));\r\n        documents[count] = doc;\r\n        documentOwnership[msg.sender].push(count);\r\n\r\n        DocumentCreated(count, doc, msg.sender);\r\n    }\r\n\r\n    function transferDocumentOwnership(uint256 documentId, address newOwner) external {\r\n        require(documents[documentId] != address(0));\r\n        int ownedNdx = ownedDocIndex(documentId, msg.sender);\r\n        require(ownedNdx != -1);\r\n        // Ensures that address of new owner has the rights to own the document\r\n        identitiesAdd.checkCreatorRole(newOwner);\r\n\r\n        removeDocOwnership(uint(ownedNdx));\r\n        OwnableIntf(documents[documentId]).transferOwnership(newOwner);\r\n\r\n        DocumentOwnershipTransferred(documentId, msg.sender, newOwner);\r\n\r\n\r\n    }\r\n\r\n    function ownedDocIndex(uint256 docId, address addr) internal view returns (int) {\r\n        uint256[] memory owned = documentOwnership[addr];\r\n\r\n        for(uint i = 0; i < owned.length; i++) {\r\n            if(owned[i] == docId) {\r\n                return int(i);\r\n            }\r\n        }\r\n\r\n        return -1;\r\n    }\r\n\r\n    function removeDocOwnership(uint ownedNdx) internal {\r\n        uint256[] storage docs = documentOwnership[msg.sender];\r\n\r\n\r\n        //Delete element\r\n        delete docs[ownedNdx];\r\n\r\n        //Move last element to deleted spot\r\n        docs[ownedNdx] = docs[docs.length - 1];\r\n\r\n        //Reduce array size\r\n        docs.length--;\r\n\r\n    }\r\n\r\n    function setRolesDefAdd(address _identitiesAdd) public onlyOwner {\r\n        identitiesAdd = IdentitiesIntf(_identitiesAdd);\r\n    }\r\n\r\n\r\n\r\n\r\n}\r\n",
  "sourcePath": "C:\\Users\\User.Admin\\Desktop\\sol-workspace\\document-management-smc\\contracts\\Documents.sol",
  "compiler": {
    "name": "solc",
    "version": "0.4.18+commit.9cf6e910.Emscripten.clang"
  },
  "schemaVersion": "1.0.1",
  "updatedAt": "2018-04-27T06:12:34.461Z"
}