{
  "contractName": "Document",
  "abi": [
    {
      "constant": true,
      "inputs": [],
      "name": "IDENTITY",
      "outputs": [
        {
          "name": "",
          "type": "bytes32"
        }
      ],
      "payable": false,
      "stateMutability": "view",
      "type": "function"
    },
    {
      "constant": true,
      "inputs": [
        {
          "name": "",
          "type": "uint256"
        }
      ],
      "name": "signers",
      "outputs": [
        {
          "name": "",
          "type": "address"
        }
      ],
      "payable": false,
      "stateMutability": "view",
      "type": "function"
    },
    {
      "constant": false,
      "inputs": [
        {
          "name": "hash",
          "type": "bytes32"
        },
        {
          "name": "sig",
          "type": "bytes"
        }
      ],
      "name": "sign",
      "outputs": [],
      "payable": false,
      "stateMutability": "nonpayable",
      "type": "function"
    },
    {
      "constant": true,
      "inputs": [],
      "name": "checksum",
      "outputs": [
        {
          "name": "",
          "type": "bytes32"
        }
      ],
      "payable": false,
      "stateMutability": "view",
      "type": "function"
    },
    {
      "constant": true,
      "inputs": [],
      "name": "docName",
      "outputs": [
        {
          "name": "",
          "type": "string"
        }
      ],
      "payable": false,
      "stateMutability": "view",
      "type": "function"
    },
    {
      "constant": true,
      "inputs": [
        {
          "name": "",
          "type": "uint256"
        }
      ],
      "name": "signatures",
      "outputs": [
        {
          "name": "signer",
          "type": "address"
        },
        {
          "name": "hash",
          "type": "bytes32"
        },
        {
          "name": "signature",
          "type": "bytes"
        }
      ],
      "payable": false,
      "stateMutability": "view",
      "type": "function"
    },
    {
      "constant": true,
      "inputs": [],
      "name": "owner",
      "outputs": [
        {
          "name": "",
          "type": "address"
        }
      ],
      "payable": false,
      "stateMutability": "view",
      "type": "function"
    },
    {
      "constant": true,
      "inputs": [
        {
          "name": "signer",
          "type": "address"
        }
      ],
      "name": "id",
      "outputs": [
        {
          "name": "",
          "type": "uint256"
        }
      ],
      "payable": false,
      "stateMutability": "view",
      "type": "function"
    },
    {
      "constant": false,
      "inputs": [
        {
          "name": "signer",
          "type": "address"
        }
      ],
      "name": "addSigner",
      "outputs": [],
      "payable": false,
      "stateMutability": "nonpayable",
      "type": "function"
    },
    {
      "inputs": [
        {
          "name": "newOwner",
          "type": "address"
        },
        {
          "name": "_checksum",
          "type": "bytes32"
        }
      ],
      "payable": false,
      "stateMutability": "nonpayable",
      "type": "function",
      "constant": false,
      "name": "transferOwnership",
      "outputs": []
    },
    {
      "anonymous": false,
      "inputs": [
        {
          "indexed": false,
          "name": "_id",
          "type": "uint256"
        },
        {
          "indexed": false,
          "name": "_docName",
          "type": "string"
        },
        {
          "name": "_checksum",
          "type": "bytes32"
        },
        {
          "name": "_owner",
          "type": "address"
        }
      ],
      "name": "SignerAdded",
      "type": "constructor",
      "payable": false,
      "stateMutability": "nonpayable"
    },
    {
      "anonymous": false,
      "inputs": [
        {
          "indexed": false,
          "name": "signer",
          "type": "address"
        },
        {
          "indexed": false,
          "name": "signersCount",
          "type": "uint256"
        },
        {
          "indexed": false,
          "name": "signersCount",
          "type": "uint256"
        }
      ],
      "name": "SignerAdded",
      "type": "event"
    },
    {
      "anonymous": false,
      "inputs": [
        {
          "indexed": false,
          "name": "signer",
          "type": "address"
        },
        {
          "indexed": false,
          "name": "totalSigned",
          "type": "uint256"
        },
        {
          "indexed": false,
          "name": "signersCount",
          "type": "uint256"
        }
      ],
      "name": "Signed",
      "type": "event"
    },
    {
      "anonymous": false,
      "inputs": [
        {
          "indexed": true,
          "name": "previousOwner",
          "type": "address"
        },
        {
          "indexed": true,
          "name": "newOwner",
          "type": "address"
        }
      ],
      "name": "OwnershipTransferred",
      "type": "event"
    }
  ],
  "bytecode": "0x6060604052341561000f57600080fd5b60405161107e38038061107e83398101604052808051906020019091908051820191906020018051906020019091908051906020019091905050336000806101000a81548173ffffffffffffffffffffffffffffffffffffffff021916908373ffffffffffffffffffffffffffffffffffffffff160217905550826002908051906020019061009f9291906100f4565b508160038160001916905550806000806101000a81548173ffffffffffffffffffffffffffffffffffffffff021916908373ffffffffffffffffffffffffffffffffffffffff16021790555050505050610199565b828054600181600116156101000203166002900490600052602060002090601f016020900481019282601f1061013557805160ff1916838001178555610163565b82800160010185558215610163579182015b82811115610162578251825591602001919060010190610147565b5b5090506101709190610174565b5090565b61019691905b8082111561019257600081600090555060010161017a565b5090565b90565b610ed6806101a86000396000f3006060604052600436106100a4576000357c0100000000000000000000000000000000000000000000000000000000900463ffffffff168063150c4aea146100a95780632079fb9a146100da578063365e250b1461013d578063487c2091146101a7578063535133fd146101d85780638be10194146102665780638da5cb5b14610361578063af640d0f146103b6578063eb12d61e146103df578063f2fde38b14610418575b600080fd5b34156100b457600080fd5b6100bc610451565b60405180826000191660001916815260200191505060405180910390f35b34156100e557600080fd5b6100fb6004808035906020019091905050610478565b604051808273ffffffffffffffffffffffffffffffffffffffff1673ffffffffffffffffffffffffffffffffffffffff16815260200191505060405180910390f35b341561014857600080fd5b6101a560048080356000191690602001909190803590602001908201803590602001908080601f016020809104026020016040519081016040528093929190818152602001838380828437820191505050505050919050506104b7565b005b34156101b257600080fd5b6101ba610748565b60405180826000191660001916815260200191505060405180910390f35b34156101e357600080fd5b6101eb61074e565b6040518080602001828103825283818151815260200191508051906020019080838360005b8381101561022b578082015181840152602081019050610210565b50505050905090810190601f1680156102585780820380516001836020036101000a031916815260200191505b509250505060405180910390f35b341561027157600080fd5b61028760048080359060200190919050506107ec565b604051808473ffffffffffffffffffffffffffffffffffffffff1673ffffffffffffffffffffffffffffffffffffffff1681526020018360001916600019168152602001806020018281038252838181546001816001161561010002031660029004815260200191508054600181600116156101000203166002900480156103505780601f1061032557610100808354040283529160200191610350565b820191906000526020600020905b81548152906001019060200180831161033357829003601f168201915b505094505050505060405180910390f35b341561036c57600080fd5b610374610844565b604051808273ffffffffffffffffffffffffffffffffffffffff1673ffffffffffffffffffffffffffffffffffffffff16815260200191505060405180910390f35b34156103c157600080fd5b6103c9610869565b6040518082815260200191505060405180910390f35b34156103ea57600080fd5b610416600480803573ffffffffffffffffffffffffffffffffffffffff1690602001909190505061086f565b005b341561042357600080fd5b61044f600480803573ffffffffffffffffffffffffffffffffffffffff16906020019091905050610a5e565b005b7f377799b22fba826cf24c3f07e6731c67676765addcee33415a2c80d453d4ed6e60010281565b60048181548110151561048757fe5b90600052602060002090016000915054906101000a900473ffffffffffffffffffffffffffffffffffffffff1681565b60006104c233610bb3565b15156104cd57600080fd5b6104d633610c57565b1515156104e257600080fd5b3373ffffffffffffffffffffffffffffffffffffffff1663b5ddb3f484846000604051602001526040518363ffffffff167c010000000000000000000000000000000000000000000000000000000002815260040180836000191660001916815260200180602001828103825283818151815260200191508051906020019080838360005b83811015610582578082015181840152602081019050610567565b50505050905090810190601f1680156105af5780820380516001836020036101000a031916815260200191505b509350505050602060405180830381600087803b15156105ce57600080fd5b6102c65a03f115156105df57600080fd5b5050506040518051905015156105f457600080fd5b600580548060010182816106089190610d01565b916000526020600020906003020160006060604051908101604052803373ffffffffffffffffffffffffffffffffffffffff1681526020018760001916815260200186815250909190915060008201518160000160006101000a81548173ffffffffffffffffffffffffffffffffffffffff021916908373ffffffffffffffffffffffffffffffffffffffff1602179055506020820151816001019060001916905560408201518160020190805190602001906106c6929190610d33565b50505090507f9baf1c5a7c85405e33ce4a842a40aee5bea6265e3c27f87462a422c5e00505533382600480549050604051808473ffffffffffffffffffffffffffffffffffffffff1673ffffffffffffffffffffffffffffffffffffffff168152602001838152602001828152602001935050505060405180910390a1505050565b60035481565b60028054600181600116156101000203166002900480601f0160208091040260200160405190810160405280929190818152602001828054600181600116156101000203166002900480156107e45780601f106107b9576101008083540402835291602001916107e4565b820191906000526020600020905b8154815290600101906020018083116107c757829003601f168201915b505050505081565b6005818154811015156107fb57fe5b90600052602060002090600302016000915090508060000160009054906101000a900473ffffffffffffffffffffffffffffffffffffffff169080600101549080600201905083565b6000809054906101000a900473ffffffffffffffffffffffffffffffffffffffff1681565b60015481565b60008060009054906101000a900473ffffffffffffffffffffffffffffffffffffffff1673ffffffffffffffffffffffffffffffffffffffff163373ffffffffffffffffffffffffffffffffffffffff161415156108cc57600080fd5b7f377799b22fba826cf24c3f07e6731c67676765addcee33415a2c80d453d4ed6e600102600019168273ffffffffffffffffffffffffffffffffffffffff166375d0c0dc6000604051602001526040518163ffffffff167c0100000000000000000000000000000000000000000000000000000000028152600401602060405180830381600087803b151561096057600080fd5b6102c65a03f1151561097157600080fd5b505050604051805190506000191614151561098b57600080fd5b6004805480600101828161099f9190610db3565b9160005260206000209001600084909190916101000a81548173ffffffffffffffffffffffffffffffffffffffff021916908373ffffffffffffffffffffffffffffffffffffffff16021790555090507f50999ebf9b59bf3157a58816611976f2d723378ad51457d7b0413209e0cdee598282604051808373ffffffffffffffffffffffffffffffffffffffff1673ffffffffffffffffffffffffffffffffffffffff1681526020018281526020019250505060405180910390a15050565b6000809054906101000a900473ffffffffffffffffffffffffffffffffffffffff1673ffffffffffffffffffffffffffffffffffffffff163373ffffffffffffffffffffffffffffffffffffffff16141515610ab957600080fd5b600073ffffffffffffffffffffffffffffffffffffffff168173ffffffffffffffffffffffffffffffffffffffff1614151515610af557600080fd5b8073ffffffffffffffffffffffffffffffffffffffff166000809054906101000a900473ffffffffffffffffffffffffffffffffffffffff1673ffffffffffffffffffffffffffffffffffffffff167f8be0079c531659141344cd1fd0a4f28419497f9722a3daafe3b4186f6b6457e060405160405180910390a3806000806101000a81548173ffffffffffffffffffffffffffffffffffffffff021916908373ffffffffffffffffffffffffffffffffffffffff16021790555050565b600080600090505b600480549050811015610c4c578273ffffffffffffffffffffffffffffffffffffffff16600482815481101515610bee57fe5b906000526020600020900160009054906101000a900473ffffffffffffffffffffffffffffffffffffffff1673ffffffffffffffffffffffffffffffffffffffff161415610c3f5760019150610c51565b8080600101915050610bbb565b600091505b50919050565b600080600090505b600580549050811015610cf6578273ffffffffffffffffffffffffffffffffffffffff16600582815481101515610c9257fe5b906000526020600020906003020160000160009054906101000a900473ffffffffffffffffffffffffffffffffffffffff1673ffffffffffffffffffffffffffffffffffffffff161415610ce95760019150610cfb565b8080600101915050610c5f565b600091505b50919050565b815481835581811511610d2e57600302816003028360005260206000209182019101610d2d9190610ddf565b5b505050565b828054600181600116156101000203166002900490600052602060002090601f016020900481019282601f10610d7457805160ff1916838001178555610da2565b82800160010185558215610da2579182015b82811115610da1578251825591602001919060010190610d86565b5b509050610daf9190610e3d565b5090565b815481835581811511610dda57818360005260206000209182019101610dd99190610e3d565b5b505050565b610e3a91905b80821115610e3657600080820160006101000a81549073ffffffffffffffffffffffffffffffffffffffff02191690556001820160009055600282016000610e2d9190610e62565b50600301610de5565b5090565b90565b610e5f91905b80821115610e5b576000816000905550600101610e43565b5090565b90565b50805460018160011615610100020316600290046000825580601f10610e885750610ea7565b601f016020900490600052602060002090810190610ea69190610e3d565b5b505600a165627a7a723058202f2d94f43af86239fdc07f61e1b3f60e6d6e7dca1c6b51b57a83b242ee66da720029",
  "source": "pragma solidity 0.4.18;\r\n\r\nimport './SignableDocument.sol';\r\n\r\nimport 'zeppelin-solidity/contracts/ownership/Ownable.sol';\r\n\r\nimport './NamedContract.sol';\r\n\r\nimport './SelfSignatureVerifiable.sol';\r\n\r\ncontract Document is SignableDocument, Ownable {\r\n\r\n\r\n    uint256 public id;\r\n\r\n    string public docName;\r\n\r\n    bytes32 public checksum;\r\n\r\n    struct Signatory {\r\n        address signer;\r\n        bytes32 hash;\r\n        bytes signature;\r\n    }\r\n\r\n    address[] public signers;\r\n\r\n    Signatory[] public signatures;\r\n\r\n    bytes32 public constant IDENTITY = 0x377799b22fba826cf24c3f07e6731c67676765addcee33415a2c80d453d4ed6e;\r\n\r\n    function Document(uint256 _id, string _docName, bytes32 _checksum, address _owner) public {\r\n        docName = _docName;\r\n        checksum = _checksum;\r\n        owner = _owner;\r\n    }\r\n\r\n    event SignerAdded(address signer, uint signersCount);\r\n\r\n    event Signed(address signer, uint totalSigned, uint signersCount);\r\n\r\n    function addSigner(address signer) public onlyOwner {\r\n        require(NamedContract(signer).contractName() == IDENTITY);\r\n\r\n        uint length = signers.push(signer);\r\n\r\n        SignerAdded(signer, length);\r\n    }\r\n\r\n    function sign(bytes32 hash, bytes sig) public {\r\n        require(isSigner(msg.sender));\r\n        require(!hasSigned(msg.sender));\r\n        require(SelfSignatureVerifiable(msg.sender).isOwnSignature(hash, sig));\r\n\r\n        uint totalSigned = signatures.push(Signatory(msg.sender, hash, sig));\r\n\r\n        Signed(msg.sender, totalSigned, signers.length);\r\n    }\r\n\r\n\r\n    function isSigner(address signerAddress) internal view returns (bool){\r\n        for (uint i = 0; i < signers.length; i++) {\r\n            if (signers[i] == signerAddress) {\r\n                return true;\r\n            }\r\n        }\r\n\r\n        return false;\r\n    }\r\n\r\n    function hasSigned(address signerAddress) internal view returns (bool) {\r\n        for (uint i = 0; i < signatures.length; i++) {\r\n            if (signatures[i].signer == signerAddress) {\r\n                return true;\r\n            }\r\n        }\r\n\r\n        return false;\r\n    }\r\n\r\n\r\n}\r\n",
  "sourcePath": "C:\\Users\\User.Admin\\Desktop\\sol-workspace\\document-management-smc\\contracts\\Document.sol",
  "compiler": {
    "name": "solc",
    "version": "0.4.18+commit.9cf6e910.Emscripten.clang"
  },
  "schemaVersion": "1.0.1",
  "updatedAt": "2018-03-15T05:52:23.011Z"
}