{
  "contractName": "Documents",
  "abi": [
    {
      "constant": true,
      "inputs": [],
      "name": "count",
      "outputs": [
        {
          "name": "",
          "type": "uint256"
        }
      ],
      "payable": false,
      "stateMutability": "view",
      "type": "function"
    },
    {
      "constant": true,
      "inputs": [
        {
          "name": "",
          "type": "address"
        },
        {
          "name": "",
          "type": "uint256"
        }
      ],
      "name": "documentOwnership",
      "outputs": [
        {
          "name": "",
          "type": "uint256"
        }
      ],
      "payable": false,
      "stateMutability": "view",
      "type": "function"
    },
    {
      "constant": false,
      "inputs": [
        {
          "name": "documentId",
          "type": "uint256"
        },
        {
          "name": "newOwner",
          "type": "address"
        }
      ],
      "name": "transferDocumentOwnership",
      "outputs": [],
      "payable": false,
      "stateMutability": "nonpayable",
      "type": "function"
    },
    {
      "constant": true,
      "inputs": [],
      "name": "owner",
      "outputs": [
        {
          "name": "",
          "type": "address"
        }
      ],
      "payable": false,
      "stateMutability": "view",
      "type": "function"
    },
    {
      "constant": false,
      "inputs": [
        {
          "name": "_docName",
          "type": "string"
        },
        {
          "name": "_checksum",
          "type": "bytes32"
        }
      ],
      "name": "createDocument",
      "outputs": [],
      "payable": false,
      "stateMutability": "nonpayable",
      "type": "function"
    },
    {
      "constant": true,
      "inputs": [
        {
          "name": "",
          "type": "uint256"
        }
      ],
      "name": "documents",
      "outputs": [
        {
          "name": "",
          "type": "address"
        }
      ],
      "payable": false,
      "stateMutability": "view",
      "type": "function"
    },
    {
      "constant": true,
      "inputs": [],
      "name": "identitiesAdd",
      "outputs": [
        {
          "name": "",
          "type": "address"
        }
      ],
      "payable": false,
      "stateMutability": "view",
      "type": "function"
    },
    {
      "constant": false,
      "inputs": [
        {
          "name": "_identitiesAdd",
          "type": "address"
        }
      ],
      "name": "setRolesDefAdd",
      "outputs": [],
      "payable": false,
      "stateMutability": "nonpayable",
      "type": "function"
    },
    {
      "constant": false,
      "inputs": [
        {
          "name": "newOwner",
          "type": "address"
        }
      ],
      "name": "transferOwnership",
      "outputs": [],
      "payable": false,
      "stateMutability": "nonpayable",
      "type": "function"
    },
    {
      "inputs": [
        {
          "name": "_identitiesAdd",
          "type": "address"
        }
      ],
      "payable": false,
      "stateMutability": "nonpayable",
      "type": "constructor"
    },
    {
      "anonymous": false,
      "inputs": [
        {
          "indexed": false,
          "name": "id",
          "type": "uint256"
        },
        {
          "indexed": false,
          "name": "document",
          "type": "address"
        },
        {
          "indexed": false,
          "name": "creator",
          "type": "address"
        }
      ],
      "name": "DocumentCreated",
      "type": "event"
    },
    {
      "anonymous": false,
      "inputs": [
        {
          "indexed": false,
          "name": "documentId",
          "type": "uint256"
        },
        {
          "indexed": false,
          "name": "previousOwner",
          "type": "address"
        },
        {
          "indexed": false,
          "name": "newOwner",
          "type": "address"
        }
      ],
      "name": "DocumentOwnershipTransferred",
      "type": "event"
    },
    {
      "anonymous": false,
      "inputs": [
        {
          "indexed": true,
          "name": "previousOwner",
          "type": "address"
        },
        {
          "indexed": true,
          "name": "newOwner",
          "type": "address"
        }
      ],
      "name": "OwnershipTransferred",
      "type": "event"
    }
  ],
  "bytecode": "0x6060604052341561000f57600080fd5b604051602080611e7b83398101604052808051906020019091905050336000806101000a81548173ffffffffffffffffffffffffffffffffffffffff021916908373ffffffffffffffffffffffffffffffffffffffff16021790555080600460006101000a81548173ffffffffffffffffffffffffffffffffffffffff021916908373ffffffffffffffffffffffffffffffffffffffff16021790555050611dbf806100bc6000396000f300606060405260043610610099576000357c0100000000000000000000000000000000000000000000000000000000900463ffffffff16806306661abd1461009e578063263662e1146100c75780632acb4f621461011d5780638da5cb5b1461015f578063c14c3fc8146101b4578063c2ed2b05146101ef578063d7b4bbc814610252578063db6138c0146102a7578063f2fde38b146102e0575b600080fd5b34156100a957600080fd5b6100b1610319565b6040518082815260200191505060405180910390f35b34156100d257600080fd5b610107600480803573ffffffffffffffffffffffffffffffffffffffff1690602001909190803590602001909190505061031f565b6040518082815260200191505060405180910390f35b341561012857600080fd5b61015d600480803590602001909190803573ffffffffffffffffffffffffffffffffffffffff16906020019091905050610350565b005b341561016a57600080fd5b610172610659565b604051808273ffffffffffffffffffffffffffffffffffffffff1673ffffffffffffffffffffffffffffffffffffffff16815260200191505060405180910390f35b34156101bf57600080fd5b6101ed600480803590602001908201803590602001919091929080356000191690602001909190505061067e565b005b34156101fa57600080fd5b6102106004808035906020019091905050610958565b604051808273ffffffffffffffffffffffffffffffffffffffff1673ffffffffffffffffffffffffffffffffffffffff16815260200191505060405180910390f35b341561025d57600080fd5b61026561098b565b604051808273ffffffffffffffffffffffffffffffffffffffff1673ffffffffffffffffffffffffffffffffffffffff16815260200191505060405180910390f35b34156102b257600080fd5b6102de600480803573ffffffffffffffffffffffffffffffffffffffff169060200190919050506109b1565b005b34156102eb57600080fd5b610317600480803573ffffffffffffffffffffffffffffffffffffffff16906020019091905050610a50565b005b60035481565b60026020528160005260406000208181548110151561033a57fe5b9060005260206000209001600091509150505481565b60008073ffffffffffffffffffffffffffffffffffffffff166001600085815260200190815260200160002060009054906101000a900473ffffffffffffffffffffffffffffffffffffffff1673ffffffffffffffffffffffffffffffffffffffff16141515156103c057600080fd5b6103ca8333610ba5565b90507fffffffffffffffffffffffffffffffffffffffffffffffffffffffffffffffff81141515156103fb57600080fd5b600460009054906101000a900473ffffffffffffffffffffffffffffffffffffffff1673ffffffffffffffffffffffffffffffffffffffff1663d8a0b2e0836040518263ffffffff167c0100000000000000000000000000000000000000000000000000000000028152600401808273ffffffffffffffffffffffffffffffffffffffff1673ffffffffffffffffffffffffffffffffffffffff168152602001915050600060405180830381600087803b15156104b757600080fd5b6102c65a03f115156104c857600080fd5b5050506104d481610caf565b6001600084815260200190815260200160002060009054906101000a900473ffffffffffffffffffffffffffffffffffffffff1673ffffffffffffffffffffffffffffffffffffffff1663f2fde38b836040518263ffffffff167c0100000000000000000000000000000000000000000000000000000000028152600401808273ffffffffffffffffffffffffffffffffffffffff1673ffffffffffffffffffffffffffffffffffffffff168152602001915050600060405180830381600087803b15156105a157600080fd5b6102c65a03f115156105b257600080fd5b5050507f07ffd01f9c72e110c370a167f6aca57e1beb6bf97530085bc7f11c19b71544e0833384604051808481526020018373ffffffffffffffffffffffffffffffffffffffff1673ffffffffffffffffffffffffffffffffffffffff1681526020018273ffffffffffffffffffffffffffffffffffffffff1673ffffffffffffffffffffffffffffffffffffffff168152602001935050505060405180910390a1505050565b6000809054906101000a900473ffffffffffffffffffffffffffffffffffffffff1681565b6000600460009054906101000a900473ffffffffffffffffffffffffffffffffffffffff1673ffffffffffffffffffffffffffffffffffffffff1663d8a0b2e0336040518263ffffffff167c0100000000000000000000000000000000000000000000000000000000028152600401808273ffffffffffffffffffffffffffffffffffffffff1673ffffffffffffffffffffffffffffffffffffffff168152602001915050600060405180830381600087803b151561073c57600080fd5b6102c65a03f1151561074d57600080fd5b50505060036000815480929190600101919050555060035484848433610771610d66565b808681526020018060200184600019166000191681526020018373ffffffffffffffffffffffffffffffffffffffff1673ffffffffffffffffffffffffffffffffffffffff168152602001828103825286868281815260200192508082843782019150509650505050505050604051809103906000f08015156107f357600080fd5b90508060016000600354815260200190815260200160002060006101000a81548173ffffffffffffffffffffffffffffffffffffffff021916908373ffffffffffffffffffffffffffffffffffffffff160217905550600260003373ffffffffffffffffffffffffffffffffffffffff1673ffffffffffffffffffffffffffffffffffffffff168152602001908152602001600020805480600101828161089a9190610d76565b91600052602060002090016000600354909190915055507f88e599f91cc2127bf22e70a3a7df3b912539ec98aaa2a61ce1dce5eab03c89226003548233604051808481526020018373ffffffffffffffffffffffffffffffffffffffff1673ffffffffffffffffffffffffffffffffffffffff1681526020018273ffffffffffffffffffffffffffffffffffffffff1673ffffffffffffffffffffffffffffffffffffffff168152602001935050505060405180910390a150505050565b60016020528060005260406000206000915054906101000a900473ffffffffffffffffffffffffffffffffffffffff1681565b600460009054906101000a900473ffffffffffffffffffffffffffffffffffffffff1681565b6000809054906101000a900473ffffffffffffffffffffffffffffffffffffffff1673ffffffffffffffffffffffffffffffffffffffff163373ffffffffffffffffffffffffffffffffffffffff16141515610a0c57600080fd5b80600460006101000a81548173ffffffffffffffffffffffffffffffffffffffff021916908373ffffffffffffffffffffffffffffffffffffffff16021790555050565b6000809054906101000a900473ffffffffffffffffffffffffffffffffffffffff1673ffffffffffffffffffffffffffffffffffffffff163373ffffffffffffffffffffffffffffffffffffffff16141515610aab57600080fd5b600073ffffffffffffffffffffffffffffffffffffffff168173ffffffffffffffffffffffffffffffffffffffff1614151515610ae757600080fd5b8073ffffffffffffffffffffffffffffffffffffffff166000809054906101000a900473ffffffffffffffffffffffffffffffffffffffff1673ffffffffffffffffffffffffffffffffffffffff167f8be0079c531659141344cd1fd0a4f28419497f9722a3daafe3b4186f6b6457e060405160405180910390a3806000806101000a81548173ffffffffffffffffffffffffffffffffffffffff021916908373ffffffffffffffffffffffffffffffffffffffff16021790555050565b6000610baf610da2565b6000600260008573ffffffffffffffffffffffffffffffffffffffff1673ffffffffffffffffffffffffffffffffffffffff168152602001908152602001600020805480602002602001604051908101604052809291908181526020018280548015610c3a57602002820191906000526020600020905b815481526020019060010190808311610c26575b50505050509150600090505b8151811015610c8357848282815181101515610c5e57fe5b906020019060200201511415610c7657809250610ca7565b8080600101915050610c46565b7fffffffffffffffffffffffffffffffffffffffffffffffffffffffffffffffff92505b505092915050565b6000600260003373ffffffffffffffffffffffffffffffffffffffff1673ffffffffffffffffffffffffffffffffffffffff16815260200190815260200160002090508082815481101515610d0057fe5b906000526020600020900160009055806001828054905003815481101515610d2457fe5b9060005260206000209001548183815481101515610d3e57fe5b90600052602060002090018190555080805480919060019003610d619190610d76565b505050565b604051610fb880610ddc83390190565b815481835581811511610d9d57818360005260206000209182019101610d9c9190610db6565b5b505050565b602060405190810160405280600081525090565b610dd891905b80821115610dd4576000816000905550600101610dbc565b5090565b9056006060604052341561000f57600080fd5b604051610fb8380380610fb883398101604052808051906020019091908051820191906020018051906020019091908051906020019091905050336000806101000a81548173ffffffffffffffffffffffffffffffffffffffff021916908373ffffffffffffffffffffffffffffffffffffffff1602179055508360018190555082600290805190602001906100a69291906100fb565b508160038160001916905550806000806101000a81548173ffffffffffffffffffffffffffffffffffffffff021916908373ffffffffffffffffffffffffffffffffffffffff160217905550505050506101a0565b828054600181600116156101000203166002900490600052602060002090601f016020900481019282601f1061013c57805160ff191683800117855561016a565b8280016001018555821561016a579182015b8281111561016957825182559160200191906001019061014e565b5b509050610177919061017b565b5090565b61019d91905b80821115610199576000816000905550600101610181565b5090565b90565b610e09806101af6000396000f300606060405260043610610099576000357c0100000000000000000000000000000000000000000000000000000000900463ffffffff1680632079fb9a1461009e578063365e250b14610101578063487c20911461013c578063535133fd1461016d5780638be10194146101fb5780638da5cb5b146102f6578063af640d0f1461034b578063eb12d61e14610374578063f2fde38b146103ad575b600080fd5b34156100a957600080fd5b6100bf60048080359060200190919050506103e6565b604051808273ffffffffffffffffffffffffffffffffffffffff1673ffffffffffffffffffffffffffffffffffffffff16815260200191505060405180910390f35b341561010c57600080fd5b61013a6004808035600019169060200190919080359060200190820180359060200191909192905050610425565b005b341561014757600080fd5b61014f6106d2565b60405180826000191660001916815260200191505060405180910390f35b341561017857600080fd5b6101806106d8565b6040518080602001828103825283818151815260200191508051906020019080838360005b838110156101c05780820151818401526020810190506101a5565b50505050905090810190601f1680156101ed5780820380516001836020036101000a031916815260200191505b509250505060405180910390f35b341561020657600080fd5b61021c6004808035906020019091905050610776565b604051808473ffffffffffffffffffffffffffffffffffffffff1673ffffffffffffffffffffffffffffffffffffffff1681526020018360001916600019168152602001806020018281038252838181546001816001161561010002031660029004815260200191508054600181600116156101000203166002900480156102e55780601f106102ba576101008083540402835291602001916102e5565b820191906000526020600020905b8154815290600101906020018083116102c857829003601f168201915b505094505050505060405180910390f35b341561030157600080fd5b6103096107ce565b604051808273ffffffffffffffffffffffffffffffffffffffff1673ffffffffffffffffffffffffffffffffffffffff16815260200191505060405180910390f35b341561035657600080fd5b61035e6107f3565b6040518082815260200191505060405180910390f35b341561037f57600080fd5b6103ab600480803573ffffffffffffffffffffffffffffffffffffffff169060200190919050506107f9565b005b34156103b857600080fd5b6103e4600480803573ffffffffffffffffffffffffffffffffffffffff16906020019091905050610991565b005b6004818154811015156103f557fe5b90600052602060002090016000915054906101000a900473ffffffffffffffffffffffffffffffffffffffff1681565b600061043033610ae6565b151561043b57600080fd5b61044433610b8a565b15151561045057600080fd5b3373ffffffffffffffffffffffffffffffffffffffff1663b5ddb3f48585856000604051602001526040518463ffffffff167c01000000000000000000000000000000000000000000000000000000000281526004018084600019166000191681526020018060200182810382528484828181526020019250808284378201915050945050505050602060405180830381600087803b15156104f157600080fd5b6102c65a03f1151561050257600080fd5b50505060405180519050151561051757600080fd5b6005805480600101828161052b9190610c34565b916000526020600020906003020160006060604051908101604052803373ffffffffffffffffffffffffffffffffffffffff1681526020018860001916815260200187878080601f016020809104026020016040519081016040528093929190818152602001838380828437820191505050505050815250909190915060008201518160000160006101000a81548173ffffffffffffffffffffffffffffffffffffffff021916908373ffffffffffffffffffffffffffffffffffffffff16021790555060208201518160010190600019169055604082015181600201908051906020019061061b929190610c66565b50505090507f853d14480561223bcf0c9e2441f3eff05abbcfaee4929223da58a69d92214873303383600580549050604051808573ffffffffffffffffffffffffffffffffffffffff1673ffffffffffffffffffffffffffffffffffffffff1681526020018473ffffffffffffffffffffffffffffffffffffffff1673ffffffffffffffffffffffffffffffffffffffff16815260200183815260200182815260200194505050505060405180910390a150505050565b60035481565b60028054600181600116156101000203166002900480601f01602080910402602001604051908101604052809291908181526020018280546001816001161561010002031660029004801561076e5780601f106107435761010080835404028352916020019161076e565b820191906000526020600020905b81548152906001019060200180831161075157829003601f168201915b505050505081565b60058181548110151561078557fe5b90600052602060002090600302016000915090508060000160009054906101000a900473ffffffffffffffffffffffffffffffffffffffff169080600101549080600201905083565b6000809054906101000a900473ffffffffffffffffffffffffffffffffffffffff1681565b60015481565b60008060009054906101000a900473ffffffffffffffffffffffffffffffffffffffff1673ffffffffffffffffffffffffffffffffffffffff163373ffffffffffffffffffffffffffffffffffffffff1614151561085657600080fd5b6004805480600101828161086a9190610ce6565b9160005260206000209001600084909190916101000a81548173ffffffffffffffffffffffffffffffffffffffff021916908373ffffffffffffffffffffffffffffffffffffffff16021790555090507f24dcea8c6829d2830313a24c986ed795f78c1f1713f006f2578356baf2d1c43b30338484604051808573ffffffffffffffffffffffffffffffffffffffff1673ffffffffffffffffffffffffffffffffffffffff1681526020018473ffffffffffffffffffffffffffffffffffffffff1673ffffffffffffffffffffffffffffffffffffffff1681526020018373ffffffffffffffffffffffffffffffffffffffff1673ffffffffffffffffffffffffffffffffffffffff16815260200182815260200194505050505060405180910390a15050565b6000809054906101000a900473ffffffffffffffffffffffffffffffffffffffff1673ffffffffffffffffffffffffffffffffffffffff163373ffffffffffffffffffffffffffffffffffffffff161415156109ec57600080fd5b600073ffffffffffffffffffffffffffffffffffffffff168173ffffffffffffffffffffffffffffffffffffffff1614151515610a2857600080fd5b8073ffffffffffffffffffffffffffffffffffffffff166000809054906101000a900473ffffffffffffffffffffffffffffffffffffffff1673ffffffffffffffffffffffffffffffffffffffff167f8be0079c531659141344cd1fd0a4f28419497f9722a3daafe3b4186f6b6457e060405160405180910390a3806000806101000a81548173ffffffffffffffffffffffffffffffffffffffff021916908373ffffffffffffffffffffffffffffffffffffffff16021790555050565b600080600090505b600480549050811015610b7f578273ffffffffffffffffffffffffffffffffffffffff16600482815481101515610b2157fe5b906000526020600020900160009054906101000a900473ffffffffffffffffffffffffffffffffffffffff1673ffffffffffffffffffffffffffffffffffffffff161415610b725760019150610b84565b8080600101915050610aee565b600091505b50919050565b600080600090505b600580549050811015610c29578273ffffffffffffffffffffffffffffffffffffffff16600582815481101515610bc557fe5b906000526020600020906003020160000160009054906101000a900473ffffffffffffffffffffffffffffffffffffffff1673ffffffffffffffffffffffffffffffffffffffff161415610c1c5760019150610c2e565b8080600101915050610b92565b600091505b50919050565b815481835581811511610c6157600302816003028360005260206000209182019101610c609190610d12565b5b505050565b828054600181600116156101000203166002900490600052602060002090601f016020900481019282601f10610ca757805160ff1916838001178555610cd5565b82800160010185558215610cd5579182015b82811115610cd4578251825591602001919060010190610cb9565b5b509050610ce29190610d70565b5090565b815481835581811511610d0d57818360005260206000209182019101610d0c9190610d70565b5b505050565b610d6d91905b80821115610d6957600080820160006101000a81549073ffffffffffffffffffffffffffffffffffffffff02191690556001820160009055600282016000610d609190610d95565b50600301610d18565b5090565b90565b610d9291905b80821115610d8e576000816000905550600101610d76565b5090565b90565b50805460018160011615610100020316600290046000825580601f10610dbb5750610dda565b601f016020900490600052602060002090810190610dd99190610d70565b5b505600a165627a7a72305820821349d7c4992f62bb06660d8810db9103c0f587c08354242762f875d74eedc80029a165627a7a7230582037e973b6a92e536f1c631f82613d13a2629ee264f13240083d6654898842b38d0029",
  "source": "pragma solidity ^0.4.18;\r\n\r\nimport './Document.sol';\r\n\r\nimport 'zeppelin-solidity/contracts/ownership/Ownable.sol';\r\n\r\nimport './IdentitiesIntf.sol';\r\n\r\n\r\nimport './OwnableIntf.sol';\r\n\r\n\r\ncontract Documents is Ownable {\r\n\r\n\r\n    mapping(uint256 => address) public documents;\r\n\r\n    mapping(address => uint256[]) public documentOwnership;\r\n\r\n    uint256 public count;\r\n\r\n    IdentitiesIntf public identitiesAdd;\r\n\r\n    event DocumentCreated(uint256 id, address document, address creator);\r\n\r\n    event DocumentOwnershipTransferred(uint256 documentId, address previousOwner, address newOwner);\r\n\r\n    function Documents(address _identitiesAdd) public {\r\n        identitiesAdd = IdentitiesIntf(_identitiesAdd);\r\n    }\r\n\r\n    function createDocument(string _docName, bytes32 _checksum) external {\r\n        identitiesAdd.checkCreatorRole(msg.sender);\r\n        count++;\r\n        address doc = new Document(count, _docName, _checksum, msg.sender);\r\n        documents[count] = doc;\r\n        documentOwnership[msg.sender].push(count);\r\n\r\n        DocumentCreated(count, doc, msg.sender);\r\n    }\r\n\r\n    function transferDocumentOwnership(uint256 documentId, address newOwner) external {\r\n        require(documents[documentId] != address(0));\r\n        int ownedNdx = ownedDocIndex(documentId, msg.sender);\r\n        require(ownedNdx != -1);\r\n        // Ensures that address of new owner has the rights to own the document\r\n        identitiesAdd.checkCreatorRole(newOwner);\r\n\r\n        removeDocOwnership(uint(ownedNdx));\r\n        OwnableIntf(documents[documentId]).transferOwnership(newOwner);\r\n\r\n        DocumentOwnershipTransferred(documentId, msg.sender, newOwner);\r\n\r\n\r\n    }\r\n\r\n    function ownedDocIndex(uint256 docId, address addr) internal view returns (int) {\r\n        uint256[] memory owned = documentOwnership[addr];\r\n\r\n        for(uint i = 0; i < owned.length; i++) {\r\n            if(owned[i] == docId) {\r\n                return int(i);\r\n            }\r\n        }\r\n\r\n        return -1;\r\n    }\r\n\r\n    function removeDocOwnership(uint ownedNdx) internal {\r\n        uint256[] storage docs = documentOwnership[msg.sender];\r\n\r\n\r\n        //Delete element\r\n        delete docs[ownedNdx];\r\n\r\n        //Move last element to deleted spot\r\n        docs[ownedNdx] = docs[docs.length - 1];\r\n\r\n        //Reduce array size\r\n        docs.length--;\r\n\r\n    }\r\n\r\n    function setRolesDefAdd(address _identitiesAdd) public onlyOwner {\r\n        identitiesAdd = IdentitiesIntf(_identitiesAdd);\r\n    }\r\n\r\n\r\n\r\n\r\n}\r\n",
  "sourcePath": "C:\\Users\\User.Admin\\Desktop\\sol-workspace\\document-management-smc\\contracts\\Documents.sol",
  "compiler": {
    "name": "solc",
    "version": "0.4.18+commit.9cf6e910.Emscripten.clang"
  },
  "schemaVersion": "1.0.1",
  "updatedAt": "2018-04-03T03:29:25.363Z"
}