{
  "contractName": "Document",
  "abi": [
    {
      "constant": true,
      "inputs": [],
      "name": "IDENTITY",
      "outputs": [
        {
          "name": "",
          "type": "bytes32"
        }
      ],
      "payable": false,
      "stateMutability": "view",
      "type": "function"
    },
    {
      "constant": true,
      "inputs": [
        {
          "name": "",
          "type": "uint256"
        }
      ],
      "name": "signers",
      "outputs": [
        {
          "name": "",
          "type": "address"
        }
      ],
      "payable": false,
      "stateMutability": "view",
      "type": "function"
    },
    {
      "constant": false,
      "inputs": [
        {
          "name": "hash",
          "type": "bytes32"
        },
        {
          "name": "sig",
          "type": "bytes"
        }
      ],
      "name": "sign",
      "outputs": [],
      "payable": false,
      "stateMutability": "nonpayable",
      "type": "function"
    },
    {
      "constant": true,
      "inputs": [],
      "name": "checksum",
      "outputs": [
        {
          "name": "",
          "type": "bytes32"
        }
      ],
      "payable": false,
      "stateMutability": "view",
      "type": "function"
    },
    {
      "constant": true,
      "inputs": [],
      "name": "docName",
      "outputs": [
        {
          "name": "",
          "type": "string"
        }
      ],
      "payable": false,
      "stateMutability": "view",
      "type": "function"
    },
    {
      "constant": true,
      "inputs": [
        {
          "name": "",
          "type": "uint256"
        }
      ],
      "name": "signatures",
      "outputs": [
        {
          "name": "signer",
          "type": "address"
        },
        {
          "name": "hash",
          "type": "bytes32"
        },
        {
          "name": "signature",
          "type": "bytes"
        }
      ],
      "payable": false,
      "stateMutability": "view",
      "type": "function"
    },
    {
      "constant": true,
      "inputs": [],
      "name": "owner",
      "outputs": [
        {
          "name": "",
          "type": "address"
        }
      ],
      "payable": false,
      "stateMutability": "view",
      "type": "function"
    },
    {
      "constant": false,
      "inputs": [
        {
          "name": "signer",
          "type": "address"
        }
      ],
      "name": "addSigner",
      "outputs": [],
      "payable": false,
      "stateMutability": "nonpayable",
      "type": "function"
    },
    {
      "constant": false,
      "inputs": [
        {
          "name": "newOwner",
          "type": "address"
        }
      ],
      "name": "transferOwnership",
      "outputs": [],
      "payable": false,
      "stateMutability": "nonpayable",
      "type": "function"
    },
    {
      "inputs": [
        {
          "name": "_docName",
          "type": "string"
        },
        {
          "name": "_checksum",
          "type": "bytes32"
        }
      ],
      "payable": false,
      "stateMutability": "nonpayable",
      "type": "constructor"
    },
    {
      "anonymous": false,
      "inputs": [
        {
          "indexed": false,
          "name": "signer",
          "type": "address"
        },
        {
          "indexed": false,
          "name": "signersCount",
          "type": "uint256"
        }
      ],
      "name": "SignerAdded",
      "type": "event"
    },
    {
      "anonymous": false,
      "inputs": [
        {
          "indexed": false,
          "name": "signer",
          "type": "address"
        },
        {
          "indexed": false,
          "name": "totalSigned",
          "type": "uint256"
        },
        {
          "indexed": false,
          "name": "signersCount",
          "type": "uint256"
        }
      ],
      "name": "Signed",
      "type": "event"
    },
    {
      "anonymous": false,
      "inputs": [
        {
          "indexed": true,
          "name": "previousOwner",
          "type": "address"
        },
        {
          "indexed": true,
          "name": "newOwner",
          "type": "address"
        }
      ],
      "name": "OwnershipTransferred",
      "type": "event"
    }
  ],
  "bytecode": "0x6060604052341561000f57600080fd5b60405161103038038061103083398101604052808051820191906020018051906020019091905050336000806101000a81548173ffffffffffffffffffffffffffffffffffffffff021916908373ffffffffffffffffffffffffffffffffffffffff160217905550816001908051906020019061008d9291906100e0565b508060028160001916905550336000806101000a81548173ffffffffffffffffffffffffffffffffffffffff021916908373ffffffffffffffffffffffffffffffffffffffff1602179055505050610185565b828054600181600116156101000203166002900490600052602060002090601f016020900481019282601f1061012157805160ff191683800117855561014f565b8280016001018555821561014f579182015b8281111561014e578251825591602001919060010190610133565b5b50905061015c9190610160565b5090565b61018291905b8082111561017e576000816000905550600101610166565b5090565b90565b610e9c806101946000396000f300606060405260043610610099576000357c0100000000000000000000000000000000000000000000000000000000900463ffffffff168063150c4aea1461009e5780632079fb9a146100cf578063365e250b14610132578063487c20911461019c578063535133fd146101cd5780638be101941461025b5780638da5cb5b14610356578063eb12d61e146103ab578063f2fde38b146103e4575b600080fd5b34156100a957600080fd5b6100b161041d565b60405180826000191660001916815260200191505060405180910390f35b34156100da57600080fd5b6100f06004808035906020019091905050610444565b604051808273ffffffffffffffffffffffffffffffffffffffff1673ffffffffffffffffffffffffffffffffffffffff16815260200191505060405180910390f35b341561013d57600080fd5b61019a60048080356000191690602001909190803590602001908201803590602001908080601f01602080910402602001604051908101604052809392919081815260200183838082843782019150505050505091905050610483565b005b34156101a757600080fd5b6101af610714565b60405180826000191660001916815260200191505060405180910390f35b34156101d857600080fd5b6101e061071a565b6040518080602001828103825283818151815260200191508051906020019080838360005b83811015610220578082015181840152602081019050610205565b50505050905090810190601f16801561024d5780820380516001836020036101000a031916815260200191505b509250505060405180910390f35b341561026657600080fd5b61027c60048080359060200190919050506107b8565b604051808473ffffffffffffffffffffffffffffffffffffffff1673ffffffffffffffffffffffffffffffffffffffff1681526020018360001916600019168152602001806020018281038252838181546001816001161561010002031660029004815260200191508054600181600116156101000203166002900480156103455780601f1061031a57610100808354040283529160200191610345565b820191906000526020600020905b81548152906001019060200180831161032857829003601f168201915b505094505050505060405180910390f35b341561036157600080fd5b610369610810565b604051808273ffffffffffffffffffffffffffffffffffffffff1673ffffffffffffffffffffffffffffffffffffffff16815260200191505060405180910390f35b34156103b657600080fd5b6103e2600480803573ffffffffffffffffffffffffffffffffffffffff16906020019091905050610835565b005b34156103ef57600080fd5b61041b600480803573ffffffffffffffffffffffffffffffffffffffff16906020019091905050610a24565b005b7f377799b22fba826cf24c3f07e6731c67676765addcee33415a2c80d453d4ed6e60010281565b60038181548110151561045357fe5b90600052602060002090016000915054906101000a900473ffffffffffffffffffffffffffffffffffffffff1681565b600061048e33610b79565b151561049957600080fd5b6104a233610c1d565b1515156104ae57600080fd5b3373ffffffffffffffffffffffffffffffffffffffff1663b5ddb3f484846000604051602001526040518363ffffffff167c010000000000000000000000000000000000000000000000000000000002815260040180836000191660001916815260200180602001828103825283818151815260200191508051906020019080838360005b8381101561054e578082015181840152602081019050610533565b50505050905090810190601f16801561057b5780820380516001836020036101000a031916815260200191505b509350505050602060405180830381600087803b151561059a57600080fd5b6102c65a03f115156105ab57600080fd5b5050506040518051905015156105c057600080fd5b600480548060010182816105d49190610cc7565b916000526020600020906003020160006060604051908101604052803373ffffffffffffffffffffffffffffffffffffffff1681526020018760001916815260200186815250909190915060008201518160000160006101000a81548173ffffffffffffffffffffffffffffffffffffffff021916908373ffffffffffffffffffffffffffffffffffffffff160217905550602082015181600101906000191690556040820151816002019080519060200190610692929190610cf9565b50505090507f9baf1c5a7c85405e33ce4a842a40aee5bea6265e3c27f87462a422c5e00505533382600380549050604051808473ffffffffffffffffffffffffffffffffffffffff1673ffffffffffffffffffffffffffffffffffffffff168152602001838152602001828152602001935050505060405180910390a1505050565b60025481565b60018054600181600116156101000203166002900480601f0160208091040260200160405190810160405280929190818152602001828054600181600116156101000203166002900480156107b05780601f10610785576101008083540402835291602001916107b0565b820191906000526020600020905b81548152906001019060200180831161079357829003601f168201915b505050505081565b6004818154811015156107c757fe5b90600052602060002090600302016000915090508060000160009054906101000a900473ffffffffffffffffffffffffffffffffffffffff169080600101549080600201905083565b6000809054906101000a900473ffffffffffffffffffffffffffffffffffffffff1681565b60008060009054906101000a900473ffffffffffffffffffffffffffffffffffffffff1673ffffffffffffffffffffffffffffffffffffffff163373ffffffffffffffffffffffffffffffffffffffff1614151561089257600080fd5b7f377799b22fba826cf24c3f07e6731c67676765addcee33415a2c80d453d4ed6e600102600019168273ffffffffffffffffffffffffffffffffffffffff166375d0c0dc6000604051602001526040518163ffffffff167c0100000000000000000000000000000000000000000000000000000000028152600401602060405180830381600087803b151561092657600080fd5b6102c65a03f1151561093757600080fd5b505050604051805190506000191614151561095157600080fd5b600380548060010182816109659190610d79565b9160005260206000209001600084909190916101000a81548173ffffffffffffffffffffffffffffffffffffffff021916908373ffffffffffffffffffffffffffffffffffffffff16021790555090507f50999ebf9b59bf3157a58816611976f2d723378ad51457d7b0413209e0cdee598282604051808373ffffffffffffffffffffffffffffffffffffffff1673ffffffffffffffffffffffffffffffffffffffff1681526020018281526020019250505060405180910390a15050565b6000809054906101000a900473ffffffffffffffffffffffffffffffffffffffff1673ffffffffffffffffffffffffffffffffffffffff163373ffffffffffffffffffffffffffffffffffffffff16141515610a7f57600080fd5b600073ffffffffffffffffffffffffffffffffffffffff168173ffffffffffffffffffffffffffffffffffffffff1614151515610abb57600080fd5b8073ffffffffffffffffffffffffffffffffffffffff166000809054906101000a900473ffffffffffffffffffffffffffffffffffffffff1673ffffffffffffffffffffffffffffffffffffffff167f8be0079c531659141344cd1fd0a4f28419497f9722a3daafe3b4186f6b6457e060405160405180910390a3806000806101000a81548173ffffffffffffffffffffffffffffffffffffffff021916908373ffffffffffffffffffffffffffffffffffffffff16021790555050565b600080600090505b600380549050811015610c12578273ffffffffffffffffffffffffffffffffffffffff16600382815481101515610bb457fe5b906000526020600020900160009054906101000a900473ffffffffffffffffffffffffffffffffffffffff1673ffffffffffffffffffffffffffffffffffffffff161415610c055760019150610c17565b8080600101915050610b81565b600091505b50919050565b600080600090505b600480549050811015610cbc578273ffffffffffffffffffffffffffffffffffffffff16600482815481101515610c5857fe5b906000526020600020906003020160000160009054906101000a900473ffffffffffffffffffffffffffffffffffffffff1673ffffffffffffffffffffffffffffffffffffffff161415610caf5760019150610cc1565b8080600101915050610c25565b600091505b50919050565b815481835581811511610cf457600302816003028360005260206000209182019101610cf39190610da5565b5b505050565b828054600181600116156101000203166002900490600052602060002090601f016020900481019282601f10610d3a57805160ff1916838001178555610d68565b82800160010185558215610d68579182015b82811115610d67578251825591602001919060010190610d4c565b5b509050610d759190610e03565b5090565b815481835581811511610da057818360005260206000209182019101610d9f9190610e03565b5b505050565b610e0091905b80821115610dfc57600080820160006101000a81549073ffffffffffffffffffffffffffffffffffffffff02191690556001820160009055600282016000610df39190610e28565b50600301610dab565b5090565b90565b610e2591905b80821115610e21576000816000905550600101610e09565b5090565b90565b50805460018160011615610100020316600290046000825580601f10610e4e5750610e6d565b601f016020900490600052602060002090810190610e6c9190610e03565b5b505600a165627a7a72305820b71df2649ff3782735c8167c0095d954bbd8bd29cc4c1cea983cfca1f3a9cd960029",
  "source": "pragma solidity 0.4.18;\r\n\r\nimport './SignableDocument.sol';\r\n\r\nimport 'zeppelin-solidity/contracts/ownership/Ownable.sol';\r\n\r\nimport './NamedContract.sol';\r\n\r\nimport './SelfSignatureVerifiable.sol';\r\n\r\ncontract Document is SignableDocument, Ownable {\r\n\r\n\r\n\r\n    string public docName;\r\n\r\n    bytes32 public checksum;\r\n\r\n    struct Signatory {\r\n        address signer;\r\n        bytes32 hash;\r\n        bytes signature;\r\n    }\r\n\r\n    address[] public signers;\r\n\r\n    Signatory[] public signatures;\r\n\r\n    bytes32 public constant IDENTITY = 0x377799b22fba826cf24c3f07e6731c67676765addcee33415a2c80d453d4ed6e;\r\n\r\n    function Document(string _docName, bytes32 _checksum) public {\r\n        docName = _docName;\r\n        checksum = _checksum;\r\n        owner = msg.sender;\r\n    }\r\n\r\n    modifier onlyOwner() {\r\n        require(msg.sender == owner);\r\n        _;\r\n    }\r\n\r\n    event SignerAdded(address signer, uint signersCount);\r\n\r\n    event Signed(address signer, uint totalSigned, uint signersCount);\r\n\r\n    function addSigner(address signer) public onlyOwner {\r\n        require(NamedContract(signer).contractName() == IDENTITY);\r\n\r\n        uint length = signers.push(signer);\r\n\r\n        SignerAdded(signer, length);\r\n    }\r\n\r\n    function sign(bytes32 hash, bytes sig) public {\r\n        require(isSigner(msg.sender));\r\n        require(!hasSigned(msg.sender));\r\n        require(SelfSignatureVerifiable(msg.sender).isOwnSignature(hash, sig));\r\n\r\n        uint totalSigned = signatures.push(Signatory(msg.sender, hash, sig));\r\n\r\n        Signed(msg.sender, totalSigned, signers.length);\r\n    }\r\n\r\n\r\n    function isSigner(address signerAddress) internal view returns (bool){\r\n        for (uint i = 0; i < signers.length; i++) {\r\n            if (signers[i] == signerAddress) {\r\n                return true;\r\n            }\r\n        }\r\n\r\n        return false;\r\n    }\r\n\r\n    function hasSigned(address signerAddress) internal view returns (bool) {\r\n        for (uint i = 0; i < signatures.length; i++) {\r\n            if (signatures[i].signer == signerAddress) {\r\n                return true;\r\n            }\r\n        }\r\n\r\n        return false;\r\n    }\r\n\r\n\r\n}\r\n",
  "sourcePath": "C:\\Users\\User.Admin\\Desktop\\sol-workspace\\document-management-smc\\contracts\\Document.sol",
  "compiler": {
    "name": "solc",
    "version": "0.4.18+commit.9cf6e910.Emscripten.clang"
  },
  "schemaVersion": "1.0.1",
  "updatedAt": "2018-03-15T02:07:21.358Z"
}