{
  "contractName": "Document",
  "abi": [
    {
      "constant": true,
      "inputs": [
        {
          "name": "",
          "type": "uint256"
        }
      ],
      "name": "signers",
      "outputs": [
        {
          "name": "",
          "type": "address"
        }
      ],
      "payable": false,
      "stateMutability": "view",
      "type": "function"
    },
    {
      "constant": false,
      "inputs": [
        {
          "name": "hash",
          "type": "bytes32"
        },
        {
          "name": "sig",
          "type": "bytes"
        }
      ],
      "name": "sign",
      "outputs": [],
      "payable": false,
      "stateMutability": "nonpayable",
      "type": "function"
    },
    {
      "constant": true,
      "inputs": [],
      "name": "checksum",
      "outputs": [
        {
          "name": "",
          "type": "bytes32"
        }
      ],
      "payable": false,
      "stateMutability": "view",
      "type": "function"
    },
    {
      "constant": true,
      "inputs": [],
      "name": "docName",
      "outputs": [
        {
          "name": "",
          "type": "string"
        }
      ],
      "payable": false,
      "stateMutability": "view",
      "type": "function"
    },
    {
      "constant": true,
      "inputs": [
        {
          "name": "",
          "type": "uint256"
        }
      ],
      "name": "signatures",
      "outputs": [
        {
          "name": "signer",
          "type": "address"
        },
        {
          "name": "hash",
          "type": "bytes32"
        },
        {
          "name": "signature",
          "type": "bytes"
        }
      ],
      "payable": false,
      "stateMutability": "view",
      "type": "function"
    },
    {
      "constant": true,
      "inputs": [],
      "name": "owner",
      "outputs": [
        {
          "name": "",
          "type": "address"
        }
      ],
      "payable": false,
      "stateMutability": "view",
      "type": "function"
    },
    {
      "constant": true,
      "inputs": [],
      "name": "id",
      "outputs": [
        {
          "name": "",
          "type": "uint256"
        }
      ],
      "payable": false,
      "stateMutability": "view",
      "type": "function"
    },
    {
      "constant": false,
      "inputs": [
        {
          "name": "signer",
          "type": "address"
        }
      ],
      "name": "addSigner",
      "outputs": [],
      "payable": false,
      "stateMutability": "nonpayable",
      "type": "function"
    },
    {
      "constant": false,
      "inputs": [
        {
          "name": "newOwner",
          "type": "address"
        }
      ],
      "name": "transferOwnership",
      "outputs": [],
      "payable": false,
      "stateMutability": "nonpayable",
      "type": "function"
    },
    {
      "inputs": [
        {
          "name": "_id",
          "type": "uint256"
        },
        {
          "name": "_docName",
          "type": "string"
        },
        {
          "name": "_checksum",
          "type": "bytes32"
        },
        {
          "name": "_owner",
          "type": "address"
        }
      ],
      "payable": false,
      "stateMutability": "nonpayable",
      "type": "constructor"
    },
    {
      "anonymous": false,
      "inputs": [
        {
          "indexed": false,
          "name": "docAddress",
          "type": "address"
        },
        {
          "indexed": false,
          "name": "signer",
          "type": "address"
        },
        {
          "indexed": false,
          "name": "totalSigned",
          "type": "uint256"
        },
        {
          "indexed": false,
          "name": "signersCount",
          "type": "uint256"
        }
      ],
      "name": "DocumentSigned",
      "type": "event"
    },
    {
      "anonymous": false,
      "inputs": [
        {
          "indexed": false,
          "name": "docAddress",
          "type": "address"
        },
        {
          "indexed": false,
          "name": "owner",
          "type": "address"
        },
        {
          "indexed": false,
          "name": "signer",
          "type": "address"
        },
        {
          "indexed": false,
          "name": "signersCount",
          "type": "uint256"
        }
      ],
      "name": "SignerAdded",
      "type": "event"
    },
    {
      "anonymous": false,
      "inputs": [
        {
          "indexed": true,
          "name": "previousOwner",
          "type": "address"
        },
        {
          "indexed": true,
          "name": "newOwner",
          "type": "address"
        }
      ],
      "name": "OwnershipTransferred",
      "type": "event"
    }
  ],
  "bytecode": "0x6060604052341561000f57600080fd5b604051610fb8380380610fb883398101604052808051906020019091908051820191906020018051906020019091908051906020019091905050336000806101000a81548173ffffffffffffffffffffffffffffffffffffffff021916908373ffffffffffffffffffffffffffffffffffffffff1602179055508360018190555082600290805190602001906100a69291906100fb565b508160038160001916905550806000806101000a81548173ffffffffffffffffffffffffffffffffffffffff021916908373ffffffffffffffffffffffffffffffffffffffff160217905550505050506101a0565b828054600181600116156101000203166002900490600052602060002090601f016020900481019282601f1061013c57805160ff191683800117855561016a565b8280016001018555821561016a579182015b8281111561016957825182559160200191906001019061014e565b5b509050610177919061017b565b5090565b61019d91905b80821115610199576000816000905550600101610181565b5090565b90565b610e09806101af6000396000f300606060405260043610610099576000357c0100000000000000000000000000000000000000000000000000000000900463ffffffff1680632079fb9a1461009e578063365e250b14610101578063487c20911461013c578063535133fd1461016d5780638be10194146101fb5780638da5cb5b146102f6578063af640d0f1461034b578063eb12d61e14610374578063f2fde38b146103ad575b600080fd5b34156100a957600080fd5b6100bf60048080359060200190919050506103e6565b604051808273ffffffffffffffffffffffffffffffffffffffff1673ffffffffffffffffffffffffffffffffffffffff16815260200191505060405180910390f35b341561010c57600080fd5b61013a6004808035600019169060200190919080359060200190820180359060200191909192905050610425565b005b341561014757600080fd5b61014f6106d2565b60405180826000191660001916815260200191505060405180910390f35b341561017857600080fd5b6101806106d8565b6040518080602001828103825283818151815260200191508051906020019080838360005b838110156101c05780820151818401526020810190506101a5565b50505050905090810190601f1680156101ed5780820380516001836020036101000a031916815260200191505b509250505060405180910390f35b341561020657600080fd5b61021c6004808035906020019091905050610776565b604051808473ffffffffffffffffffffffffffffffffffffffff1673ffffffffffffffffffffffffffffffffffffffff1681526020018360001916600019168152602001806020018281038252838181546001816001161561010002031660029004815260200191508054600181600116156101000203166002900480156102e55780601f106102ba576101008083540402835291602001916102e5565b820191906000526020600020905b8154815290600101906020018083116102c857829003601f168201915b505094505050505060405180910390f35b341561030157600080fd5b6103096107ce565b604051808273ffffffffffffffffffffffffffffffffffffffff1673ffffffffffffffffffffffffffffffffffffffff16815260200191505060405180910390f35b341561035657600080fd5b61035e6107f3565b6040518082815260200191505060405180910390f35b341561037f57600080fd5b6103ab600480803573ffffffffffffffffffffffffffffffffffffffff169060200190919050506107f9565b005b34156103b857600080fd5b6103e4600480803573ffffffffffffffffffffffffffffffffffffffff16906020019091905050610991565b005b6004818154811015156103f557fe5b90600052602060002090016000915054906101000a900473ffffffffffffffffffffffffffffffffffffffff1681565b600061043033610ae6565b151561043b57600080fd5b61044433610b8a565b15151561045057600080fd5b3373ffffffffffffffffffffffffffffffffffffffff1663b5ddb3f48585856000604051602001526040518463ffffffff167c01000000000000000000000000000000000000000000000000000000000281526004018084600019166000191681526020018060200182810382528484828181526020019250808284378201915050945050505050602060405180830381600087803b15156104f157600080fd5b6102c65a03f1151561050257600080fd5b50505060405180519050151561051757600080fd5b6005805480600101828161052b9190610c34565b916000526020600020906003020160006060604051908101604052803373ffffffffffffffffffffffffffffffffffffffff1681526020018860001916815260200187878080601f016020809104026020016040519081016040528093929190818152602001838380828437820191505050505050815250909190915060008201518160000160006101000a81548173ffffffffffffffffffffffffffffffffffffffff021916908373ffffffffffffffffffffffffffffffffffffffff16021790555060208201518160010190600019169055604082015181600201908051906020019061061b929190610c66565b50505090507f853d14480561223bcf0c9e2441f3eff05abbcfaee4929223da58a69d92214873303383600580549050604051808573ffffffffffffffffffffffffffffffffffffffff1673ffffffffffffffffffffffffffffffffffffffff1681526020018473ffffffffffffffffffffffffffffffffffffffff1673ffffffffffffffffffffffffffffffffffffffff16815260200183815260200182815260200194505050505060405180910390a150505050565b60035481565b60028054600181600116156101000203166002900480601f01602080910402602001604051908101604052809291908181526020018280546001816001161561010002031660029004801561076e5780601f106107435761010080835404028352916020019161076e565b820191906000526020600020905b81548152906001019060200180831161075157829003601f168201915b505050505081565b60058181548110151561078557fe5b90600052602060002090600302016000915090508060000160009054906101000a900473ffffffffffffffffffffffffffffffffffffffff169080600101549080600201905083565b6000809054906101000a900473ffffffffffffffffffffffffffffffffffffffff1681565b60015481565b60008060009054906101000a900473ffffffffffffffffffffffffffffffffffffffff1673ffffffffffffffffffffffffffffffffffffffff163373ffffffffffffffffffffffffffffffffffffffff1614151561085657600080fd5b6004805480600101828161086a9190610ce6565b9160005260206000209001600084909190916101000a81548173ffffffffffffffffffffffffffffffffffffffff021916908373ffffffffffffffffffffffffffffffffffffffff16021790555090507f24dcea8c6829d2830313a24c986ed795f78c1f1713f006f2578356baf2d1c43b30338484604051808573ffffffffffffffffffffffffffffffffffffffff1673ffffffffffffffffffffffffffffffffffffffff1681526020018473ffffffffffffffffffffffffffffffffffffffff1673ffffffffffffffffffffffffffffffffffffffff1681526020018373ffffffffffffffffffffffffffffffffffffffff1673ffffffffffffffffffffffffffffffffffffffff16815260200182815260200194505050505060405180910390a15050565b6000809054906101000a900473ffffffffffffffffffffffffffffffffffffffff1673ffffffffffffffffffffffffffffffffffffffff163373ffffffffffffffffffffffffffffffffffffffff161415156109ec57600080fd5b600073ffffffffffffffffffffffffffffffffffffffff168173ffffffffffffffffffffffffffffffffffffffff1614151515610a2857600080fd5b8073ffffffffffffffffffffffffffffffffffffffff166000809054906101000a900473ffffffffffffffffffffffffffffffffffffffff1673ffffffffffffffffffffffffffffffffffffffff167f8be0079c531659141344cd1fd0a4f28419497f9722a3daafe3b4186f6b6457e060405160405180910390a3806000806101000a81548173ffffffffffffffffffffffffffffffffffffffff021916908373ffffffffffffffffffffffffffffffffffffffff16021790555050565b600080600090505b600480549050811015610b7f578273ffffffffffffffffffffffffffffffffffffffff16600482815481101515610b2157fe5b906000526020600020900160009054906101000a900473ffffffffffffffffffffffffffffffffffffffff1673ffffffffffffffffffffffffffffffffffffffff161415610b725760019150610b84565b8080600101915050610aee565b600091505b50919050565b600080600090505b600580549050811015610c29578273ffffffffffffffffffffffffffffffffffffffff16600582815481101515610bc557fe5b906000526020600020906003020160000160009054906101000a900473ffffffffffffffffffffffffffffffffffffffff1673ffffffffffffffffffffffffffffffffffffffff161415610c1c5760019150610c2e565b8080600101915050610b92565b600091505b50919050565b815481835581811511610c6157600302816003028360005260206000209182019101610c609190610d12565b5b505050565b828054600181600116156101000203166002900490600052602060002090601f016020900481019282601f10610ca757805160ff1916838001178555610cd5565b82800160010185558215610cd5579182015b82811115610cd4578251825591602001919060010190610cb9565b5b509050610ce29190610d70565b5090565b815481835581811511610d0d57818360005260206000209182019101610d0c9190610d70565b5b505050565b610d6d91905b80821115610d6957600080820160006101000a81549073ffffffffffffffffffffffffffffffffffffffff02191690556001820160009055600282016000610d609190610d95565b50600301610d18565b5090565b90565b610d9291905b80821115610d8e576000816000905550600101610d76565b5090565b90565b50805460018160011615610100020316600290046000825580601f10610dbb5750610dda565b601f016020900490600052602060002090810190610dd99190610d70565b5b505600a165627a7a723058202261c7ee5dd49c9ffbaa02aa0291ad32610aa4b7fd62f8dd00c835d8d38fa65d0029",
  "source": "pragma solidity ^0.4.18;\r\n\r\nimport './SignableDocument.sol';\r\n\r\nimport 'zeppelin-solidity/contracts/ownership/Ownable.sol';\r\n\r\nimport './SelfSignatureVerifiable.sol';\r\n\r\n\r\ncontract Document is Ownable, SignableDocument {\r\n\r\n    struct Signatory {\r\n        address signer;\r\n        bytes32 hash;\r\n        bytes signature;\r\n    }\r\n\r\n\r\n    uint256 public id;\r\n\r\n    string public docName;\r\n\r\n    bytes32 public checksum;\r\n\r\n    address[] public signers;\r\n\r\n    Signatory[] public signatures;\r\n\r\n    event DocumentSigned(address docAddress, address signer, uint totalSigned, uint signersCount);\r\n\r\n    event SignerAdded(address docAddress, address owner, address signer, uint signersCount);\r\n\r\n\r\n    function Document(uint256 _id, string _docName, bytes32 _checksum, address _owner) public {\r\n        id = _id;\r\n        docName = _docName;\r\n        checksum = _checksum;\r\n        owner = _owner;\r\n    }\r\n\r\n    function addSigner(address signer) external onlyOwner {\r\n        uint length = signers.push(signer);\r\n\r\n        SignerAdded(address(this), msg.sender, signer, length);\r\n    }\r\n\r\n    function sign(bytes32 hash, bytes sig) external {\r\n        require(isSigner(msg.sender));\r\n        require(!hasSigned(msg.sender));\r\n        require(SelfSignatureVerifiable(msg.sender).isOwnSignature(hash, sig));\r\n\r\n        uint totalSigned = signatures.push(Signatory(msg.sender, hash, sig));\r\n\r\n        DocumentSigned(address(this), msg.sender, totalSigned, signatures.length);\r\n    }\r\n\r\n    function isSigner(address signerAddress) internal view returns (bool){\r\n        for (uint i = 0; i < signers.length; i++) {\r\n            if (signers[i] == signerAddress) {\r\n                return true;\r\n            }\r\n        }\r\n\r\n        return false;\r\n    }\r\n\r\n    function hasSigned(address signerAddress) internal view returns (bool) {\r\n        for (uint i = 0; i < signatures.length; i++) {\r\n            if (signatures[i].signer == signerAddress) {\r\n                return true;\r\n            }\r\n        }\r\n\r\n        return false;\r\n    }\r\n\r\n\r\n}\r\n",
  "sourcePath": "C:\\Users\\User.Admin\\Desktop\\sol-workspace\\document-management-smc\\contracts\\Document.sol",
  "compiler": {
    "name": "solc",
    "version": "0.4.18+commit.9cf6e910.Emscripten.clang"
  },
  "schemaVersion": "1.0.1",
  "updatedAt": "2018-04-03T01:57:15.453Z"
}