{
  "contractName": "Document",
  "abi": [
    {
      "constant": true,
      "inputs": [
        {
          "name": "",
          "type": "uint256"
        }
      ],
      "name": "signers",
      "outputs": [
        {
          "name": "",
          "type": "address"
        }
      ],
      "payable": false,
      "stateMutability": "view",
      "type": "function"
    },
    {
      "constant": false,
      "inputs": [
        {
          "name": "hash",
          "type": "bytes32"
        },
        {
          "name": "sig",
          "type": "bytes"
        }
      ],
      "name": "sign",
      "outputs": [],
      "payable": false,
      "stateMutability": "nonpayable",
      "type": "function"
    },
    {
      "constant": true,
      "inputs": [],
      "name": "checksum",
      "outputs": [
        {
          "name": "",
          "type": "bytes32"
        }
      ],
      "payable": false,
      "stateMutability": "view",
      "type": "function"
    },
    {
      "constant": true,
      "inputs": [],
      "name": "docName",
      "outputs": [
        {
          "name": "",
          "type": "string"
        }
      ],
      "payable": false,
      "stateMutability": "view",
      "type": "function"
    },
    {
      "constant": true,
      "inputs": [],
      "name": "registry",
      "outputs": [
        {
          "name": "",
          "type": "address"
        }
      ],
      "payable": false,
      "stateMutability": "view",
      "type": "function"
    },
    {
      "constant": true,
      "inputs": [
        {
          "name": "",
          "type": "uint256"
        }
      ],
      "name": "signatures",
      "outputs": [
        {
          "name": "signer",
          "type": "address"
        },
        {
          "name": "hash",
          "type": "bytes32"
        },
        {
          "name": "signature",
          "type": "bytes"
        }
      ],
      "payable": false,
      "stateMutability": "view",
      "type": "function"
    },
    {
      "constant": true,
      "inputs": [],
      "name": "owner",
      "outputs": [
        {
          "name": "",
          "type": "address"
        }
      ],
      "payable": false,
      "stateMutability": "view",
      "type": "function"
    },
    {
      "constant": true,
      "inputs": [],
      "name": "id",
      "outputs": [
        {
          "name": "",
          "type": "uint256"
        }
      ],
      "payable": false,
      "stateMutability": "view",
      "type": "function"
    },
    {
      "constant": false,
      "inputs": [
        {
          "name": "newRegistry",
          "type": "address"
        }
      ],
      "name": "switchRegistry",
      "outputs": [],
      "payable": false,
      "stateMutability": "nonpayable",
      "type": "function"
    },
    {
      "constant": true,
      "inputs": [],
      "name": "identitiesAdd",
      "outputs": [
        {
          "name": "",
          "type": "address"
        }
      ],
      "payable": false,
      "stateMutability": "view",
      "type": "function"
    },
    {
      "constant": false,
      "inputs": [
        {
          "name": "signer",
          "type": "address"
        }
      ],
      "name": "addSigner",
      "outputs": [],
      "payable": false,
      "stateMutability": "nonpayable",
      "type": "function"
    },
    {
      "constant": false,
      "inputs": [
        {
          "name": "newOwner",
          "type": "address"
        }
      ],
      "name": "transferOwnership",
      "outputs": [],
      "payable": false,
      "stateMutability": "nonpayable",
      "type": "function"
    },
    {
      "inputs": [
        {
          "name": "_id",
          "type": "uint256"
        },
        {
          "name": "_docName",
          "type": "string"
        },
        {
          "name": "_checksum",
          "type": "bytes32"
        },
        {
          "name": "_owner",
          "type": "address"
        },
        {
          "name": "_identitiesAdd",
          "type": "address"
        }
      ],
      "payable": false,
      "stateMutability": "nonpayable",
      "type": "constructor"
    },
    {
      "anonymous": false,
      "inputs": [
        {
          "indexed": false,
          "name": "docAddress",
          "type": "address"
        },
        {
          "indexed": false,
          "name": "signer",
          "type": "address"
        },
        {
          "indexed": false,
          "name": "totalSigned",
          "type": "uint256"
        },
        {
          "indexed": false,
          "name": "signersCount",
          "type": "uint256"
        }
      ],
      "name": "DocumentSigned",
      "type": "event"
    },
    {
      "anonymous": false,
      "inputs": [
        {
          "indexed": false,
          "name": "docAddress",
          "type": "address"
        },
        {
          "indexed": false,
          "name": "owner",
          "type": "address"
        },
        {
          "indexed": false,
          "name": "signer",
          "type": "address"
        },
        {
          "indexed": false,
          "name": "signersCount",
          "type": "uint256"
        }
      ],
      "name": "SignerAdded",
      "type": "event"
    },
    {
      "anonymous": false,
      "inputs": [
        {
          "indexed": true,
          "name": "previousOwner",
          "type": "address"
        },
        {
          "indexed": true,
          "name": "newOwner",
          "type": "address"
        }
      ],
      "name": "OwnershipTransferred",
      "type": "event"
    },
    {
      "anonymous": false,
      "inputs": [
        {
          "indexed": true,
          "name": "previousRepo",
          "type": "address"
        },
        {
          "indexed": true,
          "name": "newRepo",
          "type": "address"
        }
      ],
      "name": "RegistrySwitch",
      "type": "event"
    }
  ],
  "bytecode": "0x606060405234156200001057600080fd5b60405162001488380380620014888339810160405280805190602001909190805182019190602001805190602001909190805190602001909190805190602001909190505033600160006101000a81548173ffffffffffffffffffffffffffffffffffffffff021916908373ffffffffffffffffffffffffffffffffffffffff160217905550846002819055508360039080519060200190620000b59291906200014d565b508260048160001916905550816000806101000a81548173ffffffffffffffffffffffffffffffffffffffff021916908373ffffffffffffffffffffffffffffffffffffffff16021790555080600760006101000a81548173ffffffffffffffffffffffffffffffffffffffff021916908373ffffffffffffffffffffffffffffffffffffffff1602179055505050505050620001fc565b828054600181600116156101000203166002900490600052602060002090601f016020900481019282601f106200019057805160ff1916838001178555620001c1565b82800160010185558215620001c1579182015b82811115620001c0578251825591602001919060010190620001a3565b5b509050620001d09190620001d4565b5090565b620001f991905b80821115620001f5576000816000905550600101620001db565b5090565b90565b61127c806200020c6000396000f3006060604052600436106100ba576000357c0100000000000000000000000000000000000000000000000000000000900463ffffffff1680632079fb9a146100bf578063365e250b14610122578063487c20911461015d578063535133fd1461018e5780637b1039991461021c5780638be10194146102715780638da5cb5b1461036c578063af640d0f146103c1578063d3d7ee3e146103ea578063d7b4bbc814610423578063eb12d61e14610478578063f2fde38b146104b1575b600080fd5b34156100ca57600080fd5b6100e060048080359060200190919050506104ea565b604051808273ffffffffffffffffffffffffffffffffffffffff1673ffffffffffffffffffffffffffffffffffffffff16815260200191505060405180910390f35b341561012d57600080fd5b61015b6004808035600019169060200190919080359060200190820180359060200191909192905050610529565b005b341561016857600080fd5b610170610800565b60405180826000191660001916815260200191505060405180910390f35b341561019957600080fd5b6101a1610806565b6040518080602001828103825283818151815260200191508051906020019080838360005b838110156101e15780820151818401526020810190506101c6565b50505050905090810190601f16801561020e5780820380516001836020036101000a031916815260200191505b509250505060405180910390f35b341561022757600080fd5b61022f6108a4565b604051808273ffffffffffffffffffffffffffffffffffffffff1673ffffffffffffffffffffffffffffffffffffffff16815260200191505060405180910390f35b341561027c57600080fd5b61029260048080359060200190919050506108ca565b604051808473ffffffffffffffffffffffffffffffffffffffff1673ffffffffffffffffffffffffffffffffffffffff16815260200183600019166000191681526020018060200182810382528381815460018160011615610100020316600290048152602001915080546001816001161561010002031660029004801561035b5780601f106103305761010080835404028352916020019161035b565b820191906000526020600020905b81548152906001019060200180831161033e57829003601f168201915b505094505050505060405180910390f35b341561037757600080fd5b61037f610922565b604051808273ffffffffffffffffffffffffffffffffffffffff1673ffffffffffffffffffffffffffffffffffffffff16815260200191505060405180910390f35b34156103cc57600080fd5b6103d4610947565b6040518082815260200191505060405180910390f35b34156103f557600080fd5b610421600480803573ffffffffffffffffffffffffffffffffffffffff1690602001909190505061094d565b005b341561042e57600080fd5b610436610aa5565b604051808273ffffffffffffffffffffffffffffffffffffffff1673ffffffffffffffffffffffffffffffffffffffff16815260200191505060405180910390f35b341561048357600080fd5b6104af600480803573ffffffffffffffffffffffffffffffffffffffff16906020019091905050610acb565b005b34156104bc57600080fd5b6104e8600480803573ffffffffffffffffffffffffffffffffffffffff16906020019091905050610e03565b005b6005818154811015156104f957fe5b90600052602060002090016000915054906101000a900473ffffffffffffffffffffffffffffffffffffffff1681565b600061053433610f59565b151561053f57600080fd5b61054833610ffd565b15151561055457600080fd5b3373ffffffffffffffffffffffffffffffffffffffff1673__ECRecovery____________________________6319045a258686866000604051602001526040518463ffffffff167c0100000000000000000000000000000000000000000000000000000000028152600401808460001916600019168152602001806020018281038252848482818152602001925080828437820191505094505050505060206040518083038186803b151561060857600080fd5b6102c65a03f4151561061957600080fd5b5050506040518051905073ffffffffffffffffffffffffffffffffffffffff1614151561064557600080fd5b6006805480600101828161065991906110a7565b916000526020600020906003020160006060604051908101604052803373ffffffffffffffffffffffffffffffffffffffff1681526020018860001916815260200187878080601f016020809104026020016040519081016040528093929190818152602001838380828437820191505050505050815250909190915060008201518160000160006101000a81548173ffffffffffffffffffffffffffffffffffffffff021916908373ffffffffffffffffffffffffffffffffffffffff1602179055506020820151816001019060001916905560408201518160020190805190602001906107499291906110d9565b50505090507f853d14480561223bcf0c9e2441f3eff05abbcfaee4929223da58a69d92214873303383600680549050604051808573ffffffffffffffffffffffffffffffffffffffff1673ffffffffffffffffffffffffffffffffffffffff1681526020018473ffffffffffffffffffffffffffffffffffffffff1673ffffffffffffffffffffffffffffffffffffffff16815260200183815260200182815260200194505050505060405180910390a150505050565b60045481565b60038054600181600116156101000203166002900480601f01602080910402602001604051908101604052809291908181526020018280546001816001161561010002031660029004801561089c5780601f106108715761010080835404028352916020019161089c565b820191906000526020600020905b81548152906001019060200180831161087f57829003601f168201915b505050505081565b600160009054906101000a900473ffffffffffffffffffffffffffffffffffffffff1681565b6006818154811015156108d957fe5b90600052602060002090600302016000915090508060000160009054906101000a900473ffffffffffffffffffffffffffffffffffffffff169080600101549080600201905083565b6000809054906101000a900473ffffffffffffffffffffffffffffffffffffffff1681565b60025481565b600160009054906101000a900473ffffffffffffffffffffffffffffffffffffffff1673ffffffffffffffffffffffffffffffffffffffff163373ffffffffffffffffffffffffffffffffffffffff161415156109a957600080fd5b600073ffffffffffffffffffffffffffffffffffffffff168173ffffffffffffffffffffffffffffffffffffffff16141515156109e557600080fd5b8073ffffffffffffffffffffffffffffffffffffffff16600160009054906101000a900473ffffffffffffffffffffffffffffffffffffffff1673ffffffffffffffffffffffffffffffffffffffff167f8755b4ea006e11f39ff16bce682fa637f15d03dd0d81c6f820a7ca2511b5bfd460405160405180910390a380600160006101000a81548173ffffffffffffffffffffffffffffffffffffffff021916908373ffffffffffffffffffffffffffffffffffffffff16021790555050565b600760009054906101000a900473ffffffffffffffffffffffffffffffffffffffff1681565b60008060009054906101000a900473ffffffffffffffffffffffffffffffffffffffff1673ffffffffffffffffffffffffffffffffffffffff163373ffffffffffffffffffffffffffffffffffffffff16141515610b2857600080fd5b600760009054906101000a900473ffffffffffffffffffffffffffffffffffffffff1673ffffffffffffffffffffffffffffffffffffffff166328a4cc30836040518263ffffffff167c0100000000000000000000000000000000000000000000000000000000028152600401808273ffffffffffffffffffffffffffffffffffffffff1673ffffffffffffffffffffffffffffffffffffffff168152602001915050600060405180830381600087803b1515610be457600080fd5b6102c65a03f11515610bf557600080fd5b505050600760009054906101000a900473ffffffffffffffffffffffffffffffffffffffff1673ffffffffffffffffffffffffffffffffffffffff166313e32bdb836040518263ffffffff167c0100000000000000000000000000000000000000000000000000000000028152600401808273ffffffffffffffffffffffffffffffffffffffff1673ffffffffffffffffffffffffffffffffffffffff168152602001915050600060405180830381600087803b1515610cb457600080fd5b6102c65a03f11515610cc557600080fd5b50505060058054806001018281610cdc9190611159565b9160005260206000209001600084909190916101000a81548173ffffffffffffffffffffffffffffffffffffffff021916908373ffffffffffffffffffffffffffffffffffffffff16021790555090507f24dcea8c6829d2830313a24c986ed795f78c1f1713f006f2578356baf2d1c43b30338484604051808573ffffffffffffffffffffffffffffffffffffffff1673ffffffffffffffffffffffffffffffffffffffff1681526020018473ffffffffffffffffffffffffffffffffffffffff1673ffffffffffffffffffffffffffffffffffffffff1681526020018373ffffffffffffffffffffffffffffffffffffffff1673ffffffffffffffffffffffffffffffffffffffff16815260200182815260200194505050505060405180910390a15050565b600160009054906101000a900473ffffffffffffffffffffffffffffffffffffffff1673ffffffffffffffffffffffffffffffffffffffff163373ffffffffffffffffffffffffffffffffffffffff16141515610e5f57600080fd5b600073ffffffffffffffffffffffffffffffffffffffff168173ffffffffffffffffffffffffffffffffffffffff1614151515610e9b57600080fd5b8073ffffffffffffffffffffffffffffffffffffffff166000809054906101000a900473ffffffffffffffffffffffffffffffffffffffff1673ffffffffffffffffffffffffffffffffffffffff167f8be0079c531659141344cd1fd0a4f28419497f9722a3daafe3b4186f6b6457e060405160405180910390a3806000806101000a81548173ffffffffffffffffffffffffffffffffffffffff021916908373ffffffffffffffffffffffffffffffffffffffff16021790555050565b600080600090505b600580549050811015610ff2578273ffffffffffffffffffffffffffffffffffffffff16600582815481101515610f9457fe5b906000526020600020900160009054906101000a900473ffffffffffffffffffffffffffffffffffffffff1673ffffffffffffffffffffffffffffffffffffffff161415610fe55760019150610ff7565b8080600101915050610f61565b600091505b50919050565b600080600090505b60068054905081101561109c578273ffffffffffffffffffffffffffffffffffffffff1660068281548110151561103857fe5b906000526020600020906003020160000160009054906101000a900473ffffffffffffffffffffffffffffffffffffffff1673ffffffffffffffffffffffffffffffffffffffff16141561108f57600191506110a1565b8080600101915050611005565b600091505b50919050565b8154818355818115116110d4576003028160030283600052602060002091820191016110d39190611185565b5b505050565b828054600181600116156101000203166002900490600052602060002090601f016020900481019282601f1061111a57805160ff1916838001178555611148565b82800160010185558215611148579182015b8281111561114757825182559160200191906001019061112c565b5b50905061115591906111e3565b5090565b8154818355818115116111805781836000526020600020918201910161117f91906111e3565b5b505050565b6111e091905b808211156111dc57600080820160006101000a81549073ffffffffffffffffffffffffffffffffffffffff021916905560018201600090556002820160006111d39190611208565b5060030161118b565b5090565b90565b61120591905b808211156112015760008160009055506001016111e9565b5090565b90565b50805460018160011615610100020316600290046000825580601f1061122e575061124d565b601f01602090049060005260206000209081019061124c91906111e3565b5b505600a165627a7a72305820599e1a7e1a3dab0b182dafb5dd052d03307f9b673e32c0aff1a52806d6b52ca80029",
  "source": "pragma solidity ^0.4.18;\r\n\r\nimport './SignableDocument.sol';\r\n\r\nimport './CustomOwnership.sol';\r\n\r\nimport 'zeppelin-solidity/contracts/ECRecovery.sol';\r\n\r\nimport './SelfSignatureVerifiable.sol';\r\n\r\nimport './IdentitiesIntf.sol';\r\n\r\n\r\ncontract Document is CustomOwnership, SignableDocument {\r\n\r\n    struct Signatory {\r\n        address signer;\r\n        bytes32 hash;\r\n        bytes signature;\r\n    }\r\n\r\n\r\n    uint256 public id;\r\n\r\n    string public docName;\r\n\r\n    bytes32 public checksum;\r\n\r\n    address[] public signers;\r\n\r\n    Signatory[] public signatures;\r\n\r\n    IdentitiesIntf public identitiesAdd;\r\n\r\n    event DocumentSigned(address docAddress, address signer, uint totalSigned, uint signersCount);\r\n\r\n    event SignerAdded(address docAddress, address owner, address signer, uint signersCount);\r\n\r\n\r\n    function Document(uint256 _id, string _docName, bytes32 _checksum, address _owner, address _identitiesAdd) public {\r\n        id = _id;\r\n        docName = _docName;\r\n        checksum = _checksum;\r\n        owner = _owner;\r\n        identitiesAdd = IdentitiesIntf(_identitiesAdd);\r\n    }\r\n\r\n    function addSigner(address signer) external onlyOwner {\r\n        identitiesAdd.checkVerifiedRole(signer);\r\n        identitiesAdd.checkSignerRole(signer);\r\n        uint length = signers.push(signer);\r\n\r\n        SignerAdded(address(this), msg.sender, signer, length);\r\n    }\r\n\r\n    function sign(bytes32 hash, bytes sig) external {\r\n        require(isSigner(msg.sender));\r\n        require(!hasSigned(msg.sender));\r\n        require(ECRecovery.recover(hash, sig) == msg.sender);\r\n\r\n        uint totalSigned = signatures.push(Signatory(msg.sender, hash, sig));\r\n\r\n        DocumentSigned(address(this), msg.sender, totalSigned, signatures.length);\r\n    }\r\n\r\n    function isSigner(address signerAddress) internal view returns (bool){\r\n        for (uint i = 0; i < signers.length; i++) {\r\n            if (signers[i] == signerAddress) {\r\n                return true;\r\n            }\r\n        }\r\n\r\n        return false;\r\n    }\r\n\r\n    function hasSigned(address signerAddress) internal view returns (bool) {\r\n        for (uint i = 0; i < signatures.length; i++) {\r\n            if (signatures[i].signer == signerAddress) {\r\n                return true;\r\n            }\r\n        }\r\n\r\n        return false;\r\n    }\r\n\r\n\r\n}\r\n",
  "sourcePath": "C:\\Users\\User.Admin\\Desktop\\sol-workspace\\document-management-smc\\contracts\\Document.sol",
  "compiler": {
    "name": "solc",
    "version": "0.4.18+commit.9cf6e910.Emscripten.clang"
  },
  "schemaVersion": "1.0.1",
  "updatedAt": "2018-04-27T05:09:46.749Z"
}