{
  "contractName": "Identities",
  "abi": [
    {
      "constant": true,
      "inputs": [
        {
          "name": "addr",
          "type": "address"
        },
        {
          "name": "roleName",
          "type": "string"
        }
      ],
      "name": "checkRole",
      "outputs": [],
      "payable": false,
      "stateMutability": "view",
      "type": "function"
    },
    {
      "constant": false,
      "inputs": [
        {
          "name": "identity",
          "type": "address"
        }
      ],
      "name": "reqIdnVerification",
      "outputs": [],
      "payable": false,
      "stateMutability": "nonpayable",
      "type": "function"
    },
    {
      "constant": true,
      "inputs": [
        {
          "name": "addr",
          "type": "address"
        }
      ],
      "name": "checkSignerRole",
      "outputs": [],
      "payable": false,
      "stateMutability": "view",
      "type": "function"
    },
    {
      "constant": true,
      "inputs": [
        {
          "name": "addr",
          "type": "address"
        },
        {
          "name": "roleName",
          "type": "string"
        }
      ],
      "name": "hasRole",
      "outputs": [
        {
          "name": "",
          "type": "bool"
        }
      ],
      "payable": false,
      "stateMutability": "view",
      "type": "function"
    },
    {
      "constant": true,
      "inputs": [
        {
          "name": "addr",
          "type": "address"
        }
      ],
      "name": "checkVerifiedRole",
      "outputs": [],
      "payable": false,
      "stateMutability": "view",
      "type": "function"
    },
    {
      "constant": false,
      "inputs": [
        {
          "name": "user",
          "type": "address"
        },
        {
          "name": "identity",
          "type": "address"
        }
      ],
      "name": "verifyIdentity",
      "outputs": [],
      "payable": false,
      "stateMutability": "nonpayable",
      "type": "function"
    },
    {
      "constant": true,
      "inputs": [
        {
          "name": "",
          "type": "uint256"
        }
      ],
      "name": "requests",
      "outputs": [
        {
          "name": "user",
          "type": "address"
        },
        {
          "name": "identity",
          "type": "address"
        },
        {
          "name": "blockTimestamp",
          "type": "uint256"
        }
      ],
      "payable": false,
      "stateMutability": "view",
      "type": "function"
    },
    {
      "constant": false,
      "inputs": [
        {
          "name": "addr",
          "type": "address"
        },
        {
          "name": "roleName",
          "type": "string"
        }
      ],
      "name": "adminRemoveRole",
      "outputs": [],
      "payable": false,
      "stateMutability": "nonpayable",
      "type": "function"
    },
    {
      "constant": true,
      "inputs": [],
      "name": "owner",
      "outputs": [
        {
          "name": "",
          "type": "address"
        }
      ],
      "payable": false,
      "stateMutability": "view",
      "type": "function"
    },
    {
      "constant": false,
      "inputs": [
        {
          "name": "addr",
          "type": "address"
        },
        {
          "name": "roleName",
          "type": "string"
        }
      ],
      "name": "adminAddRole",
      "outputs": [],
      "payable": false,
      "stateMutability": "nonpayable",
      "type": "function"
    },
    {
      "constant": true,
      "inputs": [
        {
          "name": "",
          "type": "address"
        }
      ],
      "name": "unverifiedIdentities",
      "outputs": [
        {
          "name": "",
          "type": "address"
        }
      ],
      "payable": false,
      "stateMutability": "view",
      "type": "function"
    },
    {
      "constant": true,
      "inputs": [],
      "name": "ROLE_ADMIN",
      "outputs": [
        {
          "name": "",
          "type": "string"
        }
      ],
      "payable": false,
      "stateMutability": "view",
      "type": "function"
    },
    {
      "constant": true,
      "inputs": [
        {
          "name": "addr",
          "type": "address"
        }
      ],
      "name": "checkCreatorRole",
      "outputs": [],
      "payable": false,
      "stateMutability": "view",
      "type": "function"
    },
    {
      "constant": true,
      "inputs": [
        {
          "name": "ndx",
          "type": "uint256"
        }
      ],
      "name": "singleVerRequest",
      "outputs": [
        {
          "name": "",
          "type": "address"
        },
        {
          "name": "",
          "type": "address"
        },
        {
          "name": "",
          "type": "uint256"
        }
      ],
      "payable": false,
      "stateMutability": "view",
      "type": "function"
    },
    {
      "constant": false,
      "inputs": [
        {
          "name": "newOwner",
          "type": "address"
        }
      ],
      "name": "transferOwnership",
      "outputs": [],
      "payable": false,
      "stateMutability": "nonpayable",
      "type": "function"
    },
    {
      "constant": true,
      "inputs": [
        {
          "name": "",
          "type": "address"
        }
      ],
      "name": "identities",
      "outputs": [
        {
          "name": "",
          "type": "address"
        }
      ],
      "payable": false,
      "stateMutability": "view",
      "type": "function"
    },
    {
      "constant": true,
      "inputs": [],
      "name": "requestsCount",
      "outputs": [
        {
          "name": "",
          "type": "uint256"
        }
      ],
      "payable": false,
      "stateMutability": "view",
      "type": "function"
    },
    {
      "inputs": [],
      "payable": false,
      "stateMutability": "nonpayable",
      "type": "constructor"
    },
    {
      "anonymous": false,
      "inputs": [
        {
          "indexed": false,
          "name": "verifier",
          "type": "address"
        },
        {
          "indexed": false,
          "name": "user",
          "type": "address"
        },
        {
          "indexed": false,
          "name": "identity",
          "type": "address"
        }
      ],
      "name": "IdentityVerified",
      "type": "event"
    },
    {
      "anonymous": false,
      "inputs": [
        {
          "indexed": false,
          "name": "sender",
          "type": "address"
        },
        {
          "indexed": false,
          "name": "identity",
          "type": "address"
        }
      ],
      "name": "IdentityVerificationRequested",
      "type": "event"
    },
    {
      "anonymous": false,
      "inputs": [
        {
          "indexed": false,
          "name": "admin",
          "type": "address"
        },
        {
          "indexed": false,
          "name": "user",
          "type": "address"
        },
        {
          "indexed": false,
          "name": "role",
          "type": "string"
        }
      ],
      "name": "RoleAdded",
      "type": "event"
    },
    {
      "anonymous": false,
      "inputs": [
        {
          "indexed": false,
          "name": "admin",
          "type": "address"
        },
        {
          "indexed": false,
          "name": "user",
          "type": "address"
        },
        {
          "indexed": false,
          "name": "role",
          "type": "string"
        }
      ],
      "name": "RoleRemoved",
      "type": "event"
    },
    {
      "anonymous": false,
      "inputs": [
        {
          "indexed": false,
          "name": "addr",
          "type": "address"
        },
        {
          "indexed": false,
          "name": "roleName",
          "type": "string"
        }
      ],
      "name": "RoleAdded",
      "type": "event"
    },
    {
      "anonymous": false,
      "inputs": [
        {
          "indexed": false,
          "name": "addr",
          "type": "address"
        },
        {
          "indexed": false,
          "name": "roleName",
          "type": "string"
        }
      ],
      "name": "RoleRemoved",
      "type": "event"
    },
    {
      "anonymous": false,
      "inputs": [
        {
          "indexed": true,
          "name": "previousOwner",
          "type": "address"
        },
        {
          "indexed": true,
          "name": "newOwner",
          "type": "address"
        }
      ],
      "name": "OwnershipTransferred",
      "type": "event"
    }
  ],
  "bytecode": "0x606060405234156200001057600080fd5b336000806101000a81548173ffffffffffffffffffffffffffffffffffffffff021916908373ffffffffffffffffffffffffffffffffffffffff160217905550620000a5336040805190810160405280600581526020017f61646d696e000000000000000000000000000000000000000000000000000000815250620000ab6401000000000262001940176401000000009004565b6200026f565b6200013a826001836040518082805190602001908083835b602083101515620000ea5780518252602082019150602081019050602083039250620000c3565b6001836020036101000a0380198251168184511680821785525050505050509050019150509081526020016040518091039020620002116401000000000262001aef179091906401000000009004565b7fbfec83d64eaa953f2708271a023ab9ee82057f8f3578d548c1a4ba0b5b7004898282604051808373ffffffffffffffffffffffffffffffffffffffff1673ffffffffffffffffffffffffffffffffffffffff16815260200180602001828103825283818151815260200191508051906020019080838360005b83811015620001d1578082015181840152602081019050620001b4565b50505050905090810190601f168015620001ff5780820380516001836020036101000a031916815260200191505b50935050505060405180910390a15050565b60018260000160008373ffffffffffffffffffffffffffffffffffffffff1673ffffffffffffffffffffffffffffffffffffffff16815260200190815260200160002060006101000a81548160ff0219169083151502179055505050565b611c52806200027f6000396000f3006060604052600436106100f1576000357c0100000000000000000000000000000000000000000000000000000000900463ffffffff1680630988ca8c146100f65780630c5ac8401461017257806313e32bdb146101ab578063217fe6c6146101e457806328a4cc3014610278578063528929a3146102b157806381d12c581461030957806388cee87e146103a65780638da5cb5b14610422578063b25fa92c14610477578063c1d274b4146104f3578063d391014b1461056c578063d8a0b2e0146105fa578063de0078c314610633578063f2fde38b146106d0578063f653b81e14610709578063fbfa4b7f14610782575b600080fd5b341561010157600080fd5b610170600480803573ffffffffffffffffffffffffffffffffffffffff1690602001909190803590602001908201803590602001908080601f016020809104026020016040519081016040528093929190818152602001838380828437820191505050505050919050506107ab565b005b341561017d57600080fd5b6101a9600480803573ffffffffffffffffffffffffffffffffffffffff1690602001909190505061082c565b005b34156101b657600080fd5b6101e2600480803573ffffffffffffffffffffffffffffffffffffffff16906020019091905050610c44565b005b34156101ef57600080fd5b61025e600480803573ffffffffffffffffffffffffffffffffffffffff1690602001909190803590602001908201803590602001908080601f01602080910402602001604051908101604052809392919081815260200183838082843782019150505050505091905050610c86565b604051808215151515815260200191505060405180910390f35b341561028357600080fd5b6102af600480803573ffffffffffffffffffffffffffffffffffffffff16906020019091905050610d0d565b005b34156102bc57600080fd5b610307600480803573ffffffffffffffffffffffffffffffffffffffff1690602001909190803573ffffffffffffffffffffffffffffffffffffffff16906020019091905050610d4f565b005b341561031457600080fd5b61032a60048080359060200190919050506110fc565b604051808473ffffffffffffffffffffffffffffffffffffffff1673ffffffffffffffffffffffffffffffffffffffff1681526020018373ffffffffffffffffffffffffffffffffffffffff1673ffffffffffffffffffffffffffffffffffffffff168152602001828152602001935050505060405180910390f35b34156103b157600080fd5b610420600480803573ffffffffffffffffffffffffffffffffffffffff1690602001909190803590602001908201803590602001908080601f01602080910402602001604051908101604052809392919081815260200183838082843782019150505050505091905050611175565b005b341561042d57600080fd5b6104356111c2565b604051808273ffffffffffffffffffffffffffffffffffffffff1673ffffffffffffffffffffffffffffffffffffffff16815260200191505060405180910390f35b341561048257600080fd5b6104f1600480803573ffffffffffffffffffffffffffffffffffffffff1690602001909190803590602001908201803590602001908080601f016020809104026020016040519081016040528093929190818152602001838380828437820191505050505050919050506111e7565b005b34156104fe57600080fd5b61052a600480803573ffffffffffffffffffffffffffffffffffffffff16906020019091905050611234565b604051808273ffffffffffffffffffffffffffffffffffffffff1673ffffffffffffffffffffffffffffffffffffffff16815260200191505060405180910390f35b341561057757600080fd5b61057f611267565b6040518080602001828103825283818151815260200191508051906020019080838360005b838110156105bf5780820151818401526020810190506105a4565b50505050905090810190601f1680156105ec5780820380516001836020036101000a031916815260200191505b509250505060405180910390f35b341561060557600080fd5b610631600480803573ffffffffffffffffffffffffffffffffffffffff169060200190919050506112a0565b005b341561063e57600080fd5b61065460048080359060200190919050506112e2565b604051808473ffffffffffffffffffffffffffffffffffffffff1673ffffffffffffffffffffffffffffffffffffffff1681526020018373ffffffffffffffffffffffffffffffffffffffff1673ffffffffffffffffffffffffffffffffffffffff168152602001828152602001935050505060405180910390f35b34156106db57600080fd5b610707600480803573ffffffffffffffffffffffffffffffffffffffff16906020019091905050611397565b005b341561071457600080fd5b610740600480803573ffffffffffffffffffffffffffffffffffffffff169060200190919050506114ec565b604051808273ffffffffffffffffffffffffffffffffffffffff1673ffffffffffffffffffffffffffffffffffffffff16815260200191505060405180910390f35b341561078d57600080fd5b61079561151f565b6040518082815260200191505060405180910390f35b610828826001836040518082805190602001908083835b6020831015156107e757805182526020820191506020810190506020830392506107c2565b6001836020036101000a038019825116818451168082178552505050505050905001915050908152602001604051809103902061152c90919063ffffffff16565b5050565b600073ffffffffffffffffffffffffffffffffffffffff16600260003373ffffffffffffffffffffffffffffffffffffffff1673ffffffffffffffffffffffffffffffffffffffff16815260200190815260200160002060009054906101000a900473ffffffffffffffffffffffffffffffffffffffff1673ffffffffffffffffffffffffffffffffffffffff161415156108c657600080fd5b600073ffffffffffffffffffffffffffffffffffffffff16600360003373ffffffffffffffffffffffffffffffffffffffff1673ffffffffffffffffffffffffffffffffffffffff16815260200190815260200160002060009054906101000a900473ffffffffffffffffffffffffffffffffffffffff1673ffffffffffffffffffffffffffffffffffffffff1614151561096057600080fd5b3373ffffffffffffffffffffffffffffffffffffffff168173ffffffffffffffffffffffffffffffffffffffff16638da5cb5b6000604051602001526040518163ffffffff167c0100000000000000000000000000000000000000000000000000000000028152600401602060405180830381600087803b15156109e357600080fd5b6102c65a03f115156109f457600080fd5b5050506040518051905073ffffffffffffffffffffffffffffffffffffffff16141515610a2057600080fd5b60048054806001018281610a349190611b4d565b916000526020600020906003020160006060604051908101604052803373ffffffffffffffffffffffffffffffffffffffff1681526020018573ffffffffffffffffffffffffffffffffffffffff16815260200142815250909190915060008201518160000160006101000a81548173ffffffffffffffffffffffffffffffffffffffff021916908373ffffffffffffffffffffffffffffffffffffffff16021790555060208201518160010160006101000a81548173ffffffffffffffffffffffffffffffffffffffff021916908373ffffffffffffffffffffffffffffffffffffffff1602179055506040820151816002015550505080600360003373ffffffffffffffffffffffffffffffffffffffff1673ffffffffffffffffffffffffffffffffffffffff16815260200190815260200160002060006101000a81548173ffffffffffffffffffffffffffffffffffffffff021916908373ffffffffffffffffffffffffffffffffffffffff1602179055507fa0a854e1efc619269c569f1f07b405520fdf17081229acf3a14a79b5a7b8ea523382604051808373ffffffffffffffffffffffffffffffffffffffff1673ffffffffffffffffffffffffffffffffffffffff1681526020018273ffffffffffffffffffffffffffffffffffffffff1673ffffffffffffffffffffffffffffffffffffffff1681526020019250505060405180910390a150565b610c83816040805190810160405280600681526020017f7369676e657200000000000000000000000000000000000000000000000000008152506107ab565b50565b6000610d05836001846040518082805190602001908083835b602083101515610cc45780518252602082019150602081019050602083039250610c9f565b6001836020036101000a038019825116818451168082178552505050505050905001915050908152602001604051809103902061154590919063ffffffff16565b905092915050565b610d4c816040805190810160405280600881526020017f76657269666965640000000000000000000000000000000000000000000000008152506107ab565b50565b610d8e336040805190810160405280600581526020017f61646d696e0000000000000000000000000000000000000000000000000000008152506107ab565b8173ffffffffffffffffffffffffffffffffffffffff168173ffffffffffffffffffffffffffffffffffffffff16638da5cb5b6000604051602001526040518163ffffffff167c0100000000000000000000000000000000000000000000000000000000028152600401602060405180830381600087803b1515610e1157600080fd5b6102c65a03f11515610e2257600080fd5b5050506040518051905073ffffffffffffffffffffffffffffffffffffffff16141515610e4e57600080fd5b600073ffffffffffffffffffffffffffffffffffffffff16600260008473ffffffffffffffffffffffffffffffffffffffff1673ffffffffffffffffffffffffffffffffffffffff16815260200190815260200160002060009054906101000a900473ffffffffffffffffffffffffffffffffffffffff1673ffffffffffffffffffffffffffffffffffffffff16141515610ee857600080fd5b80600260008473ffffffffffffffffffffffffffffffffffffffff1673ffffffffffffffffffffffffffffffffffffffff16815260200190815260200160002060006101000a81548173ffffffffffffffffffffffffffffffffffffffff021916908373ffffffffffffffffffffffffffffffffffffffff1602179055506000600360008473ffffffffffffffffffffffffffffffffffffffff1673ffffffffffffffffffffffffffffffffffffffff16815260200190815260200160002060006101000a81548173ffffffffffffffffffffffffffffffffffffffff021916908373ffffffffffffffffffffffffffffffffffffffff160217905550610fee8261159e565b61102d826040805190810160405280600881526020017f76657269666965640000000000000000000000000000000000000000000000008152506111e7565b7f64dbe0d4fd6f143cba53f80d61ad204ecf1c5d1b77e229965dbea0e5bb53188d338383604051808473ffffffffffffffffffffffffffffffffffffffff1673ffffffffffffffffffffffffffffffffffffffff1681526020018373ffffffffffffffffffffffffffffffffffffffff1673ffffffffffffffffffffffffffffffffffffffff1681526020018273ffffffffffffffffffffffffffffffffffffffff1673ffffffffffffffffffffffffffffffffffffffff168152602001935050505060405180910390a15050565b60048181548110151561110b57fe5b90600052602060002090600302016000915090508060000160009054906101000a900473ffffffffffffffffffffffffffffffffffffffff16908060010160009054906101000a900473ffffffffffffffffffffffffffffffffffffffff16908060020154905083565b6111b4336040805190810160405280600581526020017f61646d696e0000000000000000000000000000000000000000000000000000008152506107ab565b6111be82826117ef565b5050565b6000809054906101000a900473ffffffffffffffffffffffffffffffffffffffff1681565b611226336040805190810160405280600581526020017f61646d696e0000000000000000000000000000000000000000000000000000008152506107ab565b6112308282611940565b5050565b60036020528060005260406000206000915054906101000a900473ffffffffffffffffffffffffffffffffffffffff1681565b6040805190810160405280600581526020017f61646d696e00000000000000000000000000000000000000000000000000000081525081565b6112df816040805190810160405280600781526020017f63726561746f72000000000000000000000000000000000000000000000000008152506107ab565b50565b60008060006004848154811015156112f657fe5b906000526020600020906003020160000160009054906101000a900473ffffffffffffffffffffffffffffffffffffffff1660048581548110151561133757fe5b906000526020600020906003020160010160009054906101000a900473ffffffffffffffffffffffffffffffffffffffff1660048681548110151561137857fe5b9060005260206000209060030201600201549250925092509193909250565b6000809054906101000a900473ffffffffffffffffffffffffffffffffffffffff1673ffffffffffffffffffffffffffffffffffffffff163373ffffffffffffffffffffffffffffffffffffffff161415156113f257600080fd5b600073ffffffffffffffffffffffffffffffffffffffff168173ffffffffffffffffffffffffffffffffffffffff161415151561142e57600080fd5b8073ffffffffffffffffffffffffffffffffffffffff166000809054906101000a900473ffffffffffffffffffffffffffffffffffffffff1673ffffffffffffffffffffffffffffffffffffffff167f8be0079c531659141344cd1fd0a4f28419497f9722a3daafe3b4186f6b6457e060405160405180910390a3806000806101000a81548173ffffffffffffffffffffffffffffffffffffffff021916908373ffffffffffffffffffffffffffffffffffffffff16021790555050565b60026020528060005260406000206000915054906101000a900473ffffffffffffffffffffffffffffffffffffffff1681565b6000600480549050905090565b6115368282611545565b151561154157600080fd5b5050565b60008260000160008373ffffffffffffffffffffffffffffffffffffffff1673ffffffffffffffffffffffffffffffffffffffff16815260200190815260200160002060009054906101000a900460ff16905092915050565b60008090505b6004805490508110156117e0578173ffffffffffffffffffffffffffffffffffffffff166004828154811015156115d757fe5b906000526020600020906003020160000160009054906101000a900473ffffffffffffffffffffffffffffffffffffffff1673ffffffffffffffffffffffffffffffffffffffff1614156117d35760048181548110151561163457fe5b9060005260206000209060030201600080820160006101000a81549073ffffffffffffffffffffffffffffffffffffffff02191690556001820160006101000a81549073ffffffffffffffffffffffffffffffffffffffff02191690556002820160009055505060046001600480549050038154811015156116b257fe5b90600052602060002090600302016004828154811015156116cf57fe5b90600052602060002090600302016000820160009054906101000a900473ffffffffffffffffffffffffffffffffffffffff168160000160006101000a81548173ffffffffffffffffffffffffffffffffffffffff021916908373ffffffffffffffffffffffffffffffffffffffff1602179055506001820160009054906101000a900473ffffffffffffffffffffffffffffffffffffffff168160010160006101000a81548173ffffffffffffffffffffffffffffffffffffffff021916908373ffffffffffffffffffffffffffffffffffffffff1602179055506002820154816002015590505060048054809190600190036117cd9190611b7f565b506117eb565b80806001019150506115a4565b600015156117ea57fe5b5b5050565b61186c826001836040518082805190602001908083835b60208310151561182b5780518252602082019150602081019050602083039250611806565b6001836020036101000a0380198251168184511680821785525050505050509050019150509081526020016040518091039020611a9190919063ffffffff16565b7fd211483f91fc6eff862467f8de606587a30c8fc9981056f051b897a418df803a8282604051808373ffffffffffffffffffffffffffffffffffffffff1673ffffffffffffffffffffffffffffffffffffffff16815260200180602001828103825283818151815260200191508051906020019080838360005b838110156119015780820151818401526020810190506118e6565b50505050905090810190601f16801561192e5780820380516001836020036101000a031916815260200191505b50935050505060405180910390a15050565b6119bd826001836040518082805190602001908083835b60208310151561197c5780518252602082019150602081019050602083039250611957565b6001836020036101000a0380198251168184511680821785525050505050509050019150509081526020016040518091039020611aef90919063ffffffff16565b7fbfec83d64eaa953f2708271a023ab9ee82057f8f3578d548c1a4ba0b5b7004898282604051808373ffffffffffffffffffffffffffffffffffffffff1673ffffffffffffffffffffffffffffffffffffffff16815260200180602001828103825283818151815260200191508051906020019080838360005b83811015611a52578082015181840152602081019050611a37565b50505050905090810190601f168015611a7f5780820380516001836020036101000a031916815260200191505b50935050505060405180910390a15050565b60008260000160008373ffffffffffffffffffffffffffffffffffffffff1673ffffffffffffffffffffffffffffffffffffffff16815260200190815260200160002060006101000a81548160ff0219169083151502179055505050565b60018260000160008373ffffffffffffffffffffffffffffffffffffffff1673ffffffffffffffffffffffffffffffffffffffff16815260200190815260200160002060006101000a81548160ff0219169083151502179055505050565b815481835581811511611b7a57600302816003028360005260206000209182019101611b799190611bb1565b5b505050565b815481835581811511611bac57600302816003028360005260206000209182019101611bab9190611bb1565b5b505050565b611c2391905b80821115611c1f57600080820160006101000a81549073ffffffffffffffffffffffffffffffffffffffff02191690556001820160006101000a81549073ffffffffffffffffffffffffffffffffffffffff0219169055600282016000905550600301611bb7565b5090565b905600a165627a7a7230582080016061c867283e82a98944abed3945fce56a5b0744b92533ec3af7a0a443c00029",
  "source": "pragma solidity ^0.4.18;\r\n\r\nimport 'zeppelin-solidity/contracts/ownership/Ownable.sol';\r\n\r\nimport 'zeppelin-solidity/contracts/ownership/rbac/RBAC.sol';\r\n\r\n/**\r\n@title Identities\r\n@author Eldon Hipolito\r\n@dev This contract is used as a registry for identities, and acts as the role based access control.\r\n*/\r\ncontract Identities is Ownable, RBAC {\r\n\r\n\r\n    struct VerificationData {\r\n        address user;\r\n        address identity;\r\n        uint256 blockTimestamp;\r\n    }\r\n\r\n    // Mapping of user address to identity\r\n    mapping(address => address) public identities;\r\n\r\n    // Mapping of user address to identity\r\n    mapping(address => address) public unverifiedIdentities;\r\n\r\n    // Requests for verification\r\n    VerificationData[] public requests;\r\n\r\n    string constant ROLE_VERIFIED_IDENTITY = \"verified\";\r\n\r\n    string constant ROLE_DOCUMENT_SIGNER = \"signer\";\r\n\r\n    string constant ROLE_DOCUMENT_CREATOR = \"creator\";\r\n\r\n    /**\r\n    @dev ctor\r\n    */\r\n    function Identities() public {\r\n\r\n    }\r\n\r\n    event IdentityVerified(address verifier, address user, address identity);\r\n\r\n    event IdentityVerificationRequested(address sender, address identity);\r\n\r\n    event RoleAdded(address admin, address user, string role);\r\n\r\n    event RoleRemoved(address admin, address user, string role);\r\n\r\n\r\n    /**\r\n        @dev Verifies an identity. Only accessible by an admin\r\n        @param user - address of the user\r\n        @param identity - identity of the user\r\n    */\r\n    function verifyIdentity(address user, address identity) public onlyAdmin {\r\n        require(Ownable(identity).owner() == user);\r\n        require(identities[user] == address(0));\r\n\r\n        identities[user] = identity;\r\n        unverifiedIdentities[user] = address(0);\r\n        rmvUnverifiedIdn(user);\r\n        adminAddRole(user, ROLE_VERIFIED_IDENTITY);\r\n        IdentityVerified(msg.sender, user, identity);\r\n    }\r\n\r\n    /**\r\n        @dev Removes the unverified identity from the requests.\r\n        @param user - address of the user\r\n    */\r\n    function rmvUnverifiedIdn(address user) internal {\r\n        for(uint i = 0; i < requests.length; i++) {\r\n            if(requests[i].user == user) {\r\n                delete requests[i];\r\n                requests[i] = requests[requests.length - 1];\r\n                requests.length--;\r\n                return;\r\n            }\r\n        }\r\n        //Should not reach here...\r\n        assert(false);\r\n    }\r\n\r\n    /**\r\n        @dev Requests identity verification.\r\n        @param identity - identity of the user\r\n    */\r\n    function reqIdnVerification(address identity) external {\r\n        require(identities[msg.sender] == address(0));\r\n        require(unverifiedIdentities[msg.sender] == address(0));\r\n        require(Ownable(identity).owner() == msg.sender);\r\n\r\n        requests.push(VerificationData(msg.sender, identity, block.timestamp));\r\n        unverifiedIdentities[msg.sender] = identity;\r\n\r\n        IdentityVerificationRequested(msg.sender, identity);\r\n    }\r\n\r\n    function singleVerRequest(uint ndx) external view returns(address, address, uint256) {\r\n        return (requests[ndx].user, requests[ndx].identity, requests[ndx].blockTimestamp);\r\n    }\r\n\r\n    function requestsCount() external view returns(uint) {\r\n        return requests.length;\r\n    }\r\n\r\n\r\n    /**\r\n    @dev Will check if addr has verified role. Throws when false\r\n    @param addr - address of the user\r\n    */\r\n    function checkVerifiedRole(address addr) view public {\r\n        checkRole(addr, ROLE_VERIFIED_IDENTITY);\r\n    }\r\n    /**\r\n    @dev Will check if addr has signer role. Throws when false\r\n    @param addr - address of the user\r\n    */\r\n    function checkSignerRole(address addr) view public {\r\n        checkRole(addr, ROLE_DOCUMENT_SIGNER);\r\n    }\r\n    /**\r\n    @dev Will check if addr has creator role. Throws when false\r\n    @param addr - address of the user\r\n    */\r\n    function checkCreatorRole(address addr) view public {\r\n        checkRole(addr, ROLE_DOCUMENT_CREATOR);\r\n    }\r\n\r\n\r\n}\r\n\r\n",
  "sourcePath": "C:\\Users\\User.Admin\\Desktop\\sol-workspace\\document-management-smc\\contracts\\Identities.sol",
  "compiler": {
    "name": "solc",
    "version": "0.4.18+commit.9cf6e910.Emscripten.clang"
  },
  "schemaVersion": "1.0.1",
  "updatedAt": "2018-04-27T06:12:34.446Z"
}