{
  "contractName": "Identity",
  "abi": [
    {
      "constant": true,
      "inputs": [],
      "name": "name",
      "outputs": [
        {
          "name": "",
          "type": "string"
        }
      ],
      "payable": false,
      "stateMutability": "view",
      "type": "function"
    },
    {
      "constant": true,
      "inputs": [
        {
          "name": "hash",
          "type": "bytes32"
        },
        {
          "name": "sig",
          "type": "bytes"
        }
      ],
      "name": "authenticate",
      "outputs": [
        {
          "name": "",
          "type": "bool"
        }
      ],
      "payable": false,
      "stateMutability": "view",
      "type": "function"
    },
    {
      "constant": true,
      "inputs": [],
      "name": "userId",
      "outputs": [
        {
          "name": "",
          "type": "string"
        }
      ],
      "payable": false,
      "stateMutability": "view",
      "type": "function"
    },
    {
      "constant": true,
      "inputs": [],
      "name": "owner",
      "outputs": [
        {
          "name": "",
          "type": "address"
        }
      ],
      "payable": false,
      "stateMutability": "view",
      "type": "function"
    },
    {
      "constant": true,
      "inputs": [],
      "name": "docsAdd",
      "outputs": [
        {
          "name": "",
          "type": "address"
        }
      ],
      "payable": false,
      "stateMutability": "view",
      "type": "function"
    },
    {
      "constant": true,
      "inputs": [
        {
          "name": "hash",
          "type": "bytes32"
        },
        {
          "name": "sig",
          "type": "bytes"
        }
      ],
      "name": "isOwnSignature",
      "outputs": [
        {
          "name": "",
          "type": "bool"
        }
      ],
      "payable": false,
      "stateMutability": "view",
      "type": "function"
    },
    {
      "constant": true,
      "inputs": [],
      "name": "identitiesAdd",
      "outputs": [
        {
          "name": "",
          "type": "address"
        }
      ],
      "payable": false,
      "stateMutability": "view",
      "type": "function"
    },
    {
      "inputs": [
        {
          "name": "_userId",
          "type": "string"
        },
        {
          "name": "_name",
          "type": "string"
        },
        {
          "name": "_docsAdd",
          "type": "address"
        },
        {
          "name": "_identitiesAdd",
          "type": "address"
        }
      ],
      "payable": false,
      "stateMutability": "nonpayable",
      "type": "constructor"
    }
  ],
  "bytecode": "0x6060604052341561000f57600080fd5b60405161097a38038061097a83398101604052808051820191906020018051820191906020018051906020019091908051906020019091905050836000908051906020019061005f929190610143565b508260019080519060200190610076929190610143565b5033600260006101000a81548173ffffffffffffffffffffffffffffffffffffffff021916908373ffffffffffffffffffffffffffffffffffffffff16021790555081600360006101000a81548173ffffffffffffffffffffffffffffffffffffffff021916908373ffffffffffffffffffffffffffffffffffffffff16021790555080600460006101000a81548173ffffffffffffffffffffffffffffffffffffffff021916908373ffffffffffffffffffffffffffffffffffffffff160217905550505050506101e8565b828054600181600116156101000203166002900490600052602060002090601f016020900481019282601f1061018457805160ff19168380011785556101b2565b828001600101855582156101b2579182015b828111156101b1578251825591602001919060010190610196565b5b5090506101bf91906101c3565b5090565b6101e591905b808211156101e15760008160009055506001016101c9565b5090565b90565b610783806101f76000396000f300606060405260043610610083576000357c0100000000000000000000000000000000000000000000000000000000900463ffffffff16806306fdde031461008857806330ba1adf1461011657806358975919146101695780638da5cb5b146101f757806396e078f61461024c578063b5ddb3f4146102a1578063d7b4bbc8146102f4575b600080fd5b341561009357600080fd5b61009b610349565b6040518080602001828103825283818151815260200191508051906020019080838360005b838110156100db5780820151818401526020810190506100c0565b50505050905090810190601f1680156101085780820380516001836020036101000a031916815260200191505b509250505060405180910390f35b341561012157600080fd5b61014f60048080356000191690602001909190803590602001908201803590602001919091929050506103e7565b604051808215151515815260200191505060405180910390f35b341561017457600080fd5b61017c610534565b6040518080602001828103825283818151815260200191508051906020019080838360005b838110156101bc5780820151818401526020810190506101a1565b50505050905090810190601f1680156101e95780820380516001836020036101000a031916815260200191505b509250505060405180910390f35b341561020257600080fd5b61020a6105d2565b604051808273ffffffffffffffffffffffffffffffffffffffff1673ffffffffffffffffffffffffffffffffffffffff16815260200191505060405180910390f35b341561025757600080fd5b61025f6105f8565b604051808273ffffffffffffffffffffffffffffffffffffffff1673ffffffffffffffffffffffffffffffffffffffff16815260200191505060405180910390f35b34156102ac57600080fd5b6102da600480803560001916906020019091908035906020019082018035906020019190919290505061061e565b604051808215151515815260200191505060405180910390f35b34156102ff57600080fd5b610307610731565b604051808273ffffffffffffffffffffffffffffffffffffffff1673ffffffffffffffffffffffffffffffffffffffff16815260200191505060405180910390f35b60018054600181600116156101000203166002900480601f0160208091040260200160405190810160405280929190818152602001828054600181600116156101000203166002900480156103df5780601f106103b4576101008083540402835291602001916103df565b820191906000526020600020905b8154815290600101906020018083116103c257829003601f168201915b505050505081565b6000600260009054906101000a900473ffffffffffffffffffffffffffffffffffffffff1673ffffffffffffffffffffffffffffffffffffffff163373ffffffffffffffffffffffffffffffffffffffff1614151561044557600080fd5b3373ffffffffffffffffffffffffffffffffffffffff1673__ECRecovery____________________________6319045a258686866000604051602001526040518463ffffffff167c0100000000000000000000000000000000000000000000000000000000028152600401808460001916600019168152602001806020018281038252848482818152602001925080828437820191505094505050505060206040518083038186803b15156104f957600080fd5b6102c65a03f4151561050a57600080fd5b5050506040518051905073ffffffffffffffffffffffffffffffffffffffff161490509392505050565b60008054600181600116156101000203166002900480601f0160208091040260200160405190810160405280929190818152602001828054600181600116156101000203166002900480156105ca5780601f1061059f576101008083540402835291602001916105ca565b820191906000526020600020905b8154815290600101906020018083116105ad57829003601f168201915b505050505081565b600260009054906101000a900473ffffffffffffffffffffffffffffffffffffffff1681565b600360009054906101000a900473ffffffffffffffffffffffffffffffffffffffff1681565b6000600260009054906101000a900473ffffffffffffffffffffffffffffffffffffffff1673ffffffffffffffffffffffffffffffffffffffff1673__ECRecovery____________________________6319045a258686866000604051602001526040518463ffffffff167c0100000000000000000000000000000000000000000000000000000000028152600401808460001916600019168152602001806020018281038252848482818152602001925080828437820191505094505050505060206040518083038186803b15156106f657600080fd5b6102c65a03f4151561070757600080fd5b5050506040518051905073ffffffffffffffffffffffffffffffffffffffff161490509392505050565b600460009054906101000a900473ffffffffffffffffffffffffffffffffffffffff16815600a165627a7a723058200d2e4dd26eedf6430c5d597a462891b7bdee8168993579520e481d9275daba410029",
  "source": "pragma solidity ^0.4.18;\r\n\r\nimport 'zeppelin-solidity/contracts/ECRecovery.sol';\r\nimport './SignableDocument.sol';\r\nimport './SelfSignatureVerifiable.sol';\r\nimport './Documents.sol';\r\nimport './OwnableIntf.sol';\r\nimport './IdentitiesIntf.sol';\r\n\r\ncontract Identity is SelfSignatureVerifiable {\r\n\r\n    string public userId;\r\n\r\n    string public name;\r\n\r\n    address public owner;\r\n\r\n    Documents public docsAdd;\r\n\r\n    IdentitiesIntf public identitiesAdd;\r\n\r\n    modifier onlyOwner() {\r\n        require(msg.sender == owner);\r\n        _;\r\n    }\r\n\r\n    function Identity(string _userId, string _name, address _docsAdd, address _identitiesAdd) public {\r\n        userId = _userId;\r\n        name = _name;\r\n        owner = msg.sender;\r\n        docsAdd = Documents(_docsAdd);\r\n        identitiesAdd = IdentitiesIntf(_identitiesAdd);\r\n    }\r\n\r\n    // Acts as the sign-in function for the dapp\r\n    function authenticate(bytes32 hash, bytes sig) external view onlyOwner returns (bool) {\r\n        return ECRecovery.recover(hash, sig) == msg.sender;\r\n    }\r\n\r\n    // Function to check whether signature is done by this identity\r\n    function isOwnSignature(bytes32 hash, bytes sig) external view returns (bool) {\r\n        return ECRecovery.recover(hash, sig) == owner;\r\n    }\r\n\r\n\r\n}\r\n\r\n",
  "sourcePath": "C:\\Users\\User.Admin\\Desktop\\sol-workspace\\document-management-smc\\contracts\\Identity.sol",
  "compiler": {
    "name": "solc",
    "version": "0.4.18+commit.9cf6e910.Emscripten.clang"
  },
  "schemaVersion": "1.0.1",
  "updatedAt": "2018-04-03T03:29:25.379Z"
}