{
  "contractName": "Identity",
  "abi": [
    {
      "constant": true,
      "inputs": [],
      "name": "name",
      "outputs": [
        {
          "name": "",
          "type": "string"
        }
      ],
      "payable": false,
      "stateMutability": "view",
      "type": "function"
    },
    {
      "constant": false,
      "inputs": [
        {
          "name": "docAddress",
          "type": "address"
        },
        {
          "name": "hash",
          "type": "bytes32"
        },
        {
          "name": "sig",
          "type": "bytes"
        }
      ],
      "name": "signDocument",
      "outputs": [],
      "payable": false,
      "stateMutability": "nonpayable",
      "type": "function"
    },
    {
      "constant": true,
      "inputs": [
        {
          "name": "hash",
          "type": "bytes32"
        },
        {
          "name": "sig",
          "type": "bytes"
        }
      ],
      "name": "authenticate",
      "outputs": [
        {
          "name": "",
          "type": "bool"
        }
      ],
      "payable": false,
      "stateMutability": "view",
      "type": "function"
    },
    {
      "constant": true,
      "inputs": [],
      "name": "contractName",
      "outputs": [
        {
          "name": "",
          "type": "bytes32"
        }
      ],
      "payable": false,
      "stateMutability": "view",
      "type": "function"
    },
    {
      "constant": true,
      "inputs": [],
      "name": "owner",
      "outputs": [
        {
          "name": "",
          "type": "address"
        }
      ],
      "payable": false,
      "stateMutability": "view",
      "type": "function"
    },
    {
      "constant": true,
      "inputs": [
        {
          "name": "hash",
          "type": "bytes32"
        },
        {
          "name": "sig",
          "type": "bytes"
        }
      ],
      "name": "docFacAdd",
      "outputs": [
        {
          "name": "",
          "type": "address"
        }
      ],
      "payable": false,
      "stateMutability": "view",
      "type": "function"
    },
    {
      "constant": true,
      "inputs": [
        {
          "name": "hash",
          "type": "bytes32"
        },
        {
          "name": "sig",
          "type": "bytes"
        }
      ],
      "name": "isOwnSignature",
      "outputs": [
        {
          "name": "",
          "type": "bool"
        }
      ],
      "payable": false,
      "stateMutability": "view",
      "type": "function"
    },
    {
      "inputs": [
        {
          "name": "_docName",
          "type": "string"
        },
        {
          "name": "_checksum",
          "type": "bytes32"
        }
      ],
      "payable": false,
      "stateMutability": "nonpayable",
      "type": "function",
      "constant": false,
      "name": "createDocument",
      "outputs": []
    },
    {
      "inputs": [
        {
          "name": "_name",
          "type": "string"
        },
        {
          "name": "_docFacAdd",
          "type": "address"
        }
      ],
      "payable": false,
      "stateMutability": "nonpayable",
      "type": "constructor"
    },
    {
      "anonymous": false,
      "inputs": [
        {
          "indexed": false,
          "name": "id",
          "type": "uint256"
        },
        {
          "indexed": false,
          "name": "document",
          "type": "address"
        }
      ],
      "name": "DocumentCreated",
      "type": "event"
    }
  ],
  "bytecode": "0x6060604052341561000f57600080fd5b604051610ce0380380610ce08339810160405280805182019190602001805190602001909190505060405180807f4944454e5449545900000000000000000000000000000000000000000000000081525060080190506040518091039020806000816000191690555050816001908051906020019061008f929190610119565b5033600260006101000a81548173ffffffffffffffffffffffffffffffffffffffff021916908373ffffffffffffffffffffffffffffffffffffffff16021790555080600360006101000a81548173ffffffffffffffffffffffffffffffffffffffff021916908373ffffffffffffffffffffffffffffffffffffffff16021790555050506101be565b828054600181600116156101000203166002900490600052602060002090601f016020900481019282601f1061015a57805160ff1916838001178555610188565b82800160010185558215610188579182015b8281111561018757825182559160200191906001019061016c565b5b5090506101959190610199565b5090565b6101bb91905b808211156101b757600081600090555060010161019f565b5090565b90565b610b13806101cd6000396000f30060606040526004361061008e576000357c0100000000000000000000000000000000000000000000000000000000900463ffffffff16806306fdde03146100935780632bf91ad01461012157806330ba1adf146101aa57806375d0c0dc1461022c5780638da5cb5b1461025d578063a7f8a162146102b2578063b5ddb3f414610307578063c14c3fc814610389575b600080fd5b341561009e57600080fd5b6100a66103f3565b6040518080602001828103825283818151815260200191508051906020019080838360005b838110156100e65780820151818401526020810190506100cb565b50505050905090810190601f1680156101135780820380516001836020036101000a031916815260200191505b509250505060405180910390f35b341561012c57600080fd5b6101a8600480803573ffffffffffffffffffffffffffffffffffffffff169060200190919080356000191690602001909190803590602001908201803590602001908080601f01602080910402602001604051908101604052809392919081815260200183838082843782019150505050505091905050610491565b005b34156101b557600080fd5b61021260048080356000191690602001909190803590602001908201803590602001908080601f016020809104026020016040519081016040528093929190818152602001838380828437820191505050505050919050506105ef565b604051808215151515815260200191505060405180910390f35b341561023757600080fd5b61023f610786565b60405180826000191660001916815260200191505060405180910390f35b341561026857600080fd5b61027061078c565b604051808273ffffffffffffffffffffffffffffffffffffffff1673ffffffffffffffffffffffffffffffffffffffff16815260200191505060405180910390f35b34156102bd57600080fd5b6102c56107b2565b604051808273ffffffffffffffffffffffffffffffffffffffff1673ffffffffffffffffffffffffffffffffffffffff16815260200191505060405180910390f35b341561031257600080fd5b61036f60048080356000191690602001909190803590602001908201803590602001908080601f016020809104026020016040519081016040528093929190818152602001838380828437820191505050505050919050506107d8565b604051808215151515815260200191505060405180910390f35b341561039457600080fd5b6103f1600480803590602001908201803590602001908080601f0160208091040260200160405190810160405280939291908181526020018383808284378201915050505050509190803560001916906020019091905050610935565b005b60018054600181600116156101000203166002900480601f0160208091040260200160405190810160405280929190818152602001828054600181600116156101000203166002900480156104895780601f1061045e57610100808354040283529160200191610489565b820191906000526020600020905b81548152906001019060200180831161046c57829003601f168201915b505050505081565b6000600260009054906101000a900473ffffffffffffffffffffffffffffffffffffffff1673ffffffffffffffffffffffffffffffffffffffff163373ffffffffffffffffffffffffffffffffffffffff161415156104ef57600080fd5b8390508073ffffffffffffffffffffffffffffffffffffffff1663365e250b84846040518363ffffffff167c010000000000000000000000000000000000000000000000000000000002815260040180836000191660001916815260200180602001828103825283818151815260200191508051906020019080838360005b8381101561058957808201518184015260208101905061056e565b50505050905090810190601f1680156105b65780820380516001836020036101000a031916815260200191505b509350505050600060405180830381600087803b15156105d557600080fd5b6102c65a03f115156105e657600080fd5b50505050505050565b6000600260009054906101000a900473ffffffffffffffffffffffffffffffffffffffff1673ffffffffffffffffffffffffffffffffffffffff163373ffffffffffffffffffffffffffffffffffffffff1614151561064d57600080fd5b3373ffffffffffffffffffffffffffffffffffffffff1673__ECRecovery____________________________6319045a2585856000604051602001526040518363ffffffff167c010000000000000000000000000000000000000000000000000000000002815260040180836000191660001916815260200180602001828103825283818151815260200191508051906020019080838360005b838110156107025780820151818401526020810190506106e7565b50505050905090810190601f16801561072f5780820380516001836020036101000a031916815260200191505b50935050505060206040518083038186803b151561074c57600080fd5b6102c65a03f4151561075d57600080fd5b5050506040518051905073ffffffffffffffffffffffffffffffffffffffff1614905092915050565b60005481565b600260009054906101000a900473ffffffffffffffffffffffffffffffffffffffff1681565b600360009054906101000a900473ffffffffffffffffffffffffffffffffffffffff1681565b6000600260009054906101000a900473ffffffffffffffffffffffffffffffffffffffff1673ffffffffffffffffffffffffffffffffffffffff1673__ECRecovery____________________________6319045a2585856000604051602001526040518363ffffffff167c010000000000000000000000000000000000000000000000000000000002815260040180836000191660001916815260200180602001828103825283818151815260200191508051906020019080838360005b838110156108b1578082015181840152602081019050610896565b50505050905090810190601f1680156108de5780820380516001836020036101000a031916815260200191505b50935050505060206040518083038186803b15156108fb57600080fd5b6102c65a03f4151561090c57600080fd5b5050506040518051905073ffffffffffffffffffffffffffffffffffffffff1614905092915050565b6000806000915060009050600360009054906101000a900473ffffffffffffffffffffffffffffffffffffffff1673ffffffffffffffffffffffffffffffffffffffff1663c14c3fc885856000604051604001526040518363ffffffff167c010000000000000000000000000000000000000000000000000000000002815260040180806020018360001916600019168152602001828103825284818151815260200191508051906020019080838360005b83811015610a025780820151818401526020810190506109e7565b50505050905090810190601f168015610a2f5780820380516001836020036101000a031916815260200191505b5093505050506040805180830381600087803b1515610a4d57600080fd5b6102c65a03f11515610a5e57600080fd5b5050506040518051906020018051905080925081935050507f0b2a5978cb4e1b6b925e8b2ae4ae9260df1e55bb906253cb6b8e23b81801b8758282604051808381526020018273ffffffffffffffffffffffffffffffffffffffff1673ffffffffffffffffffffffffffffffffffffffff1681526020019250505060405180910390a1505050505600a165627a7a723058202b36084ee6064dce30732b8570c1ff297d20bde3516028825c363884299ae65e0029",
  "source": "pragma solidity 0.4.18;\r\n\r\nimport 'zeppelin-solidity/contracts/ECRecovery.sol';\r\n\r\nimport './SignableDocument.sol';\r\nimport './NamedContract.sol';\r\n\r\nimport './SelfSignatureVerifiable.sol';\r\n\r\nimport './DocumentFactoryIntf.sol';\r\n\r\ncontract Identity is NamedContract, SelfSignatureVerifiable {\r\n\r\n    string public name;\r\n\r\n    address public owner;\r\n\r\n    address public docFacAdd;\r\n\r\n\r\n    modifier onlyOwner() {\r\n        require(msg.sender == owner);\r\n        _;\r\n    }\r\n\r\n\r\n    event DocumentCreated(uint256 id, address document);\r\n\r\n\r\n    function Identity(string _name, address _docFacAdd) NamedContract(keccak256(\"IDENTITY\")) public {\r\n        name = _name;\r\n        owner = msg.sender;\r\n        docFacAdd = _docFacAdd;\r\n    }\r\n\r\n    // Acts as the sign-in function for the dapp\r\n    function authenticate(bytes32 hash, bytes sig) public constant onlyOwner returns (bool) {\r\n        return ECRecovery.recover(hash, sig) == msg.sender;\r\n    }\r\n\r\n    function isOwnSignature(bytes32 hash, bytes sig) public constant returns (bool) {\r\n        return ECRecovery.recover(hash, sig) == owner;\r\n    }\r\n\r\n    function signDocument(address docAddress, bytes32 hash, bytes sig) public onlyOwner {\r\n        SignableDocument document = SignableDocument(docAddress);\r\n        document.sign(hash, sig);\r\n    }\r\n\r\n\r\n    function createDocument(string _docName, bytes32 _checksum) public {\r\n        uint256 id = 0;\r\n        address docAdd = address(0);\r\n\r\n        (id, docAdd) = DocumentFactoryIntf(docFacAdd).createDocument(_docName, _checksum);\r\n\r\n        DocumentCreated(id, docAdd);\r\n    }\r\n\r\n\r\n\r\n\r\n}\r\n\r\n",
  "sourcePath": "C:\\Users\\User.Admin\\Desktop\\sol-workspace\\document-management-smc\\contracts\\Identity.sol",
  "compiler": {
    "name": "solc",
    "version": "0.4.18+commit.9cf6e910.Emscripten.clang"
  },
  "schemaVersion": "1.0.1",
  "updatedAt": "2018-03-15T08:02:42.446Z"
}