{
  "contractName": "Identity",
  "abi": [
    {
      "constant": true,
      "inputs": [],
      "name": "name",
      "outputs": [
        {
          "name": "",
          "type": "string"
        }
      ],
      "payable": false,
      "stateMutability": "view",
      "type": "function"
    },
    {
      "constant": false,
      "inputs": [
        {
          "name": "docAddress",
          "type": "address"
        },
        {
          "name": "hash",
          "type": "bytes32"
        },
        {
          "name": "sig",
          "type": "bytes"
        }
      ],
      "name": "signDocument",
      "outputs": [],
      "payable": false,
      "stateMutability": "nonpayable",
      "type": "function"
    },
    {
      "constant": true,
      "inputs": [
        {
          "name": "hash",
          "type": "bytes32"
        },
        {
          "name": "sig",
          "type": "bytes"
        }
      ],
      "name": "authenticate",
      "outputs": [
        {
          "name": "",
          "type": "bool"
        }
      ],
      "payable": false,
      "stateMutability": "view",
      "type": "function"
    },
    {
      "constant": true,
      "inputs": [],
      "name": "contractName",
      "outputs": [
        {
          "name": "",
          "type": "bytes32"
        }
      ],
      "payable": false,
      "stateMutability": "view",
      "type": "function"
    },
    {
      "constant": true,
      "inputs": [],
      "name": "owner",
      "outputs": [
        {
          "name": "",
          "type": "address"
        }
      ],
      "payable": false,
      "stateMutability": "view",
      "type": "function"
    },
    {
      "constant": true,
      "inputs": [
        {
          "name": "hash",
          "type": "bytes32"
        },
        {
          "name": "sig",
          "type": "bytes"
        }
      ],
      "name": "isOwnSignature",
      "outputs": [
        {
          "name": "",
          "type": "bool"
        }
      ],
      "payable": false,
      "stateMutability": "view",
      "type": "function"
    },
    {
      "constant": false,
      "inputs": [],
      "name": "createDocument",
      "outputs": [],
      "payable": false,
      "stateMutability": "nonpayable",
      "type": "function"
    },
    {
      "inputs": [
        {
          "name": "_name",
          "type": "string"
        }
      ],
      "payable": false,
      "stateMutability": "nonpayable",
      "type": "constructor"
    }
  ],
  "bytecode": "0x6060604052341561000f57600080fd5b604051610a07380380610a078339810160405280805182019190505060405180807f4944454e544954590000000000000000000000000000000000000000000000008152506008019050604051809103902080600081600019169055505080600190805190602001906100839291906100cb565b5033600260006101000a81548173ffffffffffffffffffffffffffffffffffffffff021916908373ffffffffffffffffffffffffffffffffffffffff16021790555050610170565b828054600181600116156101000203166002900490600052602060002090601f016020900481019282601f1061010c57805160ff191683800117855561013a565b8280016001018555821561013a579182015b8281111561013957825182559160200191906001019061011e565b5b509050610147919061014b565b5090565b61016d91905b80821115610169576000816000905550600101610151565b5090565b90565b6108888061017f6000396000f300606060405260043610610083576000357c0100000000000000000000000000000000000000000000000000000000900463ffffffff16806306fdde03146100885780632bf91ad01461011657806330ba1adf1461019f57806375d0c0dc146102215780638da5cb5b14610252578063b5ddb3f4146102a7578063d3f588df14610329575b600080fd5b341561009357600080fd5b61009b61033e565b6040518080602001828103825283818151815260200191508051906020019080838360005b838110156100db5780820151818401526020810190506100c0565b50505050905090810190601f1680156101085780820380516001836020036101000a031916815260200191505b509250505060405180910390f35b341561012157600080fd5b61019d600480803573ffffffffffffffffffffffffffffffffffffffff169060200190919080356000191690602001909190803590602001908201803590602001908080601f016020809104026020016040519081016040528093929190818152602001838380828437820191505050505050919050506103dc565b005b34156101aa57600080fd5b61020760048080356000191690602001909190803590602001908201803590602001908080601f0160208091040260200160405190810160405280939291908181526020018383808284378201915050505050509190505061053a565b604051808215151515815260200191505060405180910390f35b341561022c57600080fd5b6102346106d1565b60405180826000191660001916815260200191505060405180910390f35b341561025d57600080fd5b6102656106d7565b604051808273ffffffffffffffffffffffffffffffffffffffff1673ffffffffffffffffffffffffffffffffffffffff16815260200191505060405180910390f35b34156102b257600080fd5b61030f60048080356000191690602001909190803590602001908201803590602001908080601f016020809104026020016040519081016040528093929190818152602001838380828437820191505050505050919050506106fd565b604051808215151515815260200191505060405180910390f35b341561033457600080fd5b61033c61085a565b005b60018054600181600116156101000203166002900480601f0160208091040260200160405190810160405280929190818152602001828054600181600116156101000203166002900480156103d45780601f106103a9576101008083540402835291602001916103d4565b820191906000526020600020905b8154815290600101906020018083116103b757829003601f168201915b505050505081565b6000600260009054906101000a900473ffffffffffffffffffffffffffffffffffffffff1673ffffffffffffffffffffffffffffffffffffffff163373ffffffffffffffffffffffffffffffffffffffff1614151561043a57600080fd5b8390508073ffffffffffffffffffffffffffffffffffffffff1663365e250b84846040518363ffffffff167c010000000000000000000000000000000000000000000000000000000002815260040180836000191660001916815260200180602001828103825283818151815260200191508051906020019080838360005b838110156104d45780820151818401526020810190506104b9565b50505050905090810190601f1680156105015780820380516001836020036101000a031916815260200191505b509350505050600060405180830381600087803b151561052057600080fd5b6102c65a03f1151561053157600080fd5b50505050505050565b6000600260009054906101000a900473ffffffffffffffffffffffffffffffffffffffff1673ffffffffffffffffffffffffffffffffffffffff163373ffffffffffffffffffffffffffffffffffffffff1614151561059857600080fd5b3373ffffffffffffffffffffffffffffffffffffffff1673__ECRecovery____________________________6319045a2585856000604051602001526040518363ffffffff167c010000000000000000000000000000000000000000000000000000000002815260040180836000191660001916815260200180602001828103825283818151815260200191508051906020019080838360005b8381101561064d578082015181840152602081019050610632565b50505050905090810190601f16801561067a5780820380516001836020036101000a031916815260200191505b50935050505060206040518083038186803b151561069757600080fd5b6102c65a03f415156106a857600080fd5b5050506040518051905073ffffffffffffffffffffffffffffffffffffffff1614905092915050565b60005481565b600260009054906101000a900473ffffffffffffffffffffffffffffffffffffffff1681565b6000600260009054906101000a900473ffffffffffffffffffffffffffffffffffffffff1673ffffffffffffffffffffffffffffffffffffffff1673__ECRecovery____________________________6319045a2585856000604051602001526040518363ffffffff167c010000000000000000000000000000000000000000000000000000000002815260040180836000191660001916815260200180602001828103825283818151815260200191508051906020019080838360005b838110156107d65780820151818401526020810190506107bb565b50505050905090810190601f1680156108035780820380516001836020036101000a031916815260200191505b50935050505060206040518083038186803b151561082057600080fd5b6102c65a03f4151561083157600080fd5b5050506040518051905073ffffffffffffffffffffffffffffffffffffffff1614905092915050565b5600a165627a7a72305820bd14ad8e39a50e7196e821cdd5593e7ab49774cfec9955b6e9f5604c7809b3fe0029",
  "source": "pragma solidity 0.4.18;\r\n\r\nimport 'zeppelin-solidity/contracts/ECRecovery.sol';\r\n\r\nimport './SignableDocument.sol';\r\nimport './NamedContract.sol';\r\n\r\nimport './SelfSignatureVerifiable.sol';\r\n\r\n\r\ncontract Identity is NamedContract, SelfSignatureVerifiable {\r\n\r\n    string public name;\r\n\r\n    address public owner;\r\n\r\n\r\n    modifier onlyOwner() {\r\n        require(msg.sender == owner);\r\n        _;\r\n    }\r\n\r\n\r\n    function Identity(string _name) NamedContract(keccak256(\"IDENTITY\")) public {\r\n        name = _name;\r\n        owner = msg.sender;\r\n    }\r\n\r\n    // Acts as the sign-in function for the dapp\r\n    function authenticate(bytes32 hash, bytes sig) public constant onlyOwner returns (bool) {\r\n        return ECRecovery.recover(hash, sig) == msg.sender;\r\n    }\r\n\r\n    function isOwnSignature(bytes32 hash, bytes sig) public constant returns (bool) {\r\n        return ECRecovery.recover(hash, sig) == owner;\r\n    }\r\n\r\n    function signDocument(address docAddress, bytes32 hash, bytes sig) public onlyOwner {\r\n        SignableDocument document = SignableDocument(docAddress);\r\n        document.sign(hash, sig);\r\n    }\r\n\r\n    //TODO create document\r\n    function createDocument() public {\r\n        \r\n    }\r\n\r\n\r\n\r\n\r\n}\r\n\r\n",
  "sourcePath": "C:\\Users\\User.Admin\\Desktop\\sol-workspace\\document-management-smc\\contracts\\Identity.sol",
  "compiler": {
    "name": "solc",
    "version": "0.4.18+commit.9cf6e910.Emscripten.clang"
  },
  "schemaVersion": "1.0.1",
  "updatedAt": "2018-03-15T02:07:21.359Z"
}