{
  "contractName": "Identities",
  "abi": [
    {
      "constant": true,
      "inputs": [
        {
          "name": "addr",
          "type": "address"
        },
        {
          "name": "roleName",
          "type": "string"
        }
      ],
      "name": "checkRole",
      "outputs": [],
      "payable": false,
      "stateMutability": "view",
      "type": "function"
    },
    {
      "constant": false,
      "inputs": [
        {
          "name": "identity",
          "type": "address"
        }
      ],
      "name": "reqIdnVerification",
      "outputs": [],
      "payable": false,
      "stateMutability": "nonpayable",
      "type": "function"
    },
    {
      "constant": true,
      "inputs": [
        {
          "name": "addr",
          "type": "address"
        }
      ],
      "name": "checkSignerRole",
      "outputs": [],
      "payable": false,
      "stateMutability": "view",
      "type": "function"
    },
    {
      "constant": true,
      "inputs": [
        {
          "name": "addr",
          "type": "address"
        },
        {
          "name": "roleName",
          "type": "string"
        }
      ],
      "name": "hasRole",
      "outputs": [
        {
          "name": "",
          "type": "bool"
        }
      ],
      "payable": false,
      "stateMutability": "view",
      "type": "function"
    },
    {
      "constant": true,
      "inputs": [
        {
          "name": "addr",
          "type": "address"
        }
      ],
      "name": "checkVerifiedRole",
      "outputs": [],
      "payable": false,
      "stateMutability": "view",
      "type": "function"
    },
    {
      "constant": false,
      "inputs": [
        {
          "name": "_rbacAddress",
          "type": "address"
        }
      ],
      "name": "setRBACAddress",
      "outputs": [],
      "payable": false,
      "stateMutability": "nonpayable",
      "type": "function"
    },
    {
      "constant": false,
      "inputs": [
        {
          "name": "user",
          "type": "address"
        },
        {
          "name": "identity",
          "type": "address"
        }
      ],
      "name": "verifyIdentity",
      "outputs": [],
      "payable": false,
      "stateMutability": "nonpayable",
      "type": "function"
    },
    {
      "constant": true,
      "inputs": [],
      "name": "rbacAddress",
      "outputs": [
        {
          "name": "",
          "type": "address"
        }
      ],
      "payable": false,
      "stateMutability": "view",
      "type": "function"
    },
    {
      "constant": true,
      "inputs": [
        {
          "name": "",
          "type": "uint256"
        }
      ],
      "name": "requests",
      "outputs": [
        {
          "name": "user",
          "type": "address"
        },
        {
          "name": "identity",
          "type": "address"
        },
        {
          "name": "blockTimestamp",
          "type": "uint256"
        }
      ],
      "payable": false,
      "stateMutability": "view",
      "type": "function"
    },
    {
      "constant": false,
      "inputs": [
        {
          "name": "addr",
          "type": "address"
        },
        {
          "name": "roleName",
          "type": "string"
        }
      ],
      "name": "adminRemoveRole",
      "outputs": [],
      "payable": false,
      "stateMutability": "nonpayable",
      "type": "function"
    },
    {
      "constant": true,
      "inputs": [],
      "name": "owner",
      "outputs": [
        {
          "name": "",
          "type": "address"
        }
      ],
      "payable": false,
      "stateMutability": "view",
      "type": "function"
    },
    {
      "constant": false,
      "inputs": [
        {
          "name": "addr",
          "type": "address"
        },
        {
          "name": "roleName",
          "type": "string"
        }
      ],
      "name": "adminAddRole",
      "outputs": [],
      "payable": false,
      "stateMutability": "nonpayable",
      "type": "function"
    },
    {
      "constant": true,
      "inputs": [
        {
          "name": "",
          "type": "address"
        }
      ],
      "name": "unverifiedIdentities",
      "outputs": [
        {
          "name": "",
          "type": "address"
        }
      ],
      "payable": false,
      "stateMutability": "view",
      "type": "function"
    },
    {
      "constant": true,
      "inputs": [
        {
          "name": "addr",
          "type": "address"
        }
      ],
      "name": "checkCreatorRole",
      "outputs": [],
      "payable": false,
      "stateMutability": "view",
      "type": "function"
    },
    {
      "constant": false,
      "inputs": [
        {
          "name": "newOwner",
          "type": "address"
        }
      ],
      "name": "transferOwnership",
      "outputs": [],
      "payable": false,
      "stateMutability": "nonpayable",
      "type": "function"
    },
    {
      "constant": true,
      "inputs": [
        {
          "name": "",
          "type": "address"
        }
      ],
      "name": "identities",
      "outputs": [
        {
          "name": "",
          "type": "address"
        }
      ],
      "payable": false,
      "stateMutability": "view",
      "type": "function"
    },
    {
      "inputs": [
        {
          "name": "_rbacAddress",
          "type": "address"
        }
      ],
      "payable": false,
      "stateMutability": "nonpayable",
      "type": "constructor"
    },
    {
      "anonymous": false,
      "inputs": [
        {
          "indexed": false,
          "name": "verifier",
          "type": "address"
        },
        {
          "indexed": false,
          "name": "user",
          "type": "address"
        },
        {
          "indexed": false,
          "name": "identity",
          "type": "address"
        }
      ],
      "name": "IdentityVerified",
      "type": "event"
    },
    {
      "anonymous": false,
      "inputs": [
        {
          "indexed": false,
          "name": "sender",
          "type": "address"
        },
        {
          "indexed": false,
          "name": "identity",
          "type": "address"
        }
      ],
      "name": "IdentityVerificationRequested",
      "type": "event"
    },
    {
      "anonymous": false,
      "inputs": [
        {
          "indexed": false,
          "name": "admin",
          "type": "address"
        },
        {
          "indexed": false,
          "name": "user",
          "type": "address"
        },
        {
          "indexed": false,
          "name": "role",
          "type": "string"
        }
      ],
      "name": "RoleAdded",
      "type": "event"
    },
    {
      "anonymous": false,
      "inputs": [
        {
          "indexed": false,
          "name": "admin",
          "type": "address"
        },
        {
          "indexed": false,
          "name": "user",
          "type": "address"
        },
        {
          "indexed": false,
          "name": "role",
          "type": "string"
        }
      ],
      "name": "RoleRemoved",
      "type": "event"
    },
    {
      "anonymous": false,
      "inputs": [
        {
          "indexed": true,
          "name": "previousOwner",
          "type": "address"
        },
        {
          "indexed": true,
          "name": "newOwner",
          "type": "address"
        }
      ],
      "name": "OwnershipTransferred",
      "type": "event"
    }
  ],
  "bytecode": "0x6060604052341561000f57600080fd5b604051602080611ce083398101604052808051906020019091905050336000806101000a81548173ffffffffffffffffffffffffffffffffffffffff021916908373ffffffffffffffffffffffffffffffffffffffff16021790555080600460006101000a81548173ffffffffffffffffffffffffffffffffffffffff021916908373ffffffffffffffffffffffffffffffffffffffff16021790555050611c24806100bc6000396000f3006060604052600436106100e6576000357c0100000000000000000000000000000000000000000000000000000000900463ffffffff1680630988ca8c146100eb5780630c5ac8401461016757806313e32bdb146101a0578063217fe6c6146101d957806328a4cc301461026d57806331d87de2146102a6578063528929a3146102df578063705dc19f1461033757806381d12c581461038c57806388cee87e146104295780638da5cb5b146104a5578063b25fa92c146104fa578063c1d274b414610576578063d8a0b2e0146105ef578063f2fde38b14610628578063f653b81e14610661575b600080fd5b34156100f657600080fd5b610165600480803573ffffffffffffffffffffffffffffffffffffffff1690602001909190803590602001908201803590602001908080601f016020809104026020016040519081016040528093929190818152602001838380828437820191505050505050919050506106da565b005b341561017257600080fd5b61019e600480803573ffffffffffffffffffffffffffffffffffffffff1690602001909190505061081b565b005b34156101ab57600080fd5b6101d7600480803573ffffffffffffffffffffffffffffffffffffffff16906020019091905050610c33565b005b34156101e457600080fd5b610253600480803573ffffffffffffffffffffffffffffffffffffffff1690602001909190803590602001908201803590602001908080601f01602080910402602001604051908101604052809392919081815260200183838082843782019150505050505091905050610c75565b604051808215151515815260200191505060405180910390f35b341561027857600080fd5b6102a4600480803573ffffffffffffffffffffffffffffffffffffffff16906020019091905050610dcc565b005b34156102b157600080fd5b6102dd600480803573ffffffffffffffffffffffffffffffffffffffff16906020019091905050610e0e565b005b34156102ea57600080fd5b610335600480803573ffffffffffffffffffffffffffffffffffffffff1690602001909190803573ffffffffffffffffffffffffffffffffffffffff16906020019091905050610ead565b005b341561034257600080fd5b61034a611251565b604051808273ffffffffffffffffffffffffffffffffffffffff1673ffffffffffffffffffffffffffffffffffffffff16815260200191505060405180910390f35b341561039757600080fd5b6103ad6004808035906020019091905050611277565b604051808473ffffffffffffffffffffffffffffffffffffffff1673ffffffffffffffffffffffffffffffffffffffff1681526020018373ffffffffffffffffffffffffffffffffffffffff1673ffffffffffffffffffffffffffffffffffffffff168152602001828152602001935050505060405180910390f35b341561043457600080fd5b6104a3600480803573ffffffffffffffffffffffffffffffffffffffff1690602001909190803590602001908201803590602001908080601f016020809104026020016040519081016040528093929190818152602001838380828437820191505050505050919050506112f0565b005b34156104b057600080fd5b6104b8611610565b604051808273ffffffffffffffffffffffffffffffffffffffff1673ffffffffffffffffffffffffffffffffffffffff16815260200191505060405180910390f35b341561050557600080fd5b610574600480803573ffffffffffffffffffffffffffffffffffffffff1690602001909190803590602001908201803590602001908080601f01602080910402602001604051908101604052809392919081815260200183838082843782019150505050505091905050611635565b005b341561058157600080fd5b6105ad600480803573ffffffffffffffffffffffffffffffffffffffff16906020019091905050611954565b604051808273ffffffffffffffffffffffffffffffffffffffff1673ffffffffffffffffffffffffffffffffffffffff16815260200191505060405180910390f35b34156105fa57600080fd5b610626600480803573ffffffffffffffffffffffffffffffffffffffff16906020019091905050611987565b005b341561063357600080fd5b61065f600480803573ffffffffffffffffffffffffffffffffffffffff169060200190919050506119c9565b005b341561066c57600080fd5b610698600480803573ffffffffffffffffffffffffffffffffffffffff16906020019091905050611b1e565b604051808273ffffffffffffffffffffffffffffffffffffffff1673ffffffffffffffffffffffffffffffffffffffff16815260200191505060405180910390f35b600460009054906101000a900473ffffffffffffffffffffffffffffffffffffffff1673ffffffffffffffffffffffffffffffffffffffff16630988ca8c83836040518363ffffffff167c0100000000000000000000000000000000000000000000000000000000028152600401808373ffffffffffffffffffffffffffffffffffffffff1673ffffffffffffffffffffffffffffffffffffffff16815260200180602001828103825283818151815260200191508051906020019080838360005b838110156107b757808201518184015260208101905061079c565b50505050905090810190601f1680156107e45780820380516001836020036101000a031916815260200191505b509350505050600060405180830381600087803b151561080357600080fd5b6102c65a03f1151561081457600080fd5b5050505050565b600073ffffffffffffffffffffffffffffffffffffffff16600160003373ffffffffffffffffffffffffffffffffffffffff1673ffffffffffffffffffffffffffffffffffffffff16815260200190815260200160002060009054906101000a900473ffffffffffffffffffffffffffffffffffffffff1673ffffffffffffffffffffffffffffffffffffffff161415156108b557600080fd5b600073ffffffffffffffffffffffffffffffffffffffff16600260003373ffffffffffffffffffffffffffffffffffffffff1673ffffffffffffffffffffffffffffffffffffffff16815260200190815260200160002060009054906101000a900473ffffffffffffffffffffffffffffffffffffffff1673ffffffffffffffffffffffffffffffffffffffff1614151561094f57600080fd5b3373ffffffffffffffffffffffffffffffffffffffff168173ffffffffffffffffffffffffffffffffffffffff16638da5cb5b6000604051602001526040518163ffffffff167c0100000000000000000000000000000000000000000000000000000000028152600401602060405180830381600087803b15156109d257600080fd5b6102c65a03f115156109e357600080fd5b5050506040518051905073ffffffffffffffffffffffffffffffffffffffff16141515610a0f57600080fd5b60038054806001018281610a239190611b51565b916000526020600020906003020160006060604051908101604052803373ffffffffffffffffffffffffffffffffffffffff1681526020018573ffffffffffffffffffffffffffffffffffffffff16815260200142815250909190915060008201518160000160006101000a81548173ffffffffffffffffffffffffffffffffffffffff021916908373ffffffffffffffffffffffffffffffffffffffff16021790555060208201518160010160006101000a81548173ffffffffffffffffffffffffffffffffffffffff021916908373ffffffffffffffffffffffffffffffffffffffff1602179055506040820151816002015550505080600260003373ffffffffffffffffffffffffffffffffffffffff1673ffffffffffffffffffffffffffffffffffffffff16815260200190815260200160002060006101000a81548173ffffffffffffffffffffffffffffffffffffffff021916908373ffffffffffffffffffffffffffffffffffffffff1602179055507fa0a854e1efc619269c569f1f07b405520fdf17081229acf3a14a79b5a7b8ea523382604051808373ffffffffffffffffffffffffffffffffffffffff1673ffffffffffffffffffffffffffffffffffffffff1681526020018273ffffffffffffffffffffffffffffffffffffffff1673ffffffffffffffffffffffffffffffffffffffff1681526020019250505060405180910390a150565b610c72816040805190810160405280600681526020017f7369676e657200000000000000000000000000000000000000000000000000008152506106da565b50565b6000600460009054906101000a900473ffffffffffffffffffffffffffffffffffffffff1673ffffffffffffffffffffffffffffffffffffffff1663217fe6c684846000604051602001526040518363ffffffff167c0100000000000000000000000000000000000000000000000000000000028152600401808373ffffffffffffffffffffffffffffffffffffffff1673ffffffffffffffffffffffffffffffffffffffff16815260200180602001828103825283818151815260200191508051906020019080838360005b83811015610d5d578082015181840152602081019050610d42565b50505050905090810190601f168015610d8a5780820380516001836020036101000a031916815260200191505b509350505050602060405180830381600087803b1515610da957600080fd5b6102c65a03f11515610dba57600080fd5b50505060405180519050905092915050565b610e0b816040805190810160405280600881526020017f76657269666965640000000000000000000000000000000000000000000000008152506106da565b50565b6000809054906101000a900473ffffffffffffffffffffffffffffffffffffffff1673ffffffffffffffffffffffffffffffffffffffff163373ffffffffffffffffffffffffffffffffffffffff16141515610e6957600080fd5b80600460006101000a81548173ffffffffffffffffffffffffffffffffffffffff021916908373ffffffffffffffffffffffffffffffffffffffff16021790555050565b610eec336040805190810160405280600581526020017f61646d696e0000000000000000000000000000000000000000000000000000008152506106da565b8173ffffffffffffffffffffffffffffffffffffffff168173ffffffffffffffffffffffffffffffffffffffff16638da5cb5b6000604051602001526040518163ffffffff167c0100000000000000000000000000000000000000000000000000000000028152600401602060405180830381600087803b1515610f6f57600080fd5b6102c65a03f11515610f8057600080fd5b5050506040518051905073ffffffffffffffffffffffffffffffffffffffff16141515610fac57600080fd5b600073ffffffffffffffffffffffffffffffffffffffff16600160008473ffffffffffffffffffffffffffffffffffffffff1673ffffffffffffffffffffffffffffffffffffffff16815260200190815260200160002060009054906101000a900473ffffffffffffffffffffffffffffffffffffffff1673ffffffffffffffffffffffffffffffffffffffff1614151561104657600080fd5b80600160008473ffffffffffffffffffffffffffffffffffffffff1673ffffffffffffffffffffffffffffffffffffffff16815260200190815260200160002060006101000a81548173ffffffffffffffffffffffffffffffffffffffff021916908373ffffffffffffffffffffffffffffffffffffffff1602179055506000600260008473ffffffffffffffffffffffffffffffffffffffff1673ffffffffffffffffffffffffffffffffffffffff16815260200190815260200160002060006101000a81548173ffffffffffffffffffffffffffffffffffffffff021916908373ffffffffffffffffffffffffffffffffffffffff160217905550611182826040805190810160405280600881526020017f7665726966696564000000000000000000000000000000000000000000000000815250611635565b7f64dbe0d4fd6f143cba53f80d61ad204ecf1c5d1b77e229965dbea0e5bb53188d338383604051808473ffffffffffffffffffffffffffffffffffffffff1673ffffffffffffffffffffffffffffffffffffffff1681526020018373ffffffffffffffffffffffffffffffffffffffff1673ffffffffffffffffffffffffffffffffffffffff1681526020018273ffffffffffffffffffffffffffffffffffffffff1673ffffffffffffffffffffffffffffffffffffffff168152602001935050505060405180910390a15050565b600460009054906101000a900473ffffffffffffffffffffffffffffffffffffffff1681565b60038181548110151561128657fe5b90600052602060002090600302016000915090508060000160009054906101000a900473ffffffffffffffffffffffffffffffffffffffff16908060010160009054906101000a900473ffffffffffffffffffffffffffffffffffffffff16908060020154905083565b61132f336040805190810160405280600581526020017f61646d696e0000000000000000000000000000000000000000000000000000008152506106da565b806040518082805190602001908083835b6020831015156113655780518252602082019150602081019050602083039250611340565b6001836020036101000a0380198251168184511680821785525050505050509050019150506040518091039020600019167f24fb3e7553f72d287bbe4f5c584938a00a2f63bf3d7aa032d67d57f2d556a84d60010260001916141515156113cb57600080fd5b600460009054906101000a900473ffffffffffffffffffffffffffffffffffffffff1673ffffffffffffffffffffffffffffffffffffffff166388cee87e83836040518363ffffffff167c0100000000000000000000000000000000000000000000000000000000028152600401808373ffffffffffffffffffffffffffffffffffffffff1673ffffffffffffffffffffffffffffffffffffffff16815260200180602001828103825283818151815260200191508051906020019080838360005b838110156114a857808201518184015260208101905061148d565b50505050905090810190601f1680156114d55780820380516001836020036101000a031916815260200191505b509350505050600060405180830381600087803b15156114f457600080fd5b6102c65a03f1151561150557600080fd5b5050507f6a52fb0cb0e75e6a6721483d2e539b38273ec6fe95b648a41e1a901594aeccb8338383604051808473ffffffffffffffffffffffffffffffffffffffff1673ffffffffffffffffffffffffffffffffffffffff1681526020018373ffffffffffffffffffffffffffffffffffffffff1673ffffffffffffffffffffffffffffffffffffffff16815260200180602001828103825283818151815260200191508051906020019080838360005b838110156115d05780820151818401526020810190506115b5565b50505050905090810190601f1680156115fd5780820380516001836020036101000a031916815260200191505b5094505050505060405180910390a15050565b6000809054906101000a900473ffffffffffffffffffffffffffffffffffffffff1681565b611674336040805190810160405280600581526020017f61646d696e0000000000000000000000000000000000000000000000000000008152506106da565b600073ffffffffffffffffffffffffffffffffffffffff16600160008473ffffffffffffffffffffffffffffffffffffffff1673ffffffffffffffffffffffffffffffffffffffff16815260200190815260200160002060009054906101000a900473ffffffffffffffffffffffffffffffffffffffff1673ffffffffffffffffffffffffffffffffffffffff161415151561170f57600080fd5b600460009054906101000a900473ffffffffffffffffffffffffffffffffffffffff1673ffffffffffffffffffffffffffffffffffffffff1663b25fa92c83836040518363ffffffff167c0100000000000000000000000000000000000000000000000000000000028152600401808373ffffffffffffffffffffffffffffffffffffffff1673ffffffffffffffffffffffffffffffffffffffff16815260200180602001828103825283818151815260200191508051906020019080838360005b838110156117ec5780820151818401526020810190506117d1565b50505050905090810190601f1680156118195780820380516001836020036101000a031916815260200191505b509350505050600060405180830381600087803b151561183857600080fd5b6102c65a03f1151561184957600080fd5b5050507fa40c1dc2b34f6b51c3ea614b688f243e50047ed9fa3ea19010303d70dac781ed338383604051808473ffffffffffffffffffffffffffffffffffffffff1673ffffffffffffffffffffffffffffffffffffffff1681526020018373ffffffffffffffffffffffffffffffffffffffff1673ffffffffffffffffffffffffffffffffffffffff16815260200180602001828103825283818151815260200191508051906020019080838360005b838110156119145780820151818401526020810190506118f9565b50505050905090810190601f1680156119415780820380516001836020036101000a031916815260200191505b5094505050505060405180910390a15050565b60026020528060005260406000206000915054906101000a900473ffffffffffffffffffffffffffffffffffffffff1681565b6119c6816040805190810160405280600781526020017f63726561746f72000000000000000000000000000000000000000000000000008152506106da565b50565b6000809054906101000a900473ffffffffffffffffffffffffffffffffffffffff1673ffffffffffffffffffffffffffffffffffffffff163373ffffffffffffffffffffffffffffffffffffffff16141515611a2457600080fd5b600073ffffffffffffffffffffffffffffffffffffffff168173ffffffffffffffffffffffffffffffffffffffff1614151515611a6057600080fd5b8073ffffffffffffffffffffffffffffffffffffffff166000809054906101000a900473ffffffffffffffffffffffffffffffffffffffff1673ffffffffffffffffffffffffffffffffffffffff167f8be0079c531659141344cd1fd0a4f28419497f9722a3daafe3b4186f6b6457e060405160405180910390a3806000806101000a81548173ffffffffffffffffffffffffffffffffffffffff021916908373ffffffffffffffffffffffffffffffffffffffff16021790555050565b60016020528060005260406000206000915054906101000a900473ffffffffffffffffffffffffffffffffffffffff1681565b815481835581811511611b7e57600302816003028360005260206000209182019101611b7d9190611b83565b5b505050565b611bf591905b80821115611bf157600080820160006101000a81549073ffffffffffffffffffffffffffffffffffffffff02191690556001820160006101000a81549073ffffffffffffffffffffffffffffffffffffffff0219169055600282016000905550600301611b89565b5090565b905600a165627a7a7230582002fb25909540f64ef13c685df5b5d67fc47994a41c6263a8772175965c4259450029",
  "source": "pragma solidity ^0.4.18;\r\n\r\nimport 'zeppelin-solidity/contracts/ownership/Ownable.sol';\r\n\r\nimport 'zeppelin-solidity/contracts/ownership/rbac/RBAC.sol';\r\n\r\ncontract Identities is Ownable {\r\n\r\n    struct VerificationData {\r\n        address user;\r\n        address identity;\r\n        uint256 blockTimestamp;\r\n    }\r\n\r\n    // Mapping of user address to identity\r\n    mapping(address => address) public identities;\r\n\r\n    mapping(address => address) public unverifiedIdentities;\r\n\r\n    VerificationData[] public requests;\r\n\r\n\r\n\r\n    string constant ROLE_VERIFIED_IDENTITY = \"verified\";\r\n\r\n    bytes32 constant ROLE_VERIFIED_IDENTITY_KCK = 0x24fb3e7553f72d287bbe4f5c584938a00a2f63bf3d7aa032d67d57f2d556a84d;\r\n\r\n    string constant ROLE_DOCUMENT_SIGNER = \"signer\";\r\n\r\n    string constant ROLE_DOCUMENT_CREATOR = \"creator\";\r\n\r\n    string constant ROLE_ADMIN = \"admin\";\r\n\r\n    bytes32 constant ROLE_ADMIN_KCK = 0xf23ec0bb4210edd5cba85afd05127efcd2fc6a781bfed49188da1081670b22d8;\r\n\r\n    RBAC public rbacAddress;\r\n\r\n    bytes32 constant IDENTITY = 0x377799b22fba826cf24c3f07e6731c67676765addcee33415a2c80d453d4ed6e;\r\n\r\n    function Identities(address _rbacAddress) public {\r\n        rbacAddress = RBAC(_rbacAddress);\r\n    }\r\n\r\n    event IdentityVerified(address verifier, address user, address identity);\r\n    event IdentityVerificationRequested(address sender, address identity);\r\n    event RoleAdded(address admin, address user, string role);\r\n    event RoleRemoved(address admin, address user, string role);\r\n\r\n    modifier onlyRole(string _role) {\r\n        checkRole(msg.sender, _role);\r\n        _;\r\n    }\r\n\r\n    modifier onlyAdmin() {\r\n        checkRole(msg.sender, ROLE_ADMIN);\r\n        _;\r\n    }\r\n\r\n    function verifyIdentity(address user, address identity) public onlyAdmin {\r\n        require(IdentityOwnership(identity).owner() == user);\r\n        require(identities[user] == address(0));\r\n\r\n        identities[user] = identity;\r\n        unverifiedIdentities[user] = address(0);\r\n        adminAddRole(user, ROLE_VERIFIED_IDENTITY);\r\n        IdentityVerified(msg.sender, user, identity);\r\n    }\r\n\r\n    function reqIdnVerification(address identity) external {\r\n        require(identities[msg.sender] == address(0));\r\n        require(unverifiedIdentities[msg.sender] == address(0));\r\n        require(IdentityOwnership(identity).owner() == msg.sender);\r\n\r\n        requests.push(VerificationData(msg.sender, identity, block.timestamp));\r\n        unverifiedIdentities[msg.sender] = identity;\r\n\r\n        IdentityVerificationRequested(msg.sender, identity);\r\n    }\r\n\r\n\r\n    function setRBACAddress(address _rbacAddress) public onlyOwner {\r\n        rbacAddress = RBAC(_rbacAddress);\r\n    }\r\n\r\n    function checkVerifiedRole(address addr) view public {\r\n        checkRole(addr, ROLE_VERIFIED_IDENTITY);\r\n    }\r\n\r\n    function checkSignerRole(address addr) view public {\r\n        checkRole(addr, ROLE_DOCUMENT_SIGNER);\r\n    }\r\n\r\n    function checkCreatorRole(address addr) view public {\r\n        checkRole(addr, ROLE_DOCUMENT_CREATOR);\r\n    }\r\n\r\n\r\n    function hasRole(address addr, string roleName) public view returns (bool) {\r\n        return rbacAddress.hasRole(addr, roleName);\r\n    }\r\n\r\n    function checkRole(address addr, string roleName) public view {\r\n        rbacAddress.checkRole(addr, roleName);\r\n    }\r\n\r\n    function adminAddRole(address addr, string roleName) public onlyAdmin {\r\n        require(identities[addr] != address(0));\r\n\r\n        rbacAddress.adminAddRole(addr, roleName);\r\n\r\n        RoleAdded(msg.sender, addr, roleName);\r\n\r\n    }\r\n\r\n    function adminRemoveRole(address addr, string roleName) public onlyAdmin {\r\n        require(ROLE_VERIFIED_IDENTITY_KCK != keccak256(roleName));\r\n        rbacAddress.adminRemoveRole(addr, roleName);\r\n\r\n        RoleRemoved(msg.sender, addr, roleName);\r\n    }\r\n\r\n\r\n}\r\n\r\ninterface IdentityOwnership {\r\n    function owner() public view returns (address);\r\n}\r\n",
  "sourcePath": "C:\\Users\\User.Admin\\Desktop\\sol-workspace\\document-management-smc\\contracts\\Identities.sol",
  "compiler": {
    "name": "solc",
    "version": "0.4.18+commit.9cf6e910.Emscripten.clang"
  },
  "schemaVersion": "1.0.1",
  "updatedAt": "2018-04-03T03:29:25.379Z"
}