{
  "contractName": "NamedContract",
  "abi": [
    {
      "constant": true,
      "inputs": [],
      "name": "contractName",
      "outputs": [
        {
          "name": "",
          "type": "bytes32"
        }
      ],
      "payable": false,
      "stateMutability": "view",
      "type": "function"
    },
    {
      "inputs": [
        {
          "name": "_contractName",
          "type": "bytes32"
        }
      ],
      "payable": false,
      "stateMutability": "nonpayable",
      "type": "constructor"
    }
  ],
  "bytecode": "0x6060604052341561000f57600080fd5b6040516020806100e98339810160405280805190602001909190505080600081600019169055505060a4806100456000396000f300606060405260043610603f576000357c0100000000000000000000000000000000000000000000000000000000900463ffffffff16806375d0c0dc146044575b600080fd5b3415604e57600080fd5b60546072565b60405180826000191660001916815260200191505060405180910390f35b600054815600a165627a7a723058203be4187c6febedc5da29978c9e7f2e8d9840a064d1b4d20a05d5cb404d1016380029",
  "source": "pragma solidity 0.4.18;\r\n\r\ncontract NamedContract {\r\n\r\n    bytes32 public contractName;\r\n\r\n    function NamedContract(bytes32 _contractName) public{\r\n        contractName = _contractName;\r\n    }\r\n\r\n\r\n}\r\n",
  "sourcePath": "C:\\Users\\User.Admin\\Desktop\\sol-workspace\\document-management-smc\\contracts\\NamedContract.sol",
  "compiler": {
    "name": "solc",
    "version": "0.4.18+commit.9cf6e910.Emscripten.clang"
  },
  "schemaVersion": "1.0.1",
  "updatedAt": "2018-03-15T04:58:56.196Z"
}